:100000000C943D000C94F5060C94F5060C94F50642
:100010000C94F5060C94F5060C9456060C94F50613
:100020000C94F5060C94F5060C94F5060C94F50664
:100030000C94F5060C94F5060C94F5060C94F50654
:100040000C94F5060C94F5060C94F5060C94F50644
:100050000C94F5060C94F5060C94F5060C94F50634
:100060000C94F5060C94F5060100019080019001B6
:1000700098000DF8019801B9800011241FBECFEF40
:10008000D8E0DEBFCDBFE8E6F0E040E017C0B591B4
:10009000A59135912591059107FD0CC0959185910C
:1000A000EF01F92FE82F05900D92A217B307D9F7AA
:1000B000FE0104C01D92A217B307E1F7E937F40768
:0E00C00031F70E94CA040C94AD06F894FFCFED
:1000CE006279746500593000696E74385F74005936
:1000DE0031005A3100696E7431365F74004231005E
:1000EE0057310053310075696E74385F74004443A4
:1000FE005F4459310044435F445A310044435F44E6
:0E010E0042310044435F4457310044533100F6
:10011C0062797465006669656C640075696E743823
:08012C005F7400666F6F640050
:1001340040321B10101010101010101010101B3231
:1001440080BAE1F3FAFDFEFF1010101010101E45E6
:100154008F929F92AF92BF92CF92DF92EF92FF92D3
:100164000F931F93CF93DF936EEC70E080E00E94B7
:10017400A10582E00E94E00563ED70E080E00E944A
:10018400A10566ED70E080E00E94A10588E00E9470
:10019400E005C8E8D1E000E911E089910E94E0059A
:1001A400C017D107D1F76EEC70E080E00E94A10582
:1001B40082E00E94E0056DED70E080E00E94A10500
:1001C40066ED70E080E00E94A10584E00E94E005F5
:1001D400CCEAD1E000EB11E089910E94E0050C1714
:1001E4001D07D1F76EEC70E080E00E94A10582E06B
:1001F4000E94E00560EE70E080E00E94A10563EEDD
:1002040070E080E00E94A10584E00E94E0050F2ECA
:10021400F0E8EF2EF1E0FF2EF02D0F2EF8E8CF2EB0
:10022400F1E0DF2EF02DE701899199910E94C30638
:10023400CC16DD06C9F76EEC70E080E00E94A105E3
:1002440082E00E94E0056BEE70E080E00E94A10570
:1002540066ED70E080E00E94A10584E00E94E00564
:10026400C8EAD1E00CEA11E089910E94E005C017C8
:10027400D107D1F76EEC70E080E00E94A10582E026
:100284000E94E0056EEE70E080E00E94A10566ED3C
:1002940070E080E00E94A10580E20E94E0050F2E3C
:1002A400F0E6AF2EF1E0BF2EF02D0F2EF0E88F2EEA
:1002B400F1E09F2EF02D0EC0F80181918F010E9474
:1002C400E005CF5FC430C1F7F4E0AF0EB11C8A146F
:1002D4009B0419F08501C0E0EFCF6EEC70E080E084
:1002E4000E94A10582E00E94E00561EF70E080E0D9
:1002F4000E94A10564EF70E080E00E94A10584E003
:100304000E94E005C0E8D1E0899199910E94FD0521
:100314000E94E005CC16DD06B9F76EEC70E080E0D3
:100324000E94A10586E00E94E0056CEF70E080E089
:100334000E94A10566ED70E080E00E94A10584E0C2
:100344000E94E005C4EAD1E008EA11E089910E9424
:10035400E0050C171D07D1F76EEC70E080E00E94F9
:10036400A10586E00E94E00563E071E080E00E9460
:10037400A10566ED70E080E00E94A10584E00E9482
:10038400E005C0EAD1E004EA11E089910E94E005A9
:100394000C171D07D1F76EEC70E080E00E94A105F8
:1003A40086E00E94E0056AE071E080E00E94A10519
:1003B40066ED70E080E00E94A10584E00E94E00503
:1003C400CCE9D1E000EA11E089910E94E0050C1724
:1003D4001D07D1F76EEC70E080E00E94A10586E075
:1003E4000E94E00561E171E080E00E94A10566EDF4
:1003F40070E080E00E94A10580E20E94E0050F2EDB
:10040400F0E4AF2EF1E0BF2EF02D0F2EF0E68F2E8C
:10041400F1E09F2EF02D0EC0F80181918F010E9412
:10042400E005CF5FC430C1F7F4E0AF0EB11C8A140D
:100434009B0419F08501C0E0EFCF6EEC70E080E022
:100444000E94A10583E00E94E00568E171E080E07C
:100454000E94A10564EF70E080E00E94A10584E0A1
:100464000E94E005F701819191917F010E94170696
:100474000E94E005EC14FD04A9F7DF91CF911F91D0
:100484000F91FF90EF90DF90CF90BF90AF909F902F
:040494008F900895A8
:100498002F923F924F925F926F927F928F929F928C
:1004A800AF92BF92CF92DF92EF92FF920F931F937A
:1004B800CF93DF9300D00F92CDB7DEB7882309F42E
:1004C800CDC08F3F71F4E8E9F1E080E1808381835A
:1004D80082838383E091B401F0E0E856FE4F1082F6
:1004E800B3C0E8E9F1E01082118212821382E09130
:1004F800B401F0E0E856FE4F80E18083A5C0819109
:10050800DB019D91BD01891B880FDA018D93AD0137
:10051800E217F307A1F70F2EF0E8AF2EF1E0BF2E98
:10052800F02D0F2EF0EA6F2EF1E07F2EF02D0F2E1A
:10053800FCE98F2EF1E09F2EF02D0F2EF0E4EF2E28
:10054800F1E0FF2EF02D0F2EF8EA2F2EF1E03F2ECE
:10055800F02D67012401F80141918F014983D501EC
:100568008D919D915D019595879595958795959523
:100578008795959587950E941706B0E18B9F900106
:10058800112449814203C001439F900D11246FEF4C
:1005980070E00E942E067595679575956795759517
:1005A800679575956795D3016D933D01F201619348
:1005B8002F01A8E8B1E0F601062E000C770B2D916B
:1005C8002603C001279F900D112495958795959531
:1005D800879595958795959587958083349680E935
:1005E80091E08A179B0759F79FEFC91AD90A021594
:1005F800130509F0B0CFA8EAB1E0BB83AA8340E6AF
:1006080051E060EA71E0F40191914F01AA81BB8148
:100618008C91891B8D93BB83AA839A01205E3F4FDF
:10062800D701FA0180819C91891B808334961496A6
:10063800E217F307B9F74F5F5F4FBFEFEB1AFB0AFB
:100648008616970601F70AC0ECEAF1E068E971E05E
:1006580004EA11E020EB31E0A80151CF0F900F9090
:100668000F90DF91CF911F910F91FF90EF90DF9046
:10067800CF90BF90AF909F908F907F906F905F903A
:080688004F903F902F90089560
:100690004F925F926F927F928F929F92AF92BF9292
:1006A000CF92DF92EF92FF920F931F93CF93DF933E
:1006B0000F2EF8E86F2EF1E07F2EF02DC0E9D1E08B
:1006C000F30190E1808118160CF490833196EC17B9
:1006D000FD07C1F70F2EF8EAAF2EF1E0BF2EF02D87
:1006E0000F2EF0E8EF2EF1E0FF2EF02D0F2EFCEA9A
:1006F000CF2EF1E0DF2EF02D00E611E00F2EFCEA08
:100700008F2EF1E09F2EF02D44244A94512CF501B8
:1007100081915F01082E000C990BA701D801F3010C
:1007200021913C9132029001112435952795359500
:1007300027953595279535952795820F931F149604
:10074000CE17DF0769F7FA0191838083F2E0EF0E9D
:10075000F11C959587959595879595958795959590
:1007600087950E94FD0520E1829FC0011124B201FE
:100770000E942E06F60161936F010F5F1F4FA814B0
:10078000B90429F6ADEAB1E080E091E03D91E82FAF
:10079000F0E0E455FE4F208123170CF4892F9F5F72
:1007A0009430A1F78093B401DF91CF911F910F9105
:1007B000FF90EF90DF90CF90BF90AF909F908F9081
:0A07C0007F906F905F904F900895B6
:1007CA009091B50191509093B501E0E0F1E020E4F9
:1007DA0031E09081992311F0915090833196E2177C
:1007EA00F307B9F78370813079F028F08230B1F0DD
:1007FA008330E1F029C08091B701982F977001F1F9
:10080A0081508093B70120C08091B701982F9770CB
:10081A009730B1F08F5F8093B70116C08091B7010E
:10082A00883070F088508093B7010EC08091B7016C
:10083A0098EC980F983020F0885F8093B70104C035
:10084A000E9474058FEF34C02091B701822F90E087
:10085A00FC01E050FF4F3081332321F00E947405E0
:10086A008FEF26C03091B801FC01E050FF4F308372
:10087A008091B60128131BC088E28093B5013F5FBF
:10088A003093B8010E94C1058F739078992324F49C
:10089A000197806C9F6F01968093B6019927FC019E
:1008AA00E050FF4F80818111EDCF81E001C080E0EF
:1008BA009091B501911103C00E9474058FEF0895BC
:1008CA000F931F93CF93DF93AC01EC019C01285F38
:1008DA003F4FFC0111922E173F07E1F78091B701B4
:1008EA00782F77708695869586959091B601092F0F
:1008FA000770692F669566956695711104C091E037
:10090A00FA01908305C0773019F491E0FA019183D6
:10091A00811104C091E0FA0192832CC0873051F50D
:10092A0091E0FA01938326C0ED919091B701E90F06
:10093A00EF73F0E0E050FF4F9081911118832196F8
:10094A00A217B30789F7071720F491E0FA019483F5
:10095A0005C0701718F491E0FA019583681720F41E
:10096A0081E0FA0186830CC0861750F481E0FA010F
:10097A00878306C0A0E9B1E024E931E011E0D4CFD1
:0A098A00DF91CF911F910F910895A6
:100994000E9494060E9474050E9428050E94EF0696
:1009A4007C018C01005C1F4F2FEF81EE94E02150FD
:1009B40080409040E1F700C000000E94EC060E94D5
:1009C40065040E9448030E94E503C82F0E944C025C
:1009D4000E94E406CF3F11F40E94AA006CE171E08A
:1009E40080E00E94A10585E00E94E00561E271E0DB
:1009F40080E00E94A10567E271E080E00E94A10509
:100A040080E40E94E005E70189910E94E005C01797
:100A1400D107D1F76CE171E080E00E94A10584E088
:100A24000E94E0056FE271E080E00E94A10567E2A8
:100A340071E080E00E94A10581E00E94E0050E942F
:0C0A4400F2060E94E0050E94E806AECF1A
:100A5000AF92BF92CF92DF92EF92FF920F931F93CC
:100A6000CF93DF930F2EF8EAEF2EF1E0FF2EF02D5B
:100A700000E611E00F2EFCEACF2EF1E0DF2EF02D84
:100A80000E94C1058F719078992324F40197806E9C
:100A90009F6F01968051F70181937F01E801A09635
:100AA00058010E94C1058F719078992324F4019711
:100AB000806E9F6F01968051F5018083F4E0AF0E48
:100AC000B11CAC16BD0669F70F5F1F4FEC14FD0497
:100AD000B9F6DF91CF911F910F91FF90EF90DF90CA
:080AE000CF90BF90AF90089584
:100AE800E0E0F1E080E491E01192E817F907E1F71E
:100AF8000E94C1058F739078992324F40197806C24
:100B08009F6F01968093B7010E94C1058F739078FB
:100B1800992324F40197806C9F6F01968093B60106
:100B280083E08093B80198E29093B501E091B70112
:0A0B3800F0E0E050FF4F80830895C5
:100B4200CF92DF92EF92CF936B01E82EFB0184915B
:100B5200E7FC8081882379F0C0E00E94E005CF5F46
:100B6200AE2DC6018C0F911DA11DFC018491A7FD24
:100B720080818111F2CFCF91EF90DF90CF900895D5
:100B8200E0EBF1E020813181428153816DE27FE728
:100B920085E99CE40E946606DC01CB010196A11D59
:100BA200B11DE0EBF1E080839183A283B383F1E195
:0E0BB200B695A79597958795FA95D1F7089572
:100BC0008F3039F481EF0E94CC068FE10E94CC0671
:100BD00008958A3039F481EF0E94CC068AE10E94A0
:100BE000CC060895813F31F40E94CC0681EF0E942B
:0A0BF000CC0608950E94CC0608957B
:100BFA00883F2FEF920794F0883091058CF499235F
:100C0A000CF440969927092E000CAA0B8C5B9E4F78
:100C1A00AF4FFC018491A7FD8081089580E108957A
:040C2A008FEF0895AB
:100C2E009C01285F3F4F2031310578F499230CF455
:100C3E0040969927092E000CAA0B8C5C9E4FAF4F45
:0E0C4E00FC018491A7FD8081089580E1089546
:100C5C0097FB072E16F4009407D077FD09D00E945D
:100C6C00420607FC05D03EF4909581959F4F089560
:080C7C00709561957F4F08950A
:100C8400AA1BBB1B51E107C0AA1FBB1FA617B707AE
:100C940010F0A61BB70B881F991F5A95A9F78095CA
:080CA4009095BC01CD010895FB
:100CAC008F938FB78F93EF93FF93E0E6F0E0808103
:100CBC008F778083FF91EF918F918FBF8F911895D4
:100CCC00DB018F939F930E94B806BF91AF91A29FB7
:100CDC00800D911DA39F900DB29F900D112408952E
:100CEC0080E190E09093C5008093C4001092C00006
:0E0CFC0088E18093C10086E08093C2000895D5
:100D0A00A29FB001B39FC001A39F700D811D112442
:0E0D1A00911DB29F700D811D1124911D089531
:100D28000E94A1060E94DA06109260000E94D40672
:0A0D38000E94E0060E94760608956E
:100D420080E284B917B882E08AB915B818B81BB81E
:080D520013B816B819B8089592
:100D5A00EC010E94FA060E94F906CE010E94FB06E7
:060D6A00CE010E94F70615
:100D70000E948506A59F900DB49F900DA49F800DA5
:060D8000911D11240895ED
:100D8600CF93C92F0E94E0058C2F0E94E005CF91DA
:020D96000895BE
:100D9800E0ECF0E0908195FFFDCF8093C6000895C8
:0C0DA80012BC11BC10BC1FBA80E0089502
:0C0DB4001092610013BE15BE80E008958F
:080DC00013BE15BE80E008958A
:080DC8008FE00E94CC060895A3
:080DD0008AE00E94CC060895A0
:060DD80088E891E0089597
:060DDE0080E091E00895A1
:060DE4008091B6010895A4
:040DEA000C94000065
:040DEE000E946500FA
:020DF200089562
:020DF400089560
:020DF60008955E
:080DF800373F070809013938F3
:02000004008278
:00000001FF
