:100000000C943D000C9439070C9439070C94390773
:100010000C9439070C9439070C9499060C94390701
:100020000C9439070C9439070C9439070C94390750
:100030000C9439070C9439070C9439070C94390740
:100040000C9439070C9439070C9439070C94390730
:100050000C9439070C9439070C9439070C94390720
:100060000C9439070C94390701000198800198011C
:10007000A0000E8001A001C9800011241FBECFEF97
:10008000D8E0DEBFCDBFE8E6F0E040E017C0B591B4
:10009000A59135912591059107FD0CC0959185910C
:1000A000EF01F92FE82F05900D92A217B307D9F7AA
:1000B000FE0104C01D92A217B307E1F7E937F40768
:0E00C00031F70E94C2050C94F006F894FFCFB1
:1000CE0040321B10101010101010101010101B3298
:1000DE0080BAE1F3FAFDFEFF1010101010101E454D
:1000EE002F923F924F925F926F927F928F929F923A
:1000FE00AF92BF92CF92DF92EF92FF920F931F9328
:10010E00CF93DF93CDB7DEB762970FB6F894DEBF0D
:10011E000FBECDBF882309F485C18F3F61F480E106
:10012E0089838A838B838C838091C401FE01E80FBF
:10013E00F11D118268C119821A821B821C82809164
:10014E00C401FE01E80FF11D80E181835CC1819144
:10015E00D9019D919D01891B880FDB018D93BD01F6
:10016E00E417F507A1F7E4EAF1E01082118212829A
:10017E0013820F2EF0E8CF2EF1E0DF2EF02D0F2E92
:10018E00F8E76F2EF1E07F2EF02DE8EAF1E0FC8724
:10019E00EB8720E431E03E872D870F2EF0E52F2EE2
:1001AE00F1E03F2EF02D51014901F887EF83388A97
:1001BE002F86D201FD902D01F6018081F2E0CF0E47
:1001CE00D11C0E9486061F2D282F1203C001112458
:1001DE00992314F481509F4F692F792F770F770B46
:1001EE00D3016D937D933D01EF81F8859193F8874F
:1001FE00EF830F2EFCEBEF2EF1E0FF2EF02D24EA15
:10020E0031E03E832D8388EA91E09A878987D50174
:10021E009A8A898AF70141917F014603C001479F5F
:10022E00900D112499230CF40F969595879595951D
:10023E0087959595879595958795E989FA89808310
:10024E00A9013C90132D1603C001179F900D112488
:10025E0099230CF40F969595879595958795959579
:10026E00879595958795FA019081890F80832F5FE9
:10027E003F4F89899A8904969A8B898B149691E0BF
:10028E00283A390739F6AFEF8A1A9A0ABFEFAB1A36
:10029E00BB0AE0EB4E16E1E05E0609F08ACF2F8432
:1002AE0038880F2EF8E88F2EF1E09F2EF02D0F2EAE
:1002BE00F0E76F2EF1E07F2EF02D0F2EF0EACF2E0D
:1002CE00F1E0DF2EF02D0F2EF0E0EF2EF1E0FF2EFD
:1002DE00F02D5701260108E911E0F886EF82AD8175
:1002EE00BE81FD90BE83AD83F4018081F2E08F0E5E
:1002FE00911C0E9486062F2D382F2303C001112436
:10030E00992314F481509F4F292F392F330F330B1C
:10031E00D3012D933D933D01F20191932F01A0E95D
:10032E00B1E0F5014D914203C001439F900D1124A0
:10033E0099230CF40F969595879595958795959598
:10034E00879595958795808334960A171B0751F7E5
:10035E00FFEFAF1ABF0A2D813E8189859A85281736
:10036E00390709F0BCCFEF80F88420EB31E04CEA7E
:10037E0051E00B851C85AD84BE84D8019D918D0105
:10038E00F9018081891BD9018D939D01B101605FB7
:10039E007F4FD501F10180819C91891B808334961A
:1003AE001496E617F707B9F7BFEF2B1A3B0AEFEFD4
:1003BE00AE1ABE0A0417150701F764EB71E040E2AE
:1003CE0051E004EA11E0D6019D916D01FB0180819F
:1003DE00891BDB018D93BD019A01205E3F4FD70132
:1003EE00FA0180819C91891B808334961496E217C2
:1003FE00F307B9F74F5F5F4FBFEFEB1AFB0AC0165B
:10040E00D10609F70FC0E8EBF1E09E012F5F3F4FD9
:10041E000F2EFCEA4F2EF1E05F2EF02D4CEB51E04B
:10042E00B20195CE62960FB6F894DEBF0FBECDBF69
:10043E00DF91CF911F910F91FF90EF90DF90CF90B2
:10044E00BF90AF909F908F907F906F905F904F90E6
:06045E003F902F9008956D
:100464005F926F927F928F929F92AF92BF92CF9240
:10047400DF92EF92FF920F931F93CF93DF93C0E924
:10048400D1E008E911E089910E9456060C171D0776
:10049400D1F7CCEBD1E000EC11E089910E94560633
:1004A4000C171D07D1F7C8EBD1E00CEB11E08991D3
:1004B4000E9456060C171D07D1F7C4EBD1E008EBD8
:1004C40011E089910E9456060C171D07D1F7C0EB65
:1004D400D1E004EB11E089910E945606C017D107C0
:1004E400D1F70F2EF0E2EF2EF1E0FF2EF02D0F2EBC
:1004F400F0E4CF2EF1E0DF2EF02D1AC0F801819147
:100504008F010E945606C150C9F7F4E0EF0EF11CAA
:10051400CE14DF0469F40F2EF0E5EF2EF1E0FF2E88
:10052400F02D0F2EF0E6CF2EF1E0DF2EF02D10C0CF
:100534008701C4E0E3CFF80181918F010E94560640
:10054400C150C9F7F4E0EF0EF11CCE14DF0419F02A
:100554008701C4E0F0CF0F2EF8E8EF2EF1E0FF2E74
:10056400F02D0F2EF0E98F2EF1E09F2EF02DE701F4
:100574008E0188810E9456062296F80181810E948C
:1005840056068C169D06A1F700E811E00F2EF8E838
:10059400CF2EF1E0DF2EF02DE8015E0188810E946C
:1005A40056062296F50181810E945606CC16DD0678
:1005B400A1F7C0E7D1E00F2EF8E76F2EF1E07F2E10
:1005C400F02D5E0188810E9456062296F5018181F4
:1005D4000E9456066C167D06A1F7C8E7D1E00F2EDF
:1005E400F0E86F2EF1E07F2EF02D5E0188810E94ED
:1005F40056062296F50181810E9456066C167D06E8
:10060400A1F70F2EF4EAAF2EF1E0BF2EF02DC8EAC9
:10061400D1E0F50181915F010E945606CA15DB0500
:10062400C1F70F2EFCEAAF2EF1E0BF2EF02DC0EB88
:10063400D1E0F50181915F010E945606CA15DB05E0
:10064400C1F70F2EF0EAAF2EF1E0BF2EF02DC4EA71
:10065400D1E0F50181915F010E945606CA15DB05C0
:10066400C1F70F2EF8EAAF2EF1E0BF2EF02DCCEA41
:10067400D1E0F50181915F010E945606AC16BD06DA
:10068400C1F70F2EF0E0AF2EF1E0BF2EF02D0F2EAC
:10069400F0E26F2EF1E07F2EF02D19C089910E94B7
:1006A40056065A945110FACFF4E0AF0EB11C6A14F6
:1006B4007B0469F40F2EF0E4AF2EF1E0BF2EF02D91
:1006C4000F2EF0E56F2EF1E07F2EF02D11C0E50125
:1006D4006894552452F8E2CF89910E9456065A94A0
:1006E4005110FACF84E0A80EB11C6A147B0429F0DF
:1006F400E5016894552452F8EFCFC8E8D1E0888129
:1007040022960E9473060E9456068C169D06B9F71F
:10071400C0E8D1E0888122960E9473060E945606A2
:10072400CC16DD06B9F7F7018081F2E0EF0EF11C7B
:100734000E9486060E9456068E149F04A1F7F801B3
:1007440080810E5F1F4F0E9486060E945606C016C7
:10075400D106A9F7DF91CF911F910F91FF90EF90F0
:10076400DF90CF90BF90AF909F908F907F906F90CD
:040774005F900895F5
:100778004F925F926F927F928F929F92AF92BF92A9
:10078800CF92DF92EF92FF920F931F93CF93DF9355
:100798000F2EF0E96F2EF1E07F2EF02DC8E9D1E0A1
:1007A800F30190E1808118160CF490833196EC17D0
:1007B800FD07C1F70F2EF4EBAF2EF1E0BF2EF02DA1
:1007C8000F2EF8E8EF2EF1E0FF2EF02D0F2EFCEBA8
:1007D8004F2EF1E05F2EF02D00E211E00F2EF8EB26
:1007E8008F2EF1E09F2EF02D6201F50181915F01BE
:1007F800082E000C990BA701D801F30121913C9117
:10080800320290011124332314F4215F3F4F3595B0
:100818002795359527953595279535952795820FF1
:10082800931F1496CE17DF0749F7FA019183808347
:10083800F2E0EF0EF11C0E94730682958F70F601AC
:1008480081936F010F5F1F4FA814B90471F60F2E23
:10085800F0EBAF2EF1E0BF2EF02D0F2EF0E8EF2ECB
:10086800F1E0FF2EF02D0F2EF8EBCF2EF1E0DF2E6A
:10087800F02D00E511E00F2EF4EB8F2EF1E09F2E06
:10088800F02DC0ECD1E0F50181915F01082E000C3C
:10089800990BA701D801F20121913C9132029001F4
:1008A8001124332314F4215F3F4F3595279535954F
:1008B80027953595279535952795820F931F14967B
:1008C800EC17FD0749F7FA0191838083F2E0EF0EF8
:1008D800F11C0E94730682958F70F60181936F0157
:1008E8000F5F1F4FA814B90471F6A9EBB1E080E0BF
:1008F80091E03D91E82FF0E0E854FE4F2081231766
:100908000CF4892F9F5F9430A1F78093C401DF9185
:10091800CF911F910F91FF90EF90DF90CF90BF90F4
:10092800AF909F908F907F906F905F904F900895B9
:10093800AF92BF92CF92DF92EF92FF920F931F93E5
:10094800CF93DF930F2EF4EBCF2EF1E0DF2EF02DB7
:100958000F2EF0E2EF2EF1E0FF2EF02D0F2EF8EB28
:10096800AF2EF1E0BF2EF02D0E9437069054F6010D
:1009780091936F018701005E1F4FE7010E943706C0
:10098800905498832496C017D107C1F7FFEFEF1A48
:10099800FF0ACA14DB0441F70F2EF0EBCF2EF1E06B
:1009A800DF2EF02D0F2EF0E5EF2EF1E0FF2EF02DCB
:1009B8000F2EF4EBAF2EF1E0BF2EF02D0E9437067C
:1009C8009054F60191936F018701005F1F4FE70173
:1009D8000E943706905498832496C017D107C1F710
:1009E800FFEFEF1AFF0ACA14DB0441F7DF91CF913A
:1009F8001F910F91FF90EF90DF90CF90BF90AF9035
:020A080008954F
:100A0A000F931F93CF93DF93AC01EC019C01285FF6
:100A1A003F4FFC0111922E173F07E1F78091C70162
:100A2A00782F7370869586959091C601092F037069
:100A3A00692F66956695711104C091E0FA01908359
:100A4A0005C0733019F491E0FA019183811104C051
:100A5A0091E0FA0192832CC0833051F591E0FA01BA
:100A6A00938326C0ED919091C701E90FEF70F0E0F2
:100A7A00E05AFE4F9081911118832196A217B3076D
:100A8A0089F7071720F491E0FA01948305C07017DB
:100A9A0018F491E0FA019583681720F481E0FA01CD
:100AAA0086830CC0861750F481E0FA01878306C05A
:100ABA00A8E9B1E02CE931E011E0D4CFDF91CF9180
:060ACA001F910F91089539
:100AD000E0E6F1E020E731E09081992311F09150B8
:100AE00090833196E217F307B9F78370813079F07C
:100AF00028F08230B1F08330E1F024C08091C7014A
:100B0000982F937081F181508093C7011BC0809111
:100B1000C701982F9370933041F18F5F8093C70185
:100B200011C08091C701843010F184508093C701B7
:100B300009C08091C70194EF980F9430D0F08C5F7A
:100B40008093C7018091C70190E0FC01E05AFE4FFD
:100B50002081211110C0FC01E05AFE4F2091C801F4
:100B6000208380E009C08FEF07C08FEF05C08FEFB3
:100B700003C08FEF01C08FEF9091C501911101C0AB
:040B80008FEF089556
:100B84000E94D7060E9406060E949C040E94330716
:100B9400EC017C0120E1E20EF11C8C01F801819151
:100BA4008F010E9456060E151F05C1F70E943607D5
:100BB4000E945606FFEF21EE84E0F1502040804071
:100BC400E1F700C000000E9430070E9405050E9462
:100BD400BC030E9468058F3F69F70E9477000E945A
:100BE40028070E94320289910E945606EC16FD06DF
:100BF400D1F70E9436070E9456060E9436070E94CB
:080C040056060E942C07FFCFE9
:100C0C00E0E6F1E080E791E01192E817F907E1F7EF
:100C1C0080E090E00E9406070E9437068F70907863
:100C2C00992324F40197806F9F6F01968093C701DD
:100C3C000E9437068F709078992324F40197806F67
:100C4C009F6F01968093C60183E08093C80198E260
:100C5C009093C501E091C701F0E0E05AFE4F80830C
:020C6C000895E9
:100C6E00E0ECF1E020813181428153816DE27FE73A
:100C7E0085E99CE40E94A906DC01CB010196A11D29
:100C8E00B11DE0ECF1E080839183A283B383F1E1A7
:0E0C9E00B695A79597958795FA95D1F7089585
:100CAC008F3039F481EF0E9410078FE10E941007FA
:100CBC0008958A3039F481EF0E9410078AE10E946E
:100CCC0010070895813F31F40E94100781EF0E94B4
:0A0CDC00100708950E941007089504
:100CE60088230CF4815F85958595859585950AF40D
:100CF600805F90E0A0E082529F4FAF4FFC0184914D
:060D0600A7FD80810895A5
:100D0C0088230CF4815F85958595859585950AF4E6
:100D1C00805F90E0A0E082539F4FAF4FFC01849125
:060D2C00A7FD808108957F
:100D32008F938FB78F93EF93FF93E0E6F0E080817C
:100D42008F778083FF91EF918F918FBF8F9118954D
:100D5200DB018F939F930E94FB06BF91AF91A29FED
:100D6200800D911DA39F900DB29F900D11240895A7
:100D720087E690E09093C5008093C4001092C00073
:0E0D820088E18093C10086E08093C20008954E
:100D9000A29FB001B39FC001A39F700D811D1124BC
:0E0DA000911DB29F700D811D1124911D0895AB
:100DAE000E94E4060E941E07109260000E9418071F
:0A0DBE000E9424070E94B906089560
:100DC80080E284B917B882E08AB915B818B81BB898
:080DD80013B816B819B808950C
:100DE000EC010E943E070E943D07CE010E943F0792
:060DF000CE010E943B074A
:100DF6000E94C806A59F900DB49F900DA49F800DDC
:060E0600911D1124089566
:100E0C000197A0E0B0E0E0ECF1E080839183A28355
:040E1C00B3830895FF
:100E2000E0ECF0E0908195FFFDCF8093C60008953F
:0C0E300012BC11BC10BC1FBA80E0089579
:0C0E3C001092610013BE15BE80E0089506
:080E480013BE15BE80E0089501
:080E50008FE00E9410070895D5
:080E58008AE00E9410070895D2
:060E600080E991E0089515
:060E660080E691E0089512
:060E6C008091C60108950B
:040E72000C940000DC
:040E76000E94650071
:020E7A000895D9
:020E7C000895D7
:020E7E000895D5
:080E80000B0F030405010D0C2A
:02000004008278
:00000001FF
