:100000000C943D000C9467060C9467060C946706EC
:100010000C9467060C9467060C94C8050C9467064C
:100020000C9467060C9467060C9467060C9467069C
:100030000C9467060C9467060C9467060C9467068C
:100040000C9467060C9467060C9467060C9467067C
:100050000C9467060C9467060C9467060C9467066C
:100060000C9467060C9467060100018080018001F2
:1000700088000CDC018801B9800011241FBECFEF7D
:10008000D8E0DEBFCDBFE8E6F0E040E017C0B591B4
:10009000A59135912591059107FD0CC0959185910C
:1000A000EF01F92FE82F05900D92A217B307D9F7AA
:1000B000FE0104C01D92A217B307E1F7E937F40768
:0E00C00031F70E9488040C941F06F894FFCFBD
:1000CE00593000696E74385F74005931005A31002E
:1000DE00696E7431365F740042310057310053310E
:1000EE000075696E74385F740044435F4459310083
:1000FE0044435F445A310044435F44423100444319
:09010E005F4457310044533100F5
:100117006669656C640075696E74385F7400666F34
:030127006F640002
:10012A0040321B10101010101010101010101B323B
:10013A0080BAE1F3FAFDFEFF1010101010101E45F0
:10014A008F929F92AF92BF92CF92DF92EF92FF92DD
:10015A000F931F93CF93DF936EEC70E080E00E94C1
:10016A00440561ED70E080E00E944405C0E9D1E0F9
:10017A0008E911E089910E948305C017D107D1F7D8
:10018A0068ED70E080E00E94440561ED70E080E077
:10019A000E944405CCEAD1E000EB11E089910E946B
:1001AA0083050C171D07D1F76BED70E080E00E9404
:1001BA0044056EED70E080E00E9444050F2EF8E8D9
:1001CA00EF2EF1E0FF2EF02D0F2EF0E9CF2EF1E009
:1001DA00DF2EF02DE701899199910E943506CC1600
:1001EA00DD06C9F766EE70E080E00E94440561ED25
:1001FA0070E080E00E944405C8EAD1E00CEA11E010
:10020A0089910E948305C017D107D1F769EE70E082
:10021A0080E00E94440561ED70E080E00E944405A0
:10022A000F2EF0E6AF2EF1E0BF2EF02D0F2EF0E8E4
:10023A008F2EF1E09F2EF02D0EC0F80181918F01D3
:10024A000E948305CF5FC430C1F7F4E0AF0EB11C42
:10025A008A149B0419F08501C0E0EFCF6CEE70E0C0
:10026A0080E00E9444056FEE70E080E00E94440541
:10027A00C8E8D1E0899199910E94FD040E94830502
:10028A00CC16DD06B9F767EF70E080E00E944405FE
:10029A0061ED70E080E00E944405C4EAD1E008EA1A
:1002AA0011E089910E9483050C171D07D1F76EEFA3
:1002BA0070E080E00E94440561ED70E080E00E94F9
:1002CA004405C0EAD1E004EA11E089910E9483055D
:1002DA000C171D07D1F765E071E080E00E94440524
:1002EA0061ED70E080E00E944405CCE9D1E000EACB
:1002FA0011E089910E9483050C171D07D1F76CE064
:10030A0071E080E00E94440561ED70E080E00E94A7
:10031A0044050F2EF0E4AF2EF1E0BF2EF02D0F2E84
:10032A00F0E68F2EF1E09F2EF02D0EC0F80181919C
:10033A008F010E948305CF5FC430C1F7F4E0AF0E8E
:10034A00B11C8A149B0419F08501C0E0EFCF63E168
:10035A0071E080E00E9444056FEE70E080E00E9448
:10036A004405F701819191917F010E9422050E9423
:10037A008305EC14FD04A9F7DF91CF911F910F912A
:10038A00FF90EF90DF90CF90BF90AF909F908F90AB
:02039A000895C4
:10039C002F923F924F925F926F927F928F929F9289
:1003AC00AF92BF92CF92DF92EF92FF920F931F9377
:1003BC00CF93DF9300D00F92CDB7DEB7882309F42B
:1003CC00C5C08F3F71F4E8E9F1E080E1808381835F
:1003DC0082838383E091B801F0E0E856FE4F1082EF
:1003EC00ABC0E8E9F1E01082118212821382E09135
:1003FC00B801F0E0E856FE4F80E180839DC081910A
:10040C00DB019D91BD01891B880FDA018D93AD0134
:10041C00E217F307A1F70F2EF8E8AF2EF1E0BF2E8D
:10042C00F02D0F2EF0EA6F2EF1E07F2EF02D0F2E17
:10043C00FCE98F2EF1E09F2EF02D0F2EF0E4EF2E25
:10044C00F1E0FF2EF02D0F2EF8EA2F2EF1E03F2ECB
:10045C00F02D67012401F80141918F014983D501E9
:10046C008D919D915D010E942205B0E18B9F9001C1
:10047C00112449814203C001439F900D11246FEF59
:10048C0070E00E94A00575956795759567957595B3
:10049C00679575956795D3016D933D01F201619355
:1004AC002F01A0E9B1E0F601062E000C770B2D917F
:1004BC002603C001279F900D11249595879595953E
:1004CC00879595958795959587958083349688E93A
:1004DC0091E08A179B0759F79FEFC91AD90A0215A1
:1004EC00130509F0B8CFA8EAB1E0BB83AA8340E6B4
:1004FC0051E060EA71E0F40191914F01AA81BB8156
:10050C008C91891B8D93BB83AA839A01205E3F4FEC
:10051C00D701FA0180819C91891B808334961496B3
:10052C00E217F307B9F74F5F5F4FBFEFEB1AFB0A08
:10053C008616970601F70AC0ECEAF1E068E971E06B
:10054C0004EA11E020EB31E0A80159CF0F900F9095
:10055C000F90DF91CF911F910F91FF90EF90DF9053
:10056C00CF90BF90AF909F908F907F906F905F9047
:08057C004F903F902F9008956D
:100584004F925F926F927F928F929F92AF92BF929F
:10059400CF92DF92EF92FF920F931F93CF93DF934B
:1005A4000F2EF0E96F2EF1E07F2EF02DC8E9D1E097
:1005B400F30190E1808118160CF490833196EC17C6
:1005C400FD07C1F70F2EF8EAAF2EF1E0BF2EF02D94
:1005D4000F2EF8E8EF2EF1E0FF2EF02D0F2EFCEA9F
:1005E400CF2EF1E0DF2EF02D00E611E00F2EFCEA15
:1005F4008F2EF1E09F2EF02D44244A94512CF501C6
:1006040081915F01082E000C990BA701D801F30119
:1006140021913C913202900111243595279535950D
:1006240027953595279535952795820F931F149611
:10063400CE17DF0769F7FA0191838083F2E0EF0EAA
:10064400F11C0E94FD0420E1829FC0011124B2012B
:100654000E94A005F60161936F010F5F1F4FA8145C
:10066400B90469F6ADEAB1E080E091E03D91E82F8C
:10067400F0E0E455FE4F208123170CF4892F9F5F8F
:100684009430A1F78093B801DF91CF911F910F911E
:10069400FF90EF90DF90CF90BF90AF909F908F909E
:0A06A4007F906F905F904F900895D3
:1006AE009091B40191509093B401E0E0F1E020E418
:1006BE0031E09081992311F0915090833196E21799
:1006CE00F307B9F78370813079F028F08230B1F0FA
:1006DE008330E1F029C08091B601982F977001F117
:1006EE0081508093B60120C08091B601982F9770EB
:1006FE009730B1F08F5F8093B60116C08091B6012E
:10070E00883070F088508093B6010EC08091B6018B
:10071E0098EC980F983020F0885F8093B60104C053
:10072E000E94D0048FEF34C02091B601822F90E04A
:10073E00FC01E050FF4F3081332321F00E94D004A2
:10074E008FEF26C03091B701FC01E050FF4F308390
:10075E008091B50128131BC088E28093B4013F5FDE
:10076E003093B7010E9464058F739078992324F417
:10077E000197806C9F6F01968093B5019927FC01BC
:10078E00E050FF4F80818111EDCF81E001C080E00C
:10079E009091B401911103C00E94D0048FEF08957F
:1007AE000F931F93CF93DF93AC01EC019C01285F55
:1007BE003F4FFC0111922E173F07E1F78091B601D2
:1007CE00782F77708695869586959091B501092F2D
:1007DE000770692F669566956695711104C091E054
:1007EE00FA01908305C0773019F491E0FA019183F4
:1007FE00811104C091E0FA0192832CC0873051F52B
:10080E0091E0FA01938326C0ED919091B601E90F24
:10081E00EF73F0E0E050FF4F908191111883219615
:10082E00A217B30789F7071720F491E0FA01948312
:10083E0005C0701718F491E0FA019583681720F43B
:10084E0081E0FA0186830CC0861750F481E0FA012C
:10085E00878306C0A0E8B1E024E831E011E0D4CFF0
:0A086E00DF91CF911F910F910895C3
:10087800AF92BF92CF92DF92EF92FF920F931F93A6
:10088800CF93DF930F2EF8EAEF2EF1E0FF2EF02D35
:1008980000E611E00F2EFCEACF2EF1E0DF2EF02D5E
:1008A8000E9464058F719078992324F40197806ED3
:1008B8009F6F01968051F70181937F01E801A0960F
:1008C80058010E9464058F719078992324F4019748
:1008D800806E9F6F01968051F5018083F4E0AF0E22
:1008E800B11CAC16BD0669F70F5F1F4FEC14FD0471
:1008F800B9F6DF91CF911F910F91FF90EF90DF90A4
:08090800CF90BF90AF9008955D
:100910000E9406060E94D0040E943C040E945E06CB
:100920007C018C01005C1F4F2FEF81EE94E0215081
:1009300080409040E1F700C000000E9464060E94E1
:10094000D7030E94C2020E945703C82F0E94CE0103
:100950000E945606CF3F11F40E94A50067E171E0A6
:1009600080E00E9444056DE171E080E00E94440552
:10097000E70189910E948305C017D107D1F765E28D
:1009800071E080E00E9444056DE171E080E00E942A
:1009900044050E9461060E9483050E945A06C4CF46
:1009A000E0E0F1E080E491E01192E817F907E1F767
:1009B0000E9464058F739078992324F40197806CCA
:1009C0009F6F01968093B6010E9464058F739078A3
:1009D000992324F40197806C9F6F01968093B50151
:1009E00083E08093B70198E29093B401E091B6015F
:0A09F000F0E0E050FF4F808308950F
:1009FA0099230CF40F9695958795959587959595D6
:100A0A00879595958795883F2FEF920794F08830C0
:100A1A0091058CF499230CF440969927092E000C21
:100A2A00AA0B865C9E4FAF4FFC018491A7FD808183
:0A0A3A00089580E108958FEF0895FC
:100A440099230CF40F96959587959595879595958B
:100A54008795959587959C01285F3F4F20313105F7
:100A640078F499230CF440969927092E000CAA0BCC
:100A7400865D9E4FAF4FFC018491A7FD8081089550
:040A840080E1089570
:100A8800CF92DF92EF92CF936B01E82EFB01849116
:100A9800E7FC8081882379F0C0E00E948305CF5F5E
:100AA800AE2DC6018C0F911DA11DFC018491A7FDDF
:100AB80080818111F2CFCF91EF90DF90CF90089590
:100AC800E0EBF1E020813181428153816DE27FE7E3
:100AD80085E99CE40E94D805DC01CB010196A11DA3
:100AE800B11DE0EBF1E080839183A283B383F1E150
:0E0AF800B695A79597958795FA95D1F708952D
:100B06008F3039F481EF0E943E068FE10E943E0647
:100B160008958A3039F481EF0E943E068AE10E94E8
:100B26003E060895813F31F40E943E0681EF0E9401
:0A0B36003E0608950E943E06089551
:100B400097FB072E16F4009407D077FD09D00E947A
:100B5000B40507FC05D03EF4909581959F4F08950C
:080B6000709561957F4F089527
:100B6800AA1BBB1B51E107C0AA1FBB1FA617B707CB
:100B780010F0A61BB70B881F991F5A95A9F78095E7
:080B88009095BC01CD01089518
:100B90008F938FB78F93EF93FF93E0E6F0E0808120
:100BA0008F778083FF91EF918F918FBF8F911895F1
:100BB000DB018F939F930E942A06BF91AF91A29F62
:100BC000800D911DA39F900DB29F900D112408954B
:100BD00080E190E09093C5008093C4001092C00023
:0E0BE00088E18093C10086E08093C2000895F2
:100BEE00A29FB001B39FC001A39F700D811D112460
:0E0BFE00911DB29F700D811D1124911D08954F
:100C0C000E9413060E944C06109260000E94460639
:0A0C1C000E9452060E94E8050895A8
:100C260080E284B917B882E08AB915B818B81BB83B
:080C360013B816B819B80895AF
:100C3E00EC010E946C060E946B06CE010E946D06AE
:060C4E00CE010E946906C0
:100C54000E94F705A59F900DB49F900DA49F800D51
:060C6400911D112408950A
:100C6A00CF93C92F0E9483058C2F0E948305CF91B1
:020C7A000895DB
:100C7C00E0ECF0E0908195FFFDCF8093C6000895E5
:0C0C8C0012BC11BC10BC1FBA80E008951F
:0C0C98001092610013BE15BE80E00895AC
:080CA40013BE15BE80E00895A7
:080CAC008FE00E943E0608954E
:080CB4008AE00E943E0608954B
:060CBC0080E091E00895C4
:060CC2008091B5010895C8
:060CC80080E991E00895AF
:040CCE000C94000082
:040CD2000E94650017
:020CD60008957F
:020CD80008957D
:020CDA0008957B
:080CDC00373F07080901393810
:02000004008278
:00000001FF
