:100000000C943D000C949F090C949F090C949F093B
:100010000C949F090C949F090C94C6080C949F099A
:100020000C949F090C949F090C949F090C949F09B0
:100030000C949F090C949F090C949F090C949F09A0
:100040000C949F090C949F090C949F090C949F0990
:100050000C949F090C949F090C949F090C949F0980
:100060000C949F090C949F09010002A08002A00239
:10007000A800134C02A802B9800011241FBECFEFC4
:10008000D8E0DEBFCDBFE8E6F0E040E017C0B591B4
:10009000A59135912591059107FD0CC0959185910C
:1000A000EF01F92FE82F05900D92A217B307D9F7AA
:1000B000FE0104C01D92A217B307E1F7E937F40768
:0E00C00031F70E94C6060C941D09F894FFCF7C
:1000CE005930666C6F6174005931666C6F617400E3
:1000DE005A31666C6F6174004231666C6F617400E8
:1000EE005731666C6F617400533175696E74385F89
:1000FE00740044435F445931666C6F61740044432D
:10010E005F445A31666C6F61740044435F44423100
:10011E00666C6F61740044435F445731666C6F6167
:0D012E00740044533175696E74385F7400BD
:10013B006669656C640075696E74385F7400666F10
:03014B006F6400DE
:10014E0040321B10101010101010101010101B3217
:10015E0080BAE1F3FAFDFEFF1010101010101E45CC
:10016E002F923F924F925F926F927F928F929F92B9
:10017E00AF92BF92CF92DF92EF92FF920F931F93A7
:10018E00CF93DF93CDB7DEB728970FB6F894DEBFC7
:10019E000FBECDBF882309F44AC18F3F21F5E0E39E
:1001AE00F2E080E090E0A0E8BFE380839183A28339
:1001BE00B38384839583A683B78380879187A28731
:1001CE00B38784879587A687B787E091B802F0E05A
:1001DE00EE0FFF1FEE0FFF1FE05DFD4F108211822D
:1001EE00128213820CC1E0E3F2E0108211821282BD
:1001FE001382148215821682178210861186128639
:10020E0013861486158616861786E091B802F0E0DE
:10021E00EE0FFF1FEE0FFF1FE05DFD4F80E090E041
:10022E00A0E8BFE380839183A283B383E8C0E98112
:10023E00FA816191719181919191FA83E983F7012C
:10024E0021913191419151917F010E9445099B016C
:10025E00AC010E944609F8016193719381939193C9
:10026E008F0189819A818A159B0509F7E0E8F2E0F2
:10027E00FA83E98380E592E09C838B830F2EF0E472
:10028E006F2EF2E07F2EF02D0F2EF0E02F2EF1E0EC
:10029E003F2EF02D21017E826D820F2EF0E2EF2E89
:1002AE00F2E0FF2EF02DF60181909190A190B19089
:1002BE006F01E981FA816191719181919191FA8336
:1002CE00E9830E944C09CB010E94F407682F70E06D
:1002DE0080E090E00E940E07A50194010E948F0914
:1002EE0020E030E04FE753E40E948B094B015C01A4
:1002FE00EB81FC816193719381939193FC83EB83EA
:10030E00ED81FE816193719381939193FE83ED83D1
:10031E0000E012E058864F82F8012191319141910F
:10032E0051918F01C501B4010E948F09EF81F885AB
:10033E0060837183828393837096F887EF830E15A3
:10034E001F0551F7F4E04F0E511C80E7C81682E0EE
:10035E00D80609F0A8CF0F2EF0E7CF2EF2E0DF2E51
:10036E00F02D0F2EF0E8EF2EF1E0FF2EF02D0F2ED8
:10037E00F0E5AF2EF2E0BF2EF02DF3012191319179
:10038E00419151913F01F60160817181828193818A
:10039E000E944509F60161937193819391936F01C8
:1003AE00870100581F4F4101FA82E982F401208132
:1003BE00318142815381E981FA816081718182812B
:1003CE0093810E944509E981FA816083718382835A
:1003DE0093837096FA83E983F0E18F0E911C8981E5
:1003EE009A818017910711F794E0E90EF11CE4E071
:1003FE002E0E311C6A147B0409F0BFCF18C080E9A1
:10040E0092E00F2EF0E3EF2EF2E0FF2EF02D0F2EE6
:10041E00F0E6CF2EF2E0DF2EF02D0F2EF0EAAF2E0B
:10042E00F2E0BF2EF02D86019A83898300CF2896A5
:10043E000FB6F894DEBF0FBECDBFDF91CF911F91E7
:10044E000F91FF90EF90DF90CF90BF90AF909F9065
:10045E008F907F906F905F904F903F902F90089568
:10046E008F929F92AF92BF92CF92DF92EF92FF92B6
:10047E000F931F93CF93DF936EEC70E080E00E949A
:10048E005908C0E0D2E000E212E0699179918991B9
:10049E0099910E943808C017D107B9F766ED70E040
:1004AE0080E00E945908C0E9D2E000EA12E06991AA
:1004BE007991899199910E9438080C171D07B9F707
:1004CE006EED70E080E00E9459080F2EF0E8EF2EDE
:1004DE00F2E0FF2EF02D0F2EF0E9CF2EF2E0DF2E00
:1004EE00F02DE70169917991899199910E943808CF
:1004FE00CC16DD06B9F766EE70E080E00E94590872
:10050E00C0E7D2E000E812E0699179918991999162
:10051E000E943808C017D107B9F76EEE70E080E080
:10052E000E9459080F2EF0E8AF2EF1E0BF2EF02DED
:10053E000F2EF0E08F2EF2E09F2EF02D11C0F8015D
:10054E0061917191819191918F010E943808CF5FD5
:10055E00C430A9F7F0E1AF0EB11C8A149B0419F058
:10056E008501C0E0ECCF66EF70E080E00E94590894
:10057E00C0E8D2E069917991899199910E944C09D4
:10058E00CB010E94AB070E949808CC16DD0691F7AE
:10059E0060E071E080E00E945908C0E6D2E000E71A
:1005AE0012E069917991899199910E9438080C17FE
:1005BE001D07B9F76CE071E080E00E945908C0E5B4
:1005CE00D2E000E612E069917991899199910E94A9
:1005DE0038080C171D07B9F768E171E080E00E943A
:1005EE005908C0E4D2E000E512E069917991899151
:1005FE0099910E9438080C171D07B9F764E271E053
:10060E0080E00E9459080F2EF0E0AF2EF1E0BF2ED1
:10061E00F02D0F2EF0E88F2EF1E09F2EF02D11C051
:10062E00F80161917191819191918F010E94380829
:10063E00CF5FC430A9F7F0E1AF0EB11C8A149B0452
:10064E0019F08501C0E0ECCF60E371E080E00E941C
:10065E005908F70161917191819191917F010E94E9
:10066E004C09CB010E94F4070E949808EC14FD047B
:10067E0081F7DF91CF911F910F91FF90EF90DF9057
:0C068E00CF90BF90AF909F908F90089588
:10069A002F923F924F925F926F927F928F929F9288
:1006AA00AF92BF92CF92DF92EF92FF920F931F9376
:1006BA00CF93DF9300D000D000D0CDB7DEB708EAE1
:1006CA0012E00F2EF0E2EF2EF2E0FF2EF02D80E086
:1006DA0092E09A838983F80161918F01062E000CBA
:1006EA00770B880B990B0E941007E981FA816193B5
:1006FA00719381939193FA83E983EE15FF0559F774
:10070A000F2EF0E76F2EF2E07F2EF02D0F2EF0E87D
:10071A004F2EF2E05F2EF02D80E992E09A838983D2
:10072A000F2EF0E82F2EF1E03F2EF02D0F2EF0E8DD
:10073A00CF2EF2E0DF2EF02DF30181909190A1905F
:10074A00B1903F015C824B82810180E092E09E83FE
:10075A008D83ED81FE816191719181919191FE83E9
:10076A00ED83F80120813181428153810E948F09F2
:10077A009B01AC01C501B4010E9446094B015C0111
:10078A00005F1F4F8D819E818E159F0511F7EB81AA
:10079A00FC8180829182A282B382F4E04F0E511CC6
:1007AA00C501B4010E944C09CB010E94AB07682F16
:1007BA0070E080E090E00E940E0720E030E04FE712
:1007CA0053E40E948B09E981FA81619371938193C1
:1007DA009193FA83E983F4E02F0E311C6C147D04A3
:1007EA0009F0AACF04E912E01B8221E02983F8016B
:1007FA0061917191819191918F012B81E22FF0E0AA
:10080A00EE0FFF1FEE0FFF1FE057FD4F20813181D2
:10081A00428153810E947A09181614F489818B83C4
:10082A0099819F5F9983943011F7EB81E093B80225
:10083A008E2F26960FB6F894DEBF0FBECDBFDF917E
:10084A00CF911F910F91FF90EF90DF90CF90BF90C3
:10085A00AF909F908F907F906F905F904F903F9056
:04086A002F9008952E
:10086E009091B40291509093B402E0E2F2E020E352
:10087E0032E09081992311F0915090833196E217D6
:10088E00F307B9F78370813079F028F08230B1F038
:10089E008330E1F029C08091B602982F937001F158
:1008AE0081508093B60220C08091B602982F93702B
:1008BE009330B1F08F5F8093B60216C08091B6026E
:1008CE00843070F084508093B6020EC08091B602D0
:1008DE0094EF980F943020F08C5F8093B60204C092
:1008EE000E944B078FEF34C02091B602822F90E00A
:1008FE00FC01E05EFD4F3081332321F00E944B0757
:10090E008FEF26C03091B702FC01E05EFD4F3083C1
:10091E008091B50228131BC088E28093B4023F5F1A
:10092E003093B7020E9479088F709078992324F43F
:10093E000197806F9F6F01968093B5029927FC01F6
:10094E00E05EFD4F80818111EDCF81E001C080E03E
:10095E009091B402911103C00E944B078FEF08953E
:10096E0010C00E945A0958F00E94530940F029F411
:10097E005F3F29F00C94740951110C9462090C9488
:10098E009C090E94160868F39923B1F3552391F33D
:10099E00951B550BBB27AA2762177307840738F0E0
:1009AE009F5F5F4F220F331F441FAA1FA9F335D03D
:1009BE000E2E3AF0E0E832D091505040E695001CF1
:1009CE00CAF72BD0FE2F29D0660F771F881FBB1FAB
:1009DE00261737074807AB07B0E809F0BB0B802D89
:1009EE00BF01FF2793585F4F3AF09E3F510578F0B5
:1009FE000C9474090C9462095F3FE4F3983ED4F3AF
:100A0E00869577956795B795F7959F5FC9F7880F88
:100A1E00911D9695879597F90895E1E0660F771FDA
:100A2E00881FBB1F621773078407BA0720F0621B6B
:0E0A3E00730B840BBA0BEE1F88F7E09508953A
:100A4C00AF92BF92CF92DF92EF92FF920F931F93D0
:100A5C00CF93DF930F2EF0E7CF2EF2E0DF2EF02DA9
:100A6C000F2EF0E8EF2EF1E0FF2EF02D0F2EF0E818
:100A7C00AF2EF2E0BF2EF02D0E9479088F71907886
:100A8C00992324F40197806E9F6F0196BC01990FF6
:100A9C00880B990B0E94100720E030E040E851E4ED
:100AAC000E944509F60161937193819391936F01B3
:100ABC00870100581F4FE7010E9479088F719078C9
:100ACC00992324F40197806E9F6F0196BC01990FB6
:100ADC00880B990B0E94100720E030E040E851E4AD
:100AEC000E944509688379838A839B836096C0172B
:100AFC00D10711F7F4E0EF0EF11CCA14DB0409F076
:100B0C00BBCFDF91CF911F910F91FF90EF90DF90B2
:080B1C00CF90BF90AF90089547
:100B24000FC00E94530938F00E945A0920F09523FF
:100B340011F00C9474090C949C0911240C9462090E
:100B44000E94160870F3959FC1F3950F50E0551F4E
:100B5400629FF001729FBB27F00DB11D639FAA270E
:100B6400F00DB11DAA1F649F6627B00DA11D661F5D
:100B7400829F2227B00DA11D621F739FB00DA11D7E
:100B8400621F839FA00D611D221F749F3327A00D38
:100B9400611D231F849F600D211D822F762F6A2FD4
:100BA40011249F5750409AF0F1F088234AF0EE0F39
:100BB400FF1FBB1F661F771F881F91505040A9F766
:100BC4009E3F510580F00C9474090C9462095F3FB8
:100BD400E4F3983ED4F3869577956795B795F795A2
:100BE400E7959F5FC1F7FE2B880F911D969587951A
:040BF40097F90895D0
:100BF80011C00E94530938F00E945A0920F039F4B4
:100C08009F3F19F426F40C949C090EF4E095E7FB39
:100C18000C947409E92F0E94160858F3BA17620752
:100C280073078407950720F079F4A6F50C946109F9
:100C38000EF4E0950B2EBA2FA02D0B01B9019001EF
:100C48000C01CA01A0011124FF27591B99F0593F33
:100C580050F4503E68F11A16F040A22F232F342F7B
:100C68004427585FF3CF469537952795A795F040C9
:100C78005395C9F77EF41F16BA0B620B730B840BDE
:100C8800BAF09150A1F0FF0FBB1F661F771F881F96
:100C9800C2F70EC0BA0F621F731F841F48F48795EE
:100CA80077956795B795F7959E3F08F0B0CF9395E0
:0E0CB800880F08F09927EE0F979587950895FD
:100CC6000F931F93CF93DF93AC01EC019C01285F38
:100CD6003F4FFC0111922E173F07E1F78091B602B4
:100CE600782F7370869586959091B502092F0370BB
:100CF600692F66956695711104C091E0FA0190839B
:100D060005C0733019F491E0FA019183811104C092
:100D160091E0FA0192832CC0833051F591E0FA01FB
:100D2600938326C0ED919091B602E90FEF70F0E043
:100D3600E05EFD4F9081911118832196A217B307AB
:100D460089F7071720F491E0FA01948305C070171C
:100D560018F491E0FA019583681720F481E0FA010E
:100D660086830CC0861750F481E0FA01878306C09B
:100D7600A0EAB2E024EA32E011E0D4CFDF91CF91CD
:060D86001F910F9108957A
:100D8C000E9404090E944B070E9426050E949309A9
:100D9C007C018C01005F1F4F2FEF81EE94E02150FE
:100DAC0080409040E1F700C000000E9499090E9429
:100DBC0063060E944D030E943704C82F0E94B7009F
:100DCC000E948309CF3F11F40E9437026BE371E05C
:100DDC0080E00E94590861E471E080E00E945908AB
:100DEC00E70189910E949808C017D107D1F769E4EF
:100DFC0071E080E00E94590861E471E080E00E949B
:100E0C0059080E9496090E9498080E948709C4CF2D
:100E1C00E89409C097FB3EF4909580957095619588
:100E2C007F4F8F4F9F4F9923A9F0F92F96E9BB273E
:100E3C009395F695879577956795B795F111F8CFBA
:100E4C00FAF4BB0F11F460FF1BC06F5F7F4F8F4F25
:100E5C009F4F16C0882311F096E911C0772321F01B
:100E6C009EE8872F762F05C0662371F096E8862FB3
:100E7C0070E060E02AF09A95660F771F881FDAF70A
:0A0E8C00880F9695879597F9089551
:100E9600E0E2F2E080E392E01192E817F907E1F769
:100EA60080E090E00E9433090E9479088F70907864
:100EB600992324F40197806F9F6F01968093B60261
:100EC6000E9479088F709078992324F40197806F97
:100ED6009F6F01968093B50283E08093B70298E2F4
:100EE6009093B402E091B602F0E0E05EFD4F80839D
:020EF60008955D
:100EF8000E941E0888F09F5798F0B92F9927B7517C
:100F0800B0F0E1F0660F771F881F991F1AF0BA95A5
:100F1800C9F714C0B13091F00E946109B1E0089599
:100F28000C946109672F782F8827B85F39F0B93F8B
:100F3800CCF3869577956795B395D9F73EF4909558
:0E0F48008095709561957F4F8F4F9F4F089554
:100F560099230CF40F969595879595958795959574
:100F6600879595958795883F2FEF920794F088305F
:100F760091058CF499230CF440969927092E000CC0
:100F8600AA0B825A9E4FAF4FFC018491A7FD808128
:0A0F9600089580E108958FEF08959B
:100FA000990F0008550FAA0BE0E8FEEF161617067A
:100FB000E807F907C0F012161306E407F50798F0E2
:100FC000621B730B840B950B39F40A2661F0232BFB
:100FD000242B252B21F408950A2609F4A140A69577
:080FE0008FEF811D811D0895B2
:100FE80099230CF40F9695958795959587959595E2
:100FF8008795959587959C01285F3F4F203131054E
:1010080078F499230CF440969927092E000CAA0B22
:10101800825B9E4FAF4FFC018491A7FD80810895AC
:0410280080E10895C6
:10102C0057FD9058440F551F59F05F3F71F047958D
:10103C00880F97FB991F61F09F3F79F08795089572
:10104C00121613061406551FF2CF4695F1DF08C091
:10105C00161617061806991FF1CF869571056105AE
:04106C000894089547
:10107000CF92DF92EF92FF92CF93DF936B017C01CF
:10108000C0E0D0E0D701C6010C2E04C0B695A795EC
:10109000979587950A94D2F70E9498082896C032AF
:1010A000D10581F7DF91CF91FF90EF90DF90CF9046
:0210B0000895A1
:1010B200CF92DF92EF92CF936B01E82EFB018491E6
:1010C200E7FC8081882379F0C0E00E949808CF5F16
:1010D200AE2DC6018C0F911DA11DFC018491A7FDAF
:1010E20080818111F2CFCF91EF90DF90CF90089560
:1010F200E0EBF2E020813181428153816DE27FE7B2
:1011020085E99CE40E94D608DC01CB010196A11D71
:10111200B11DE0EBF2E080839183A283B383F1E11E
:0E112200B695A79597958795FA95D1F70895FC
:101130008F3039F481EF0E943D098FE10E943D0913
:1011400008958A3039F481EF0E943D098AE10E94B6
:101150003D090895813F31F40E943D0981EF0E94CD
:0A1160003D0908950E943D0908951D
:10116A00092E0394000C11F4882352F0BB0F40F4AB
:10117A00BF2B11F460FF04C06F5F7F4F8F4F9F4FEB
:02118A000895C6
:10118C008F938FB78F93EF93FF93E0E6F0E080811E
:10119C008F778083FF91EF918F918FBF8F911895EF
:1011AC00DB018F939F930E942809BF91AF91A29F5F
:1011BC00800D911DA39F900DB29F900D1124089549
:1011CC0087E690E09093C5008093C4001092C00015
:0E11DC0088E18093C10086E08093C2000895F0
:1011EA00A29FB001B39FC001A39F700D811D11245E
:0E11FA00911DB29F700D811D1124911D08954D
:101208000E9411090E946E09109260000E946809EC
:0A1218000E947F090E94E608089575
:1012220080E284B917B882E08AB915B818B81BB839
:0812320013B816B819B80895AD
:10123A00EC010E94A4090E94A309CE010E94A509FB
:06124A00CE010E94A10983
:101250000E94F508A59F900DB49F900DA49F800D4E
:06126000911D1124089508
:101266000197A0E0B0E0E0EBF2E080839183A283F7
:04127600B3830895A1
:10127A00E0ECF0E0908195FFFDCF8093C6000895E1
:0E128A005058BB27AA270E94FC050C94B508FB
:0E1298000E947C076894B1110C9462090895BD
:0E12A60000240A941616170618060906089565
:0E12B40000240A941216130614060506089567
:0E12C200E894BB2766277727CB0197F908959C
:0C12D00012BC11BC10BC1FBA80E00895D5
:0C12DC001092610013BE15BE80E0089562
:0C12E80097F99F6780E870E060E00895CF
:0A12F4000E94D00708F48FEF089560
:0812FE0013BE15BE80E0089547
:081306008FE00E943D090895EB
:08130E008AE00E943D090895E8
:081316000E94B7040C94B50815
:08131E000E9492050C94B50831
:0613260080E292E0089550
:06132C008091B502089556
:0613320088EA92E0089534
:061338009FEF80EC089518
:04133E000C9400000B
:041342000E946500A0
:02134600089508
:02134800089506
:02134A00089504
:08134C000B0F030405010D0C59
:02000004008278
:00000001FF
