:10000000803102288731D12F0030FB000030FA0008
:100010000030F9000030F800701C0F281028182854
:100020007408F8077508F93D7608FA3D7708FB3D36
:100030000130F435F50DF60DF70D890B1928013057
:10004000F336F20CF10CF00C890B202873087204C3
:1000500071047004031D2D282E280C287B08F30042
:100060007A08F2007908F1007808F0000800F10041
:100070000F307106031D3D283E284728F1308E3190
:10008000592680311F308E315926803169280A3037
:100090007106031D4C284D285628F1308E31592603
:1000A00080311A308E31592680316928F13071063D
:1000B000031D5B285C286528F1308E31592680317C
:1000C000F1308E3159268031692871088E315926D8
:1000D0008031080020004508F3004408F20043087E
:1000E000F1004208F0004C30F7009530F6007F3008
:1000F000F5002D30F400803104208031013070078C
:100100002000C2000030713DC3000030723DC400C9
:100110000030733DC5004208CA004308CB004408C4
:10012000CC004508CD001130CD36CC0CCB0CCA0C20
:10013000890B94284B08FD004A08FC0008002000A9
:10014000D2015208383E8600870180316A20803112
:100150007C081F39F03E81002000D1015108CE00FB
:100160000230CE35890BB128A0304E07CF0052089F
:100170004F07D00050088600870180316A20803107
:100180007C081F39F03E810001302000CE004E086F
:10019000D10708305102031CCE28CF28AE280130E9
:1001A000CE004E08D20704305202031CD828D928AA
:1001B000A128080022008D1421008D10240095161E
:1001C000F10109308E31C8268031F1010A308E31BB
:1001D000C8268031F1010C308E31C82680310730BD
:1001E000F1000B308E31C8268031F101F10A0C305C
:1001F0008E31C8268031F101F10A0F308E31C826C8
:1002000080310B30F4002630F3005E30890B062974
:10021000F30B0629F40B0629F1010F308E31C826A5
:100220008031F101F10A0C308E31C826803108008E
:100230002000CB01FA1F1D291E292529F909FA09D9
:10024000F90A0319FA0ACB01CB0AFC1F282929292C
:100250003229FB09FC09FB0A0319FC0A0130FD00E5
:100260007D08CB06CC01CD0179087A040319392920
:100270003A296929CA01CA0A46290130F935FA0D15
:10028000890B3E290130FD007D08CA07FA1F492964
:100290004A293D290130CC35CD0D890B4B297A08EF
:1002A0007C02031D552979087B02031C5829592912
:1002B0005E297908FB027A08FC3B4C140130FA36BF
:1002C000F90C890B5F290130CA02031D68296929CD
:1002D0004A294B0803196D296E297329CC09CD09C8
:1002E000CC0A0319CD0A4D08FA004C08F9000800A1
:1002F0002000D700D30153085707CE004E088600D0
:10030000870181010130CE004E08D3070830530227
:10031000031C8B298C297B293F080739D40008301E
:10032000F9000030FA003F08CE00CF014E08FB0074
:100330004F08FC0081311821813179082000D50057
:100340003E080739D1000830F9000030FA003E08B5
:10035000CE00CF014E08FB004F08FC008131182170
:10036000813179082000D2005408031DB829B92929
:10037000BF295708860087018101810ACA290730F1
:100380005406031DC429C529CA29570A86008701B6
:100390008101810A5508031DCE29CF29D629570886
:1003A000023E860087018101810AE2290730550655
:1003B000031DDB29DC29E2295708033E860087015B
:1003C0008101810AD6015608D03E860087010108C6
:1003D0003F073F39D0005008A03E8600013087001B
:1003E00001080319F429F529FD2956085707CE00FD
:1003F0004E08860087018101810A0130CE004E0837
:10040000D60704305602031C062A072AE32954089B
:10041000510203180C2A0D2A142A5708043E86009C
:1004200087018101810A202A510854020318192AE0
:100430001A2A202A5708053E860087018101810A71
:10044000550852020318252A262A2D2A5708063E47
:10045000860087018101810A392A52085502031852
:10046000322A332A392A5708073E8600870181013C
:10047000810A08002000D4015408C83E8600870184
:100480000108803A7F3E031C462A472A4D2A540819
:10049000C83E86008701103081000130CE004E0832
:1004A000D40708305402031C562A572A3C2AD70185
:1004B0005708383E860087010108CE00CF01CE1BC9
:1004C000CF035735203E860087014E08C03F4F08B6
:1004D000C13FD5015508C83E860087010108F300D9
:1004E000F401F31BF4035508CE000230CE35890B1E
:1004F000762AA0304E07CF0057084F07D00050088B
:10050000860087010108F500F601F51BF6038E3120
:10051000E226823173082000D1007408D200043032
:10052000D300520DD20CD10CD30B912A5735203E5B
:10053000860087015108810741315208813D7F3192
:100540000130CE004E08D50708305502031CA92AF9
:10055000AA2A6A2A5708463E86008701FF30F9001A
:100560000030FA005735203E84008501003FCE0060
:10057000013FCF004E0E0F39F0004F0EF039F0045E
:100580004F0E0F39F100F030F11D0030F1048F31C2
:10059000D12782312000D000D101D00ED10EF03011
:1005A000D10550080F39D104F030D0055008FB00B8
:1005B0005108FC0081311821823179088100013015
:1005C0002000CE004E08D70704305702031CE92A4A
:1005D000EA2A582ABC01D601D60A3C08463E8600C3
:1005E00087010108803ACE005608463E8600870102
:1005F0000108803ACE020318FE2AFF2A012B560872
:10060000BC000130CE004E08D60704305602031C51
:100610000A2B0B2BED2A3C0808002000D2000130E9
:10062000BD02D4015408A03E8600013087000108B5
:1006300003191B2B1C2B232B5408A03E86000130D2
:100640008700013081020130D0005008D4074030CB
:100650005402031C2C2B2D2B122BD3010330D00062
:100660005008D205842B3F080739031D382B392B3E
:100670003D2B2000D301D3039A2B0130BF029A2BCC
:1006800007303F05D00007305006031D482B492B8B
:100690004A2B392B0130D0005008BF079A2B083065
:1006A000F9000030FA003F08D000D1015008FB00EB
:1006B0005108FC0081311821833179087A04031D27
:1006C000622B632B642B392B08302000BF029A2B3E
:1006D0000830F9000030FA003F08D000D10150087E
:1006E000FB005108FC008131182183310730790665
:1006F0007A04031D7C2B7D2B7E2B392B08302000A8
:10070000D0005008BF079A2B5208D000D1015108E1
:10071000003A03198C2B9A2B5008003A0319332BFB
:10072000013A0319402B033A03194F2B013A0319DD
:10073000682B9A2B530A031D9E2B9F2BA32B8F31C3
:1007400049278331D62B3F08A03E86000130870021
:1007500001080319AC2BAD2BB02BD301D3039F2B76
:100760003F08A03E860001308700400881003F0816
:100770003E06031DBC2BBD2BD62B2830BD00D3015C
:10078000D30A0130D0005008C00780316A2083317D
:100790007C083F392000BE003E08A03E86000130A4
:1007A00087000108031DD52BD62BC52B20003D0843
:1007B000031DDB2BDC2BE12BD301D3038F31492726
:1007C00083312000530808008E317C2683318E311E
:1007D0006F2683318F314927833180319F208331C8
:1007E0008031DA2083318E31152683312000E200FA
:1007F000E501E6016608DD000230DD35FF3E031D40
:10080000FD2B5D356207DE0065085E07DF005F08CF
:10081000860001308700010803190F2C102C172CBB
:100820006608CE0065088E319E2683311D2C660831
:10083000F00065088E318C26833101302000DD0008
:100840005D08E60708306602031C272C282CFA2BCB
:100850000130DD005D08E50708306502031C312C1E
:10086000322CF92B8E31172683312000E30008301B
:10087000F9000030FA006308DD00DE015D08FB00CE
:100880005E08FC0081311821833179082000CE00F8
:10089000630807398E319E2683318F31A327833138
:1008A00006302000DE001330DD00AD30890B562C01
:1008B000DD0B562CDE0B562C00328E311326833185
:1008C00081317821833182313A2283312000E00066
:1008D000600883310D2383312000E10061088431F9
:1008E000CE2483312000E701E8016808DD000230F2
:1008F000DD35FF3E031D782C5D356207DE0067089D
:100900005E07DF005F0886000130870001080319D9
:100910008A2C8B2C922C6808CE0067088E319E267C
:100920008331982C6808F00067088E318C2683315B
:1009300001302000DD005D08E80708306802031C74
:10094000A22CA32C752C0130DD005D08E7070830D0
:100950006702031CAC2CAD2C742C8E31172683310E
:100960002000E4000830F9000030FA006408DD00DF
:10097000DE015D08FB005E08FC0081311821833137
:1009800079082000CE00640807398E319E26833115
:100990008631132683314D2C803102282000D5006A
:1009A0005508031DD42CD52CD62C122E550A031D08
:1009B000DA2CDB2CDC2CD5015508031DE02CE12CB6
:1009C000F82CD6015608283E860087011030810099
:1009D0000130CE004E08D60704305602031CF12C1D
:1009E000F22CE22C3C08283E8600870181010E2D66
:1009F000D7015708283E8600870181010130CE00CB
:100A00004E08D70704305702031C072D082DF92C78
:100A10003C08283E8600870110308100DA015A0820
:100A2000343E860087015A08283E8400850100086C
:100A3000CE005A08463E840085010008CF004E08CB
:100A40004F02090781000130CE004E08DA0704305A
:100A50005A02031C2C2D2D2D0F2DDC015C08303E7D
:100A600086008701FF30F9000030FA005C08343E50
:100A7000840085010008F300F401F31BF4035C35E6
:100A8000203E84008501003FCE00013FCF004E0E86
:100A90000F39F0004F0EF039F0044F0E0F39F1000E
:100AA000F030F11D0030F1048F31752784312000C2
:100AB000D000D101D00ED10EF030D10550080F3941
:100AC000D104F030D0055008F5005108F6008E3101
:100AD000E22684317408FC007308FB008131182180
:100AE000843179082000D2007A08D3000430D40081
:100AF000530DD30CD20CD40B782D520881005C0816
:100B00002C3E860087015C08303E84008501000889
:100B10008100D8015808CE000230CE35890B8D2DCA
:100B200020304E07CF005C084F07D00050088600E9
:100B3000013087005C08303E840085010008F30026
:100B4000F401F31BF4035808C83E84008501000833
:100B5000F500F601F51BF6038E31E22684317308A9
:100B60002000D1007408D2000430D300520DD20C02
:100B7000D10CD30BB62D510881000130CE004E08A8
:100B8000D80708305802031CC62DC72D8A2D013006
:100B9000CE004E08DC0704305C02031CD02DD12DA2
:100BA0002E2DDB015B082C3E860087015B08383E5A
:100BB0008400850101088002D9015908CE00023065
:100BC000CE35890BE02D20304E07CF005B084F0754
:100BD000D00050088600013087005908D10002304B
:100BE000D135890BF02DA0305107D2005B08520798
:100BF000D300530884008501010880020130CE0033
:100C00004E08D90708305902031C072E082EDD2D87
:100C10000130CE004E08DB0704305B02031C112EAE
:100C2000122ED22D08005430F2008830F3008F319C
:100C3000232786312930F2008830F3008F312327B3
:100C400086312000CA014A08C83E86008701010893
:100C50008031372086310130F80078082000CA073B
:100C600008304A02031C352E362E232E4230F20065
:100C70008830F3008F31232786312930F200883005
:100C8000F3008F31232786312000CB014B08463EED
:100C90008600870101088031372086310130F80055
:100CA00078082000CB0704304B02031C582E592E25
:100CB000462E4930F2008830F3008F3123278631E9
:100CC0002030F2008830F3008F3123278631200056
:100CD000CC014C35203E86008701403FF200413F69
:100CE000F3008E31502686310130F800780820005C
:100CF000CC0704304C02031C7E2E7F2E692E34302C
:100D0000F2008830F3008F31232786312930F2003A
:100D10008830F3008F31232786312000CD014D0824
:100D2000383E860087010108803137208631013046
:100D3000F80078082000CD0704304D02031CA12ED6
:100D4000A22E8F2E3B30F2008830F3008F31232704
:100D500086312930F2008830F3008F312327863125
:100D60002000CE01CF014E08F8000230F835890B83
:100D7000B62EA0307807F9004F087907FA007A08F4
:100D80008600870101088031372086310130F80064
:100D900078082000CF0704304F02031CD02ED12E3C
:100DA000B32E0130F8007808CE0708304E02031C3D
:100DB000DA2EDB2EB22E5130F2008830F3008F3164
:100DC000232786312830F2008830F3008F31232723
:100DD00086312000D0015035203E86008701403FFB
:100DE000F000413FF1008F31D1278631803137202B
:100DF00086310130F80078082000D0070430500216
:100E0000031C032F042FEB2E3E30F2008830F3003A
:100E10008F31232786312930F2008830F3008F315B
:100E2000232786312000D1015108343E86008701F6
:100E300001088031372086310130F8007808200021
:100E4000D10704305102031C262F272F142F4530C1
:100E5000F2008830F3008F31232786312930F200E9
:100E60008830F3008F31232786312000D2015208C9
:100E7000303E8600870101088031372086310130FD
:100E8000F80078082000D20704305202031C492FD2
:100E90004A2F372F3030F2008830F3008F3123276C
:100EA00086312930F2008830F3008F3123278631D4
:100EB0002000D30153082C3E8600870101088031B1
:100EC000372086310130F80078082000D30704303D
:100ED0005302031C6C2F6D2F5A2F3730F2008830CD
:100EE000F3008F31232786312930F2008830F30058
:100EF0008F31232786312000D401D5015408F80012
:100F00000230F835890B812F20307807F900550819
:100F10007907FA007A0886000130870001088031DD
:100F2000372086310130F80078082000D5070430DA
:100F30005502031C9C2F9D2F7E2F0130F80078084E
:100F4000D40708305402031CA62FA72F7D2F503042
:100F5000F2008830F3008F31232786312830F200E9
:100F60008830F3008F31232786312000D601563593
:100F7000203E86008701403FF000413FF1008F3165
:100F8000752786318031372086310130F8007808A6
:100F90002000D60704305602031CCF2FD02FB72FC6
:100FA0000800483084008E308500D0308600003044
:100FB000870008308E313B26873120308400003096
:100FC00085002A308E3135268731A03084000030EC
:100FD000850030308E313526873120308400013055
:100FE000850020308E3135268731A03084000130D5
:100FF000850040308E313526873120008331E42B47
:10100000403432341B341034103410341034103463
:101010001034103410341034103410341B34323483
:101020008034BA34E134F334FA34FD34FE34FF341E
:101030001034103410341034103410341E3445344D
:1010400069346E347434313436345F34743400347B
:10105000753469346E34743438345F347434003425
:10106000443443345F3444344234313400344434FF
:1010700043345F34443457343134003444344334DB
:101080005F344434593431340034443443345F34AD
:1010900044345A343134003402344034013400349E
:0E10A000443453343134003459343034003485
:101C2600C8300800A030080020003E080800163022
:101C3600210097000800F0007008240091000800B9
:101C460071082000EA007008E90008007108200009
:101C5600EE007008ED00080071082000EC00700826
:101C6600EB000800640080010131890B362E003438
:101C7600FE0012001E00FE0B3C2E003470302100C8
:101C86009900980122009601080037343F34073442
:101C96000834093401343934383472088031372035
:101CA6008E317308803137208E310800F000200015
:101CB600111E5E2E5F2E5A2E700823009A00080011
:101CC600403024009400023095000130920021003B
:101CD6000D1224009512080022008C118C1321008D
:101CE6000C148C140C158C110C168C130D148D15EC
:101CF60008008E3163268E318E31B0268E318E31BC
:101D060041268E318E311A268E318F3101278E3142
:101D16000800F3000130F100730A922EF135890BA9
:101D2600912E7108FF3AF2007008C03E86008701C6
:101D36007208810508002000D1000130CF00510A49
:101D4600A52ECF35890BA42E4F08D0004E08C03ED5
:101D56008600870150088104080022008C018D014D
:101D6600373021008C00EF308D00C83023008D0005
:101D76001F308C0024008D018C0121009517C03086
:101D860022009D0001309E000800F20022008D1006
:101D960072088E311E268E312000911DD32ED42E30
:101DA600CF2E911171088E311E268E312000911D85
:101DB600DD2EDE2ED92E911122008D140800F7019A
:101DC600F801731CE72EE82EEC2E7508F707760847
:101DD600F83D0130F535F60D890BED2E0130F43660
:101DE600F30C890BF22E73087404031DFB2EFC2ED4
:101DF600E42E7808F4007708F30008000830230082
:101E06009F0090309D0024309E0022309B009C0154
:101E16000030F0000030F1008E3129268F3100307D
:101E2600F0000030F1008E312F268F310030F000A7
:101E36000030F1008E3123268F312000C1010800C9
:101E4600F701382F7308F5007208F4007708740755
:101E5600840075080318750A85000008803137204C
:101E66008F310130F4007408F7077308F500720823
:101E7600F40077087407840075080318750A85004E
:101E86001200031D472F482F252F08002000CF01E1
:101E96004F08A03E86000130870081010130CE0048
:101EA6004E08CF0740304F02031C5A2F5B2F4B2F93
:101EB60080316A208F317C083F392000BF00803195
:101EC6006A208F317C083F392000BE000330C000F5
:101ED6002830BD003F08A03E86000130870040083C
:101EE600810008007108803AF2007F307202031DFB
:101EF6007E2FF83070020318812F822F842F103026
:101F0600A22F7108803AF20080307202031D8D2FD5
:101F160008307002031C902F912F922F822FF11FF1
:101F2600952F962F9A2F1030F0070030F13D70084C
:101F3600003E840088300318013E85000008080032
:101F4600F7017708C03E860087010108F400F50115
:101F5600F6010310F50D74080139F3007308F50452
:101F66000310F40C0130F3007308F607083076020C
:101F7600031CBE2FBF2FAC2F7508F1007708013E5A
:101F86008E31C8268F310130F3007308F707083009
:101F96007702031CCF2FD02FA42F08007108803A98
:101FA600F2007F307202031DDA2FF8307002031838
:101FB600DD2FDE2FE02F1030FF2F7108803AF20060
:101FC60080307202031DE92F08307002031CEC2FCB
:101FD600ED2FEF2FFF30FF2FF11FF22FF32FF72FEB
:101FE6001030F0070030F13D7008103E8400883054
:0A1FF6000318013E850000080800F2
:020000040001F9
:08000000FF3FFF3FFF3FFF3F00
:04000E00E43FFF3E8E
:00000001FF
