:100000000C943D000C9415060C9415060C941506E2
:100010000C9415060C9415060C947D050C9415068D
:100020000C9415060C9415060C9415060C941506E4
:100030000C9415060C9415060C9415060C941506D4
:100040000C9415060C9415060C9415060C941506C4
:100050000C9415060C9415060C9415060C941506B4
:100060000C9415060C9415060100017080017001B6
:1000700078000C38017801C9800011241FBECFEF31
:10008000D8E0DEBFCDBFE8E6F0E040E017C0B591B4
:10009000A59135912591059107FD0CC0959185910C
:1000A000EF01F92FE82F05900D92A217B307D9F7AA
:1000B000FE0104C01D92A217B307E1F7E937F40768
:0E00C00031F70E94CA040C94D405F894FFCFC7
:1000CE0040321B10101010101010101010101B3298
:1000DE0080BAE1F3FAFDFEFF1010101010101E454D
:1000EE002F923F924F925F926F927F928F929F923A
:1000FE00AF92BF92CF92DF92EF92FF920F931F9328
:10010E00CF93DF93CDB7DEB762970FB6F894DEBF0D
:10011E000FBECDBF882309F48DC18F3F61F480E1FE
:10012E0089838A838B838C838091C801FE01E80FBB
:10013E00F11D118270C119821A821B821C8280915C
:10014E00C801FE01E80FF11D80E1818364C1819138
:10015E00D9019D919D01891BDB018D93BD01E41792
:10016E00F507A9F7E4EAF1E01082118212821382F8
:10017E00E8E8F1E0FE83ED8380E891E098878F83D5
:10018E00A8EAB1E0BC87AB87E0E5F1E0FE87ED873A
:10019E000F2EF0E62F2EF1E03F2EF02D61015F01C4
:1001AE003D01388A2F86D401FD904D01ED81FE81EF
:1001BE0081919191FE83ED830E942D05682F6295AA
:1001CE006F701F2D1603B0011124772314F4615F95
:1001DE007F4F759567957595679575956795759527
:1001EE006795AF81B8856D937D93B887AF83F30123
:1001FE0061933F010F2EFCEBEF2EF1E0FF2EF02D61
:10020E000F2EF4EA4F2EF1E05F2EF02D88EA91E0EA
:10021E009A8789879201D601BA8AA98AF7014191F4
:10022E007F014603C001479F900D112499230CF4C2
:10023E000F9695958795959587959595879595950F
:10024E008795E989FA898083A9013C90132D1603BD
:10025E00C001179F900D112499230CF40F969595BC
:10026E008795959587959595879595958795FA0197
:10027E009081890F80832F5F3F4F89899A890496D9
:10028E009A8B898B149691E0283A390739F6AFEF9D
:10029E00AA1ABA0ABFEFCB1ADB0AE0EB8E16E1E020
:1002AE009E0609F080CF2F8438880F2EF0E98F2E0E
:1002BE00F1E09F2EF02D0F2EF8E76F2EF1E07F2E3E
:1002CE00F02D0F2EF0EACF2EF1E0DF2EF02D0F2EB7
:1002DE00F0E0EF2EF1E0FF2EF02D5701DE82CD8201
:1002EE0000EA11E0F886EF82D201FD902D01F401B3
:1002FE00819191914F010E942D05482F42954F708B
:10030E002F2D2403A0011124552314F4415F5F4FB8
:10031E0055954795559547955595479555954795B7
:10032E00D3014D935D933D01ED81FE814193FE839B
:10033E00ED83A8E9B1E0F5012D912403C001259FBD
:10034E00900D112499230CF40F96959587959595FC
:10035E0087959595879595958795808334960A17F9
:10036E001B0751F7FFEFAF1ABF0A89859A8548160A
:10037E00590609F0B9CFEF80F88420EB31E04CEA52
:10038E0051E00B851C85AD84BE84D8019D918D01F5
:10039E00F9018081891BD9018D939D01B101605FA7
:1003AE007F4FD501F10180819C91891B808334960A
:1003BE001496E617F707B9F7BFEF2B1A3B0AEFEFC4
:1003CE00AE1ABE0A0417150701F764EB71E040E29E
:1003DE0051E004EA11E0D6019D916D01FB0180818F
:1003EE00891BDB018D93BD019A01205E3F4FD70122
:1003FE00FA0180819C91891B808334961496E217B2
:10040E00F307B9F74F5F5F4FBFEFEB1AFB0AC0164A
:10041E00D10609F70FC0E8EBF1E09E012F5F3F4FC9
:10042E000F2EFCEA8F2EF1E09F2EF02D4CEB51E0BB
:10043E00B4018DCE62960FB6F894DEBF0FBECDBF5F
:10044E00DF91CF911F910F91FF90EF90DF90CF90A2
:10045E00BF90AF909F908F907F906F905F904F90D6
:06046E003F902F9008955D
:100474004F925F926F927F928F929F92AF92BF92B0
:10048400CF92DF92EF92FF920F931F93CF93DF935C
:100494000F2EF8E96F2EF1E07F2EF02DC0EAD1E0A7
:1004A400F30190E1808118160CF490833196EC17D7
:1004B400FD07C1F70F2EF4EBAF2EF1E0BF2EF02DA8
:1004C4000F2EF0E9EF2EF1E0FF2EF02D0F2EFCEBB6
:1004D4004F2EF1E05F2EF02D00E211E00F2EF8EB2D
:1004E4008F2EF1E09F2EF02D6201F50121915F0125
:1004F400022E000C330BA701D801F30181919C91CA
:100504009802C001112499230CF40F9695958795B0
:10051400959587959595879595958795280F391F76
:100524001496CE17DF0751F7FA0131832083F2E0E6
:10053400EF0EF11CC90199230CF40F96959587953C
:100544009595879595958795959587950E94160518
:1005540082958F70F60181936F010F5F1F4FA8146E
:10056400B90419F60F2EF0EBAF2EF1E0BF2EF02DEB
:100574000F2EF8E8EF2EF1E0FF2EF02D0F2EF8EB02
:10058400CF2EF1E0DF2EF02D00E611E00F2EF4EB7C
:100594008F2EF1E09F2EF02DC0ECD1E0F5012191DA
:1005A4005F01022E000C330BA701D801F2018191E7
:1005B4009C919802C001112499230CF40F969595EF
:1005C4008795959587959595879595958795280F02
:1005D400391F1496EC17FD0751F7FA013183208374
:1005E400F2E0EF0EF11CC90199230CF40F969595D6
:1005F40087959595879595958795959587950E9467
:10060400160582958F70F60181936F010F5F1F4F5E
:10061400A814B90419F6A9EBB1E080E091E03D918A
:10062400E82FF0E0E854FE4F208123170CF4892FC3
:100634009F5F9430A1F78093C801DF91CF911F9100
:100644000F91FF90EF90DF90CF90BF90AF909F906D
:0C0654008F907F906F905F904F90089502
:100660009091C40191509093C401E0E4F1E020E541
:1006700031E09081992311F0915090833196E217E7
:10068000F307B9F78370813079F028F08230B1F048
:100690008330E1F029C08091C601982F937001F159
:1006A00081508093C60120C08091C601982F93701D
:1006B0009330B1F08F5F8093C60116C08091C60160
:1006C000843070F084508093C6010EC08091C601C2
:1006D00094EF980F943020F08C5F8093C60104C093
:1006E0000E9499048FEF37C08091C601E82FF0E097
:1006F000E05CFE4F9081992321F00E9499048FEFD6
:100700002AC09091C50189131DC088E28093C4015D
:100710008091C7018F5F8093C7010E94F7048F709B
:100720009078992324F40197806F9F6F01968093AE
:10073000C5019927FC01E05CFE4F80818111EDCF5E
:1007400081E001C080E0E091C601F0E0E05CFE4F96
:100750009091C70190839091C401911103C00E94B0
:0607600099048FEF0895DB
:100766008F929F92AF92BF92CF92DF92EF92FF92BB
:100776000F931F93CF93DF930F2EF4EBCF2EF1E061
:10078600DF2EF02D0F2EF0E2EF2EF1E0FF2EF02DF2
:100796000F2EF8EBAF2EF1E0BF2EF02D0F2EFFE05F
:1007A6008F2E912CF02D0E94F704B4010E9455055E
:1007B6008850F60181936F018701005E1F4FE701A4
:1007C6000E94F704B4010E94550588508883249638
:1007D600C017D107A9F7FFEFEF1AFF0ACA14DB0407
:1007E60011F70F2EF0EBCF2EF1E0DF2EF02D0F2EAE
:1007F600F0E6EF2EF1E0FF2EF02D0F2EF4EBAF2EEC
:10080600F1E0BF2EF02D0F2EFFE08F2E912CF02D54
:100816000E94F704B4010E9455058850F6018193A1
:100826006F018701005F1F4FE7010E94F704B401C3
:100836000E945505885088832496C017D107A9F7CA
:10084600FFEFEF1AFF0ACA14DB0411F7DF91CF910D
:100856001F910F91FF90EF90DF90CF90BF90AF90D8
:060866009F908F900895A1
:10086C000F931F93CF93DF93AC01EC019C01285F96
:10087C003F4FFC0111922E173F07E1F78091C60103
:10088C00782F7370869586959091C501092F03700A
:10089C00692F66956695711104C091E0FA019083F9
:1008AC0005C0733019F491E0FA019183811104C0F1
:1008BC0091E0FA0192832CC0833051F591E0FA015A
:1008CC00938326C0ED919091C601E90FEF70F0E093
:1008DC00E05CFE4F9081911118832196A217B3070B
:1008EC0089F7071720F491E0FA01948305C070177B
:1008FC0018F491E0FA019583681720F481E0FA016D
:10090C0086830CC0861750F481E0FA01878306C0F9
:10091C00A0E7B1E024E731E011E0D4CFDF91CF9133
:06092C001F910F910895D8
:10093200E0E4F1E080E591E01192E817F907E1F7D0
:1009420080E090E00E94EA050E94F7048F709078A0
:10095200992324F40197806F9F6F01968093C601BB
:100962000E94F7048F709078992324F40197806F86
:100972009F6F01968093C50183E08093C70198E23F
:100982009093C401E091C601F0E0E05CFE4F8083E9
:020992000895C6
:100994000E94BB050E9499040E94B3030E940C06A6
:1009A400EC018C01005F1F4F89910E944105C01723
:1009B400D107D1F70E940F060E9441052FEF89E667
:1009C40098E1215080409040E1F700C000000E946F
:1009D40012060E9436040E943A020E9430030E94CA
:0A09E400770080E30E944105E9CF8F
:1009EE00E0ECF1E020813181428153816DE27FE7BD
:1009FE0085E99CE40E948D05DC01CB010196A11DC9
:100A0E00B11DE0ECF1E080839183A283B383F1E129
:0E0A1E00B695A79597958795FA95D1F7089507
:100A2C008830910584F4883F2FEF920774F0992752
:100A3C00092E000CAA0B82529F4FAF4FFC018491E0
:0E0A4C00A7FD8081089580E108958FEF089541
:100A5A009C01285F3F4F2031310560F49927092E08
:100A6A00000CAA0B82539F4FAF4FFC018491A7FD44
:080A7A008081089580E10895D8
:100A82008A3039F48CE00E94F4058AE10E94F40570
:100A920008958C3031F40E94F4058CE10E94F40533
:080AA20008950E94F405089577
:100AAA0097FB072E16F4009407D077FD09D00E9411
:100ABA00690507FC05D03EF4909581959F4F0895EE
:080ACA00709561957F4F0895BE
:100AD200AA1BBB1B51E107C0AA1FBB1FA617B70762
:100AE20010F0A61BB70B881F991F5A95A9F780957E
:080AF2009095BC01CD010895AF
:100AFA008F938FB78F93EF93FF93E0E6F0E08081B7
:100B0A008F778083FF91EF918F918FBF8F91189587
:100B1A00DB018F939F930E94DF05BF91AF91A29F44
:100B2A00800D911DA39F900DB29F900D11240895E1
:100B3A0082E090E09093C5008093C4001092C000B8
:0E0B4A0088E18093C10086E08093C200089588
:100B5800A29FB001B39FC001A39F700D811D1124F6
:0E0B6800911DB29F700D811D1124911D0895E5
:100B76000E94C8050E940206109260000E94FC05B1
:0A0B86000E9408060E949D050895D4
:100B900080E284B917B882E08AB915B818B81BB8D2
:080BA00013B816B819B8089546
:100BA800EC010E941A060E941906CE010E941B063B
:060BB800CE010E941706A9
:100BBE000E94AC05A59F900DB49F900DA49F800D33
:060BCE00911D11240895A1
:100BD4000197A0E0B0E0E0ECF1E080839183A28390
:040BE400B38308953A
:100BE800E0ECF0E0908195FFFDCF8093C60008957A
:0C0BF80012BC11BC10BC1FBA80E00895B4
:0C0C04001092610013BE15BE80E0089540
:080C100013BE15BE80E008953B
:060C180080E491E0089564
:060C1E008091C50108955C
:060C240088E991E008954B
:040C2A000C94000026
:040C2E000E946500BB
:020C3200089523
:020C3400089521
:020C360008951F
:080C38000B0F030405010D0C74
:02000004008278
:0300000040DF07D7
:00000001FF
