:100000000C9434000C94BF000C94BF000C94BF00FF
:100010000C94BF000C94BF000C945E000C94BF00C5
:100020000C94BF000C94BF000C94BF000C94BF0054
:100030000C94BF000C94BF000C94BF000C94BF0044
:100040000C94BF000C94BF000C94BF000C94BF0034
:100050000C94BF000C94BF000C94BF000C94BF0024
:100060000C94BF000C94BF0011241FBECFEFD8E04A
:10007000DEBFCDBFE8E6F0E040E017C0B591A59146
:1000800035912591059107FD0CC095918591EF0162
:10009000F92FE82F05900D92A217B307D9F7FE01AB
:1000A00004C01D92A217B307E1F7E836F40731F751
:0C00B0000E947D000C94A400F894FFCF87
:1000BC008F938FB78F93EF93FF93E0E6F0E08081FF
:1000CC008F778083FF91EF918F918FBF8F911895D0
:1000DC0082E090E09093C5008093C4001092C00021
:0E00EC0088E18093C10086E08093C2000895F1
:1000FA000E948B002FEF84E39CE0215080409040C7
:0C010A00E1F700C000002D9A2D98F4CF02
:100116000E9498000E94B500109260000E94AF00F5
:0A0126000E94BB000E946E000895C5
:1001300080E284B917B882E08AB915B818B81BB83C
:0801400013B816B819B80895B0
:10014800EC010E94C4000E94C300CE010E94C500B9
:06015800CE010E94C1006F
:0C015E0012BC11BC10BC1FBA80E0089558
:0C016A001092610013BE15BE80E00895E5
:0801760013BE15BE80E00895E0
:04017E000C940000DD
:040182000E945C007B
:020186000895DA
:020188000895D8
:02018A000895D6
:02000004008278
:0300000040DF07D7
:00000001FF
