:10000000803102288731BC2F71082200EB00700874
:10001000EA0008002000A5012508A03E860087010F
:1000200081010130A4002408A50740302502031CEB
:100030001A281B280C288031BE2080317C083F39CB
:100040002000E5008031BE2080317C083F3920004F
:10005000E400E701E70A6508A03E8600870167081B
:1000600081000800F7002300951837283828332826
:100070007708F500F601750891007608920074087B
:1000800093003F30F50075089505200003108B1F85
:100090004A284B284C2803148B1323001515553080
:1000A0009600AA309600951415112000031C5928BB
:1000B0005A285B288B170800F70177083C3E86001A
:1000C000013087000108F400F501F6010310F50D79
:1000D00074080139F3007308F5040310F40C0130BF
:1000E000F3007308F60708307602031C7828792895
:1000F00066287508F1007708013E8F31A527803109
:100100000130F3007308F70708307702031C8928D1
:100110008A285D2808000030FB000030FA0000301B
:10012000F9000030F800701C962897289F28740862
:10013000F8077508F93D7608FA3D7708FB3D013070
:10014000F435F50DF60DF70D890BA0280130F336C7
:10015000F20CF10CF00C890BA728730872047104DF
:100160007004031DB428B52893287B08F3007A088F
:10017000F2007908F1007808F000080020006C080F
:10018000F3006B08F2006A08F1006908F0004C30D7
:10019000F7009530F6007F30F5002D30F400803107
:1001A0008B208031013070072000E9000030713D64
:1001B000EA000030723DEB000030733DEC0069084E
:1001C000A0006A08A1006B08A2006C08A30011300F
:1001D000A336A20CA10CA00C890BE8282108FD0075
:1001E0002008FC00080022008D1421008D1024003E
:1001F0009516F10109308F31A5278031F1010A30C0
:100200008F31A5278031F1010C308F31A527803146
:100210000730F1000B308F31A5278031F101F10A51
:100220000C308F31A5278031F101F10A0F308F3169
:10023000A52780310B30F4002630F3005E30890BA7
:100240001F29F30B1F29F40B1F29F1010F308F31E8
:10025000A5278031F101F10A0C308F31A5278031BB
:1002600008002000A501A11F362937293E29A00931
:10027000A109A00A0319A10AA501A50AA31F4129E2
:1002800042294B29A209A309A20A0319A30A013092
:10029000FD007D08A506A601A70120082104031979
:1002A000522953298229A401A40A5F290130A035CB
:1002B000A10D890B57290130FD007D08A407A11F5E
:1002C0006229632956290130A635A70D890B6429B7
:1002D00021082302031D6E2920082202031C712914
:1002E000722977292008A2022108A33B2614013095
:1002F000A136A00C890B78290130A402031D8129A5
:100300008229632925080319862987298C29A609AA
:10031000A709A60A0319A70A2708A1002608A00012
:1003200008002000A800AA012A08A03E8600870134
:10033000010803199C299D29A3292A08A03E8600AB
:100340008701013081020130A6002608AA0740304B
:100350002A02031CAC29AD299429A9010330A60067
:100360002608A805EF2965080739031DB829B9290A
:10037000BC29A901A903052A0130E502052A073095
:100380006505A60007302606031DC729C829C92907
:10039000B9290130A6002608E507052A6508A60048
:1003A0000330A636890BD1292608031DD829D9295F
:1003B000DA29B9290830E502052A6508A6000330C4
:1003C000A636890BE02907302606031DE829E9290E
:1003D000EA29B9290830A6002608E507052A2808D1
:1003E000A600A7012708003A0319F729052A2608BD
:1003F000003A0319B329013A0319BF29033A031933
:10040000CE29013A0319DD29052A290A031D092AE3
:100410000A2A0E2A80310A2081313C2A6508A03E32
:100420008600870101080319162A172A1A2AA9012A
:10043000A9030A2A65086406031D1F2A202A362AF2
:10044000A901A90A0130A6002608E7078031BE20CD
:1004500081317C081F392000E4006408A03E86003A
:1004600087010108031D352A362A262A6508A03E81
:100470008600870167088100200029080800F40031
:10048000F20172087407F00070088600870181018C
:100490000130F0007008F20710307202031C512A7C
:1004A000522A412A200065080739031D582A592A73
:1004B0006A2A7408860087018101810A740A86000D
:1004C00087018101810A7408023E8600870181014B
:1004D000810A852A07306505F00007307006031D84
:1004E000722A732A852A7408043E860087018101D6
:1004F000810A7408053E860087018101810A74081B
:10050000063E860087018101810A6508F0000330FC
:10051000F036890B882A7008031D8F2A902AA22A98
:100520007408063E860087018101810A7408073E2F
:10053000860087018101810A740886008701810194
:10054000810AC02A6508F0000330F036890BA52A1D
:1005500007307006031DAD2AAE2AC02A7408023E79
:10056000860087018101810A7408033E86008701A5
:100570008101810A7408043E860087018101810A95
:10058000F3017308603E86000130870001086507AB
:100590003F39F10071086406031DCF2AD02AD92AF9
:1005A00073087407F0007008083E86008701810117
:1005B000810A7108A03E8600870101080319E12A1B
:1005C000E22AEA2A73087407F0007008860087019F
:1005D0008101810A0130F0007008F30708307302CE
:1005E000031CF32AF42AC12A08008E31FD26823129
:1005F0008E31D326823180310A2082318031F3203E
:1006000082318E31652682312000CD00D001D101AA
:100610005108CA000230CA35FF3E031D0B2B4A3574
:100620004D07CB0050084B07CC004C0886008701D3
:10063000010803191C2B1D2B242B5108F000500816
:100640008F313E2782312A2B5108F00050088F311C
:100650005027823101302000CA004A08D1070830F3
:100660005102031C342B352B082B0130CA004A08D9
:10067000D00708305002031C3E2B3F2B072B8E3136
:10068000672682312000CE004E08CA000330CA36E9
:10069000890B472B4A08F0004E0803398F313E275B
:1006A000823180315C20823102302000CB00043066
:1006B000CA00BA30890B5A2BCA0B5A2BCB0B5A2BB8
:1006C00000008E316326823182313F2282318331B4
:1006D000C22382318131912182318431D12482310E
:1006E0002000D201D3015308CA000230CA35FF3EB0
:1006F000031D762B4A354D07CB0052084B07CC0023
:100700004C088600870101080319872B882B8F2B43
:100710005308F00052088F313E278231952B530841
:10072000F00052088F315027823101302000CA007A
:100730004A08D30708305302031C9F2BA02B732BAE
:100740000130CA004A08D20708305202031CA92B04
:10075000AA2B722B8E31672682312000CF004F08E2
:10076000CA000330CA36890BB22B4A08F0004F0882
:1007700003398F313E27823180315C208231542B06
:10078000803102282000AA012A08E03E8600870165
:1007900001080319CC2BCD2BD32B2A08E03E860071
:1007A0008701FF3081000130A8002808AA07103017
:1007B0002A02031CDC2BDD2BC42BB0013008523E77
:1007C00086000130870030088E3186268331810013
:1007D0002000AB012B08E03E860087010108A8003D
:1007E000A9012808AE002908AF003008F4002B0842
:1007F0008E31E0268331F700F801F71BF803200063
:100800002F08FA002E08F9008F31BF2783317808AE
:100810002000AF007708AE00FF30A0000030A1003C
:100820002F08A3002E08A20081313121833120003E
:100830002108AF002008AE002E08A8003008523E64
:10084000860001308700280881070130A8002808A9
:10085000AB0710302B02031C2E2C2F2CEA2B300858
:10086000593E8600013087003008523E8400013036
:10087000850000088F311D27833181000130200061
:10088000A8002808B00707303002031C482C492C68
:10089000DE2BB10131085C3E8600870131088E31C4
:1008A0008D26833181002000AC012C08593E860042
:1008B000013087000108A800A9012808AE00290816
:1008C000AF003108F4002C088E31C6268331F700C2
:1008D000F801F71BF80320002F08FA002E08F90092
:1008E0008F31BF27833178082000AF007708AE0032
:1008F000FF30A0000030A1002F08A3002E08A200A6
:1009000081313121833120002108AF002008AE0061
:100910002E08A80031085C3E860087012808810760
:100920000130A8002808AC0707302C02031C992CC2
:100930009A2C552C3108603E8600870131085C3EB8
:100940008400850100088F311D278331810001302B
:100950002000A8002808B10704303102031CB12C84
:10096000B22C4A2CE601AD01AD0A6608603E860055
:1009700087012D08603E84008501000801020318EC
:10098000C22CC32CC52C2D08E6000130A800280875
:10099000AD0704302D02031CCE2CCF2CB52C6608DD
:1009A00008002000B9003908031DD72CD82CD92CF9
:1009B000BB2F390A031DDD2CDE2CDF2CB9013908D1
:1009C000031DE32CE42CFB2CBA013A08353E8600CB
:1009D0008701FF3081000130A8002808BA070430E1
:1009E0003A02031CF42CF52CE52C6608353E8600F3
:1009F00087018101112DBB013B08353E860087012F
:100A000081010130A8002808BB0704303B02031C09
:100A10000A2D0B2DFC2C6608353E86008701FF3021
:100A20008100BF013F084B3E8600013087008101F5
:100A30003F08443E8600013087008101BC013F0829
:100A4000A800A9013C08AA00AB012A08F7002B085E
:100A5000F8000730F9000030FA008F31BF278431E9
:100A600000302000AC002130AD0077082C07AE002C
:100A700078082D3DAF0028082E07860029082F3D55
:100A8000870081010130A8002808BC0710303C0213
:100A9000031C4B2D4C2D1F2D0130A8002808BF072B
:100AA00007303F02031C552D562D122DC40144085A
:100AB000583E860087014408603E84008501000896
:100AC000A800A9014408353E840085012908AB002F
:100AD00000082802AA00031CAB032B0DAB0CAA0CC8
:100AE0002A0881004408543E860087018101BD0127
:100AF0003D08A8000230A835890B7B2D203028073F
:100B0000A90044082907AA002A08860001308700A6
:100B100081010130A8002808BD0707303D02031CF1
:100B2000922D932D782D0130A8002808C407043099
:100B30004402031C9C2D9D2D572DC50145085C3E8C
:100B40008600870101088F310D2784312000A8001D
:100B5000A9012808C8002908C9004508583E860090
:100B600087010108F700F801F71BF8034908FA00AC
:100B70004808F9008F31BF27843178082000C90068
:100B80007708C800FF30A0000030A1004908A3008A
:100B90004808A20081313121843120002108C90098
:100BA0002008C8004908A9004808A800290DA90C78
:100BB000A80C2808AA004508543E860087012A0888
:100BC0008107C2017F30A0000030A1004508F40079
:100BD00042088E31C6268431F700F801F71BF8036E
:100BE00020004908FA004808F9008F31BF278431F6
:100BF00078082000A3007708A200813131218431D8
:100C000020002008A8002108A900290DA90CA80C83
:100C10002808AA0042084B3E8600013087002A08B7
:100C200081077F30A0000030A1004208593E8600B5
:100C3000013087000108A800A9012808F700290849
:100C4000F8004908FA004808F9008F31BF278431BD
:100C500078082000A3007708A20081313121843177
:100C600020002008AA002108AB002B0DAB0CAA0C19
:100C70002A08AC004208AD000230AD35890B3D2E8C
:100C800020302D07AE0045082E07AF002F08860044
:100C9000013087002C0881070130A8002808C2070E
:100CA00007304202031C552E562EE22D0130A800BB
:100CB0002808C50704304502031C5F2E602E9E2DB8
:100CC000C30107304302031C662E672E682E0C2FCB
:100CD0004308523E86000130870001088F310D27FE
:100CE00084312000A800A9012808C8002908C900EB
:100CF00043084B3E8600013087000108F700F801E9
:100D0000F71BF8034908FA004808F9008F31BF279C
:100D1000843178082000C9007708C800FF30A0009F
:100D20000030A1004908A3004808A2008131312108
:100D3000843120002108C9002008C8004908A90002
:100D40004808A800290DA90CA80C2808AA004308E7
:100D5000443E8600013087002A088107BE0110301A
:100D60003E02031CB42EB52EB62E072F7F30A000F6
:100D70000030A1003E08E03E860087010108A8007F
:100D8000A9012808F7002908F8004908FA004808CE
:100D9000F9008F31BF27843178082000A30077083D
:100DA000A20081313121843120002008AA002108CD
:100DB000AB002B0DAB0CAA0C2A08AC004308AD000D
:100DC000AE013E08AF00B0012F08F7003008F80070
:100DD0000730F9000030FA008F31BF27843100302E
:100DE0002000B1002130B20077083107B300780845
:100DF000323DB4002D08330786002E08343D8700AD
:100E00002C0881070130A8002808BE07AF2E01304A
:100E1000A8002808C307612EC60104304602031C3F
:100E2000122F132F142F5A2F4608543E8600870185
:100E300046088E318D2684312000A8000108280242
:100E4000F80046088E31A52684312000C001073005
:100E50004002031C2C2F2D2F2E2F552F4608F80053
:100E60004008A8000230A835890B332F203028070E
:100E7000A90046082907AA002A0886000130870031
:100E80004608F40040088E31C62684312000AB00AD
:100E900001082B02F90040088E31EE268431013022
:100EA0002000A8002808C007272F0130A800280824
:100EB000C6070D2FC70107304702031C602F612FA3
:100EC000622FBB2F4708443E860001308700470849
:100ED0008E31862684312000A80001082802F800FF
:100EE00047088E319C2684312000C1011030410218
:100EF000031C7B2F7C2F7D2FB62F4708A0004708AF
:100F0000A800A9014108AA00AB012A08F7002B0894
:100F1000F8000730F9000030FA008F31BF27843124
:100F200000302000AC002130AD0077082C07AE0067
:100F300078082D3DAF0028082E07860029082F3D90
:100F400087004708F40041088E31E02684312000F4
:100F5000B00001083002A10041088F312D278431F3
:100F600001302000A8002808C107762F0130A80012
:100F70002808C7075B2F0800943084008E30850056
:100F800022001200E0001200E1001200E200120054
:100F9000E3001200E4001200E5001200E600120077
:100FA000E70000308400213085007030FE00003002
:100FB000FF008E31BA26873154308400003085001E
:100FC0001930FE000030FF008E31BA268731A03084
:100FD0008400003085005030FE000030FF008E316C
:100FE000BA26873120308400013085004030FE0071
:100FF0000030FF008E31BA26873120008231F52A79
:10100000403432341B340C3405340234013400349F
:10101000003400340134023405340C341B343234CF
:101020008034BA34E134F334FA34FD34FE34FF341E
:10103000003400340134023405340C341E34453499
:08104000023440340134003495
:101CC600E0300800A0300800200064080800163044
:101CD600210097000800F000700824009100080019
:101CE60071082200E9007008E80008007108200069
:101CF600EE007008ED000800703021009900980190
:101D0600220096010800F4007408703E8F316327A4
:101D16008E310800F4007408933E8F3163278E31AC
:101D2600080037343F340734083409340134393471
:101D36003834F9007808F4007908703E8031322092
:101D46008E310800F9007808F4007908933E803156
:101D560032208E3108004030240094000230950075
:101D66000130920021000D12240095120800640033
:101D7600800101310130FE020030FF3B7F087E0406
:101D8600031DBB2E0034F5000730F00075088F31B7
:101D960078278E317407773E8F3163278E3108009E
:101DA60022008C118C1321000C148C140C158C1130
:101DB6000C168C130D148D150800F6007608F50028
:101DC6000330F535FF3E031DE42E753574078F315C
:101DD60063278E310800FA007908F4000730F00016
:101DE6007A088F3178278E317807773E8031322016
:101DF6008E3108008E31AE268E318F318D278E3191
:101E06008E317F268E318E316A268E318F31DE27D6
:101E16008E310800F1007108F0000430F036890BAD
:101E2600112F7008003E840088300318013E85009B
:101E360000080800F1007108F0000430F036890B44
:101E4600212F7008103E840088300318013E85005B
:101E5600000808002000A2002108F4002208FD0066
:101E66000330FD35FF3E031D342F7D3520078031BD
:101E760032208F310800F3000130F100730A442F3D
:101E8600F135890B432F7108F20070083C3E86003D
:101E960001308700720881040800F3000130F10068
:101EA600730A562FF135890B552F7108FF3AF20048
:101EB60070083C3E860001308700720881050800E4
:101EC600F300640023009518692F6A2F642F7308A6
:101ED600F000F10170089100710892003F30F200A5
:101EE60072089505151413080800F300F201731C17
:101EF6007D2F7E2F822F7008F1007108F2070310E4
:101F0600F00D0310F30C7308031D8A2F8B2F7A2F05
:101F16007208080022008C018D01373021008C00E8
:101F2600EF308D00C83023008D001F308C00240058
:101F36008D018C0121009517C03022009D000130D3
:101F46009E000800F20022008D1072088E316E2667
:101F56008F312000911DB02FB12FAC2F9111710838
:101F66008E316E268F312000911DBA2FBB2FB62FD2
:101F7600911122008D140800FB01FC01771CC42F6F
:101F8600C52FC92F7908FB077A08FC3D0130F935C2
:101F9600FA0D890BCA2F0130F836F70C890BCF2FB3
:101FA60077087804031DD82FD92FC12F7C08F80095
:101FB6007B08F7000800083023009F0090309D0042
:101FC60024309E0067309B009C010030F0000030FA
:101FD600F1008E3179268F310030F0000030F100AB
:101FE600803104208F310030F0000030F1008E3156
:0A1FF60073268F312000E801080077
:020000040001F9
:08000000FF3FFF3FFF3FFF3F00
:04000E00E43FFF3E8E
:00000001FF
