:08000000803102288731D92F5D
:1009A4002030080020004708080016302100970076
:1009B4000800F0007008240091000800710821006C
:1009C400D9007008D800080071082100DD00700803
:1009D400DC00080071082100DB007008DA00080060
:1009E400640080010131890BF32C0034FE001200F5
:1009F4001E00FE0BF92C0034703021009900980180
:100A0400220096010800373438343934013409346B
:100A1400083407343F340134403024009400023059
:100A240095000130920021000D1224009512080057
:100A340022008C118C1321000C148C140C158C11B5
:100A44000C168C130D148D15080085310E25853177
:100A540085315A2585318431FE2485318431D7246A
:100A6400853185318C2585310800F3000130F10092
:100A7400700A3D2DF135890B3C2D7108F200730885
:100A84003E3E86008701720881040800F3000130AD
:100A9400F100700A4E2DF135890B4D2D7108FF3A86
:100AA400F20073083E3E8600870172088105080043
:100AB40022008C018D01373021008C00EF308D0035
:100AC400C83023008D001F308C0024008D018C0160
:100AD40021009517C03022009D0001309E000800BF
:100AE400F20022008D1072088431DB24853120004D
:100AF400911D7D2D7E2D792D911171088431DB247A
:100B040085312000911D872D882D832D9111220080
:100B14008D140800083023009F0090309D0024307D
:100B24009E00CF309B009C010030F0000030F100AB
:100B34008431E62485310030F0000030F100843146
:100B4400EC2485310030F0000030F1008431E024E1
:100B540085312000C90108002000D8015808203E32
:100B640086000130870081010130D7005708D8077B
:100B740040305802031CBF2DC02DB02D86313726BE
:100B840085317C083F392000C800863137268531FD
:100B94007C083F392000C7004808203E8600013009
:100BA40087006E0881000800F70177083E3E860042
:100BB40087010108F400F501F60174080139F30016
:100BC4007308F5040310F50D0310F40C0130F30061
:100BD4007308F60708307602031CF12DF22DDF2D81
:100BE4007508F1007708013E8531722585310130A1
:100BF400F3007308F70708307702031C022E032E54
:100C0400D72D08000030FB000030FA000030F90056
:100C14000030F800701C0F2E102E182E7408F807E0
:100C24007508F93D7608FA3D7708FB3D0130F43547
:100C3400F50DF60DF70D890B192E0130F336F20C74
:100C4400F10CF00C890B202E7308720471047004EB
:100C5400031D2D2E2E2E0C2E7B08F3007A08F20095
:100C64007908F1007808F000080020005208F30029
:100C74005108F2005008F1004F08F0004C30F70022
:100C84009530F6007F30F5002D30F40086310426CF
:100C94008631013070072000CF000030713DD00054
:100CA4000030723DD1000030733DD2004F08D300B4
:100CB4005008D4005108D5005208D6001130D63659
:100CC400D50CD40CD30C890B612E5408FD005308A9
:100CD400FC00080022008D1421008D1024009516BC
:100CE400F1010930853172258631F1010A308531EF
:100CF40072258631F1010C30853172258631073039
:100D0400F1000B30853172258631F101F10A0C3086
:100D1400853172258631F101F10A0F308531722552
:100D240086310B30F4002630F3005E30890B982EA8
:100D3400F30B982EF40B982EF1010F3085317225A8
:100D44008631F101F10A0C308531722586310800B3
:100D540085312725863185311A2586318531AE25A1
:100D6400863186316C2686318431D2248631200046
:100D7400E100E30106302000DF001330DE00AD3077
:100D8400890BC22EDE0BC22EDF0BC22E00322000D6
:100D9400630887312C27863101302000DE005E088D
:100DA400E30704306306031DD82ED92EDA2EE3019F
:100DB400E401E5016508DE000230DE35FF3E031D77
:100DC400DF2E5E356107DF0064085F07E00060081E
:100DD40086000130870001080319F12EF22EF92E46
:100DE4006508F0006408853137258631FF2E6508D3
:100DF400F000640885314825863101302000DE008A
:100E04005E08E50708306502031C092F0A2FDC2E53
:100E14000130DE005E08E40708306402031C132F6F
:100E2400142FDB2E8431D42486312000E2006208A2
:100E3400DE000330DE36890B1C2F5E08F0006208EA
:100E440003398531372586318531D6258631BC2E47
:100E5400803102282000DB00DD015D08203E860091
:100E64000130870001080319382F392F402F5D08FE
:100E7400203E860001308700013081020130D90014
:100E84005908DD0740305D02031C492F4A2F2F2FDC
:100E9400DC010330D9005908DB058C2F48080339DD
:100EA400031D552F562F592FDC01DC03A22F0130CF
:100EB400C802A22F03304805D90007305906031D84
:100EC400642F652F662F562F0130D9005908C807A3
:100ED400A22F4808D9000330D936890B6E2F07306A
:100EE4005906031D762F772F782F562F0830C80206
:100EF400A22F4808D9000330D936890B7E2F590810
:100F0400031D852F862F872F562F0830D9005908A7
:100F1400C807A22F5B08D900DA015A08003A03195E
:100F2400942FA22F5908003A0319502F013A03199C
:100F34005C2F033A03196B2F013A03197B2FA22F5D
:100F44005C0A031DA62FA72FAB2F8531AE25873151
:100F5400D82F4808203E8600013087000108031975
:100F6400B42FB52FB62FA72F48084706031DBB2F54
:100F7400BC2FD12F0130D9005908EE07863137260E
:100F840087317C081F392000C7004708203E8600AF
:100F9400013087000108031DD02FD12FC02F48082E
:100FA400203E8600013087006E088100080005306D
:100FB4008400853085006630860000308700093063
:100FC4008431F824873120308400003085003330A8
:100FD4008431F2248731A030840000308500383019
:100FE4008431F22487312030840001308500403080
:100FF4008431F224873120008631AA2E40343234E1
:101004001B340C340534023401340034003400340D
:101014000134023405340C341B3432348034BA3491
:10102400E134F334FA34FD34FE34FF340034003454
:101034000134023405340C341E3445340234403453
:04104400013400343F
:020000040001F9
:08000000FF3FFF3FFF3FFF3F00
:04000E00E43FFF3E8E
:00000001FF
