:08000000803102288731D12F65
:10000A0022008C118C1321000C148C140C158C11E9
:10001A000C168C130D148D15080022008D14210066
:10002A008D1024009516F10109308E317F2680311A
:10003A00F1010A308E317F268031F1010C308E3188
:10004A007F2680310730F1000B308E317F268031D8
:10005A00F101F10A0C308E317F268031F101F10A6B
:10006A000F308E317F2680310B30F4002630F300BA
:10007A005E30890B3E28F30B3E28F40B3E28F10133
:10008A000F308E317F268031F101F10A0C308E312A
:10009A007F26803108002000A9012908CC3E86006D
:1000AA0087018F316B2780317C0881002000A701EE
:1000BA002708A4000230A435890B602820302407C1
:1000CA00A50029082507A600260886000130870012
:1000DA008F316B2780317C08810001302000A40019
:1000EA002408A70708302702031C7C287D285D28DE
:1000FA000130A4002408A90704302902031C862819
:10010A0087285228AA012A08C83E860087018F310B
:10011A006B2780317C0881002000A8012808A400F0
:10012A000230A435890B962860302407A5002A08D6
:10013A002507A60026088600013087008F316B2725
:10014A0080317C08810001302000A4002408A8071F
:10015A0004302802031CB228B32893280130A400D3
:10016A002408AA0704302A02031CBC28BD288828B0
:10017A0008002000AD00A90129082D07A4002408C1
:10018A008600870181010130A4002408A9070830EC
:10019A002902031CD128D228C12860080339AA00E1
:1001AA000430F8000030F9006008A400A501240812
:1001BA00FA002508FB008F31A0278031780820003B
:1001CA00AB005F080339A7000430F8000030F900DB
:1001DA005F08A400A5012408FA002508FB008F3156
:1001EA00A027803178082000A8002A08031DFE28CD
:1001FA00FF2805292D08860087018101810A102917
:10020A0003302A06031D0A290B2910292D0A860004
:10021A0087018101810A2B08031D142915291C292C
:10022A002D08023E860087018101810A28290330B0
:10023A002B06031D2129222928292D08033E860081
:10024A0087018101810AAC012C08E03E8600870102
:10025A00010860070F39A6002608D03E86008701EC
:10026A000108031939293A2942292C082D07A40023
:10027A002408860087018101810A0130A40024082C
:10028A00AC0704302C02031C4B294C2929292A08C3
:10029A00270203185129522959292D08043E86009C
:1002AA0087018101810A652927082A0203185E2924
:1002BA005F2965292D08053E860087018101810A8B
:1002CA002B08280203186A296B2972292D08063E71
:1002DA00860087018101810A7E2928082B020318DA
:1002EA00772978297E292D08073E86008701810112
:1002FA00810A08002000A8000130DE02AA012A08AB
:10030A00D03E86008701010803198C298D2993297B
:10031A002A08D03E86008701013081020130A600FA
:10032A002608AA0710302A02031C9C299D29842921
:10033A00A9010330A6002608A805F4296008033994
:10034A00031DA829A929AD292000A901A9030A2A60
:10035A000130E0020A2A03306005A60003302606AF
:10036A00031DB829B929BA29A9290130A6002608E6
:10037A00E0070A2A0430F8000030F9006008A600F5
:10038A00A7012608FA002708FB008F31A027813130
:10039A0078087904031DD229D329D429A92904303C
:1003AA002000E0020A2A0430F8000030F900600850
:1003BA00A600A7012608FA002708FB008F31A0270C
:1003CA008131033078067904031DEC29ED29EE29E1
:1003DA00A92904302000A6002608E0070A2A2808CE
:1003EA00A600A7012708003A0319FC290A2A2608A9
:1003FA00003A0319A329013A0319B029033A031948
:10040A00BF29013A0319D8290A2A290A031D0E2AE3
:10041A000F2A132A8F3108278131432A6008D03ED8
:10042A0086008701010803191B2A1C2A1F2AA90111
:10043A00A9030F2A60085F06031D242A252A3D2ADC
:10044A002830DE00A901A90A0130A6002608E20721
:10045A008F316B2781317C080F392000DF005F085C
:10046A00D03E860087010108031D3C2A3D2A2D2A19
:10047A006008D03E860087016208810020005E087D
:10048A00031D482A492A4E2AA901A9038F310827A0
:10049A0081312000290808002000A7012708643EAE
:1004AA00860087010108803A7F3E031C5D2A5E2A86
:1004BA00642A2708643E860087018101810301308E
:1004CA00A4002408A70708302702031C6D2A6E2AF5
:1004DA00532AAD012D08523E860087012D08CC3ED5
:1004EA008400850100088100A8012808643E86006E
:1004FA0087010108AB00AC01AB1BAC032808A400C0
:10050A000230A435890B862A20302407A5002D083D
:10051A002507A60026088600013087000108F20098
:10052A00F301F21BF3032C08F5002B08F4008E31BB
:10053A009926823173082000AC007208AB00FF30A4
:10054A00F8000030F9002C08FB002B08FA008F3164
:10055A00A027823179082000AC007808AB002B086C
:10056A00A4002D08523E8600870124088107013025
:10057A00A4002408A80708302802031CC52AC62A92
:10058A007A2A2D085A3E860087012D08523E840099
:10059A00850100088E313326823189368100013087
:1005AA002000A4002408AD0704302D02031CDE2A13
:1005BA00DF2A6F2AAE012E084E3E860087012E08DA
:1005CA00C83E8400850100088100A90129085A3E15
:1005DA00860087010108AB00AC01AB1BAC032908FC
:1005EA00A4000230A435890BF72A60302407A5003D
:1005FA002E082507A6002608860001308700010874
:10060A00F200F301F21BF3032C08F5002B08F400A7
:10061A008E319926823173082000AC007208AB0033
:10062A00FF30F8000030F9002C08FB002B08FA0014
:10063A008F31A027823179082000AC007808AB00FE
:10064A002B08A4002E084E3E860087012408810745
:10065A000130A4002408A90704302902031C362B00
:10066A00372BEB2A2E08563E860087012E084E3E6F
:10067A008400850100088E31332682318936810053
:10068A0001302000A4002408AE0704302E02031C07
:10069A004F2B502BE02AE101AA01AA0A6108563E13
:1006AA00860087010108803AA4002A08563E86007F
:1006BA0087010108803AA4020318642B652B672B73
:1006CA002A08E1000130A4002408AA0704302A02FB
:1006DA00031C702B712B532B610808008E311326D3
:1006EA0083318031052083318F310827833180316E
:1006FA00502083318031122083318D31C2258331DC
:10070A002000C200C601C7014708BF000130BF353B
:10071A00FF3E031D8C2B3F354207C00046084007A9
:10072A00C100410886008701010803199D2B9E2BF1
:10073A00A52B4708FD0046088E3155268331AB2B81
:10074A004708F00046088E314326833101302000E5
:10075A00BF003F08C70704304702031CB52BB62B5E
:10076A00892B0130BF003F08C60704304602031C2C
:10077A00BF2BC02B882B8D31C42583312000C300A9
:10078A000430F8000030F9004308BF00C0013F08F8
:10079A00FA004008FB008F31A02783317808FD005A
:1007AA002000430803398E31552683318E31DA26EB
:1007BA00833102302000C0000430BF00BA30890BF8
:1007CA00E42BBF0BE42BC00BE42B00008D31C025BA
:1007DA0083318031BE20833182315122833181318C
:1007EA007F2183312000C5004508853117258331D3
:1007FA002000C801C9014908BF000130BF35FF3ECA
:10080A00031D032C3F354207C00048084007C100BA
:10081A0041088600870101080319142C152C1C2C89
:10082A004908FD0048088E3155268331222C490893
:10083A00F00048088E314326833101302000BF0082
:10084A003F08C90704304902031C2C2C2D2C002C0C
:10085A000130BF003F08C80704304802031C362C89
:10086A00372CFF2B0630F00000308E3143268331BF
:10087A000630F00002308E31432683310530F00015
:10088A0001308E31432683310730F00001308E313A
:10089A00432683310630F00004308E3143268331FB
:1008AA000630F00006308E31432683310530F000E1
:1008BA0005308E31432683310730F00005308E3102
:1008CA004326833120006408803A7F3E031C6E2C45
:1008DA006F2C762C0630FD0000308E315526833180
:1008EA00832C6508803A7F3E031C7C2C7D2C832C4C
:1008FA000630FD0002308E3155268331200066080D
:10090A00803A7F3E031C8A2C8B2C922C0530FD00EA
:10091A0001308E31552683319F2C6708803A7F3EFD
:10092A00031C982C992C9F2C0730FD0001308E3126
:10093A005526833120006808803A7F3E031CA62C86
:10094A00A72CAE2C0630FD0004308E31552683319B
:10095A00BB2C6908803A7F3E031CB42CB52CBB2CF7
:10096A000630FD0006308E315526833120006A0894
:10097A00803A7F3E031CC22CC32CCA2C0530FD00D2
:10098A0005308E3155268331D72C6B08803A7F3E4D
:10099A00031CD02CD12CD72C0730FD0005308E310A
:1009AA0055268331F00107308E3143268331F00119
:1009BA00F00A07308E31432683312000450A031D91
:1009CA00E72CE82CEE2CFD0107308E3155268331B9
:1009DA00F92C4503031DF22CF32CF92CFD01FD0A19
:1009EA0007308E31552683318D31C425833120005D
:1009FA00C4000430F8000030F9004408BF00C00108
:100A0A003F08FA004008FB008F31A027833178089D
:100A1A00FD002000440803398E3155268331DB2B33
:100A2A00803102282000B0003008031D1D2D1E2D24
:100A3A001F2DD02F300A031D232D242D252DB00163
:100A4A003008031D292D2A2D412DB10131082A3ED6
:100A5A00860087017F3081000130A4002408B10795
:100A6A0004303102031C3A2D3B2D2B2D61082A3EFE
:100A7A00860087018101572DB20132082A3E86007D
:100A8A00870181010130A4002408B2070430320230
:100A9A00031C502D512D422D61082A3E86008701E4
:100AAA007F308100BC013C08C43E860087013C08B7
:100ABA002A3E840085010008A4003C08563E8400B2
:100ACA0085010008A5002408250281003C084A3E49
:100ADA008600870181013C08B43E860087018101B6
:100AEA00B3013308A4000230A435890B792D4030B4
:100AFA002407A5003C082507A60026088600013021
:100B0A00870081010130A4002408B30704303302AE
:100B1A00031C902D912D762D0130A4002408BC07CA
:100B2A0004303C02031C9A2D9B2D582DB80138081D
:100B3A00B03E8600870181013808AC3E86008701F5
:100B4A0081013808A83E860087018101B401340872
:100B5A00A4000230A435890BAF2DA0302407A500CC
:100B6A0038082507A600260886000130870081017B
:100B7A000130A4002408B40708303402031CC62D2F
:100B8A00C72DAC2D0130A4002408B8070430380260
:100B9A00031CD02DD12D9C2DBE013E084A3E860055
:100BAA0087017F30F8000030F9003E08C43E840017
:100BBA0085010008F200F301F21BF3033E084E3EE2
:100BCA008400850100088E3123268531893620006C
:100BDA00A400A5012408F4002508F5008E31992601
:100BEA0085317308FB007208FA008F31A02785311E
:100BFA007808810020003E08B43E86008701403014
:100C0A00F8000030F9003E084A3E840085010008D9
:100C1A00FA00FB01FA1BFB038F31A0278531780804
:100C2A0081002000B9017F30F8000030F9003E0849
:100C3A004A3E860087010108F200F301F21BF30322
:100C4A0039085A3E860087010108F400F501F41BB1
:100C5A00F5038E31992685317308FB007208FA0074
:100C6A008F31A027853179082000AF007808AE00BF
:100C7A003908A4000230A435890B402E40302407DD
:100C8A00A5003E082507A600260886000130870031
:100C9A004030F8000030F9002F08FB002E08FA0057
:100CAA008F31A0278531780881007F30F800003025
:100CBA00F90020003E084A3E860087010108F2003A
:100CCA00F301F21BF3033908A4000230A435890B9F
:100CDA006B2E60302407A5003E082507A6002608CB
:100CEA008600013087000108F400F501F41BF503C2
:100CFA008E31992685317308FB007208FA008F310C
:100D0A00A027853178082000A7003908B03E860060
:100D1A008701270881070130A4002408B907043095
:100D2A003902031C992E9A2E182E0130A400240889
:100D3A00BE0704303E02031CA32EA42ED22DBD01F1
:100D4A003D08AC3E860087017F30F8000030F9008C
:100D5A003D08B03E840085010008F200F301F21B51
:100D6A00F3033D08523E8400850100088E31232694
:100D7A00853189362000A400A5012408F40025083D
:100D8A00F5008E31992685317308FB007208FA0046
:100D9A008F31A02785317808810020003D08A83EC0
:100DAA00860087014030F8000030F9003D08AC3E6B
:100DBA00840085010008FA00FB01FA1BFB038F314E
:100DCA00A0278531780881002000B5010830350256
:100DDA00031CF02EF12EF22E3A2F7F30F80000304D
:100DEA00F9003D084A3E860087010108F200F30136
:100DFA00F21BF3033508643E860087010108F400FC
:100E0A00F501F41BF5038E31992685317308FB0031
:100E1A007208FA008F31A027853179082000AF00C7
:100E2A007808AE003508A4000230A435890B1A2FC1
:100E3A0040302407A5003D082507A600260886009D
:100E4A00013087004030F8000030F9002F08FB001D
:100E5A002E08FA008F31A0278531780881000130E9
:100E6A002000A4002408B507EB2E0130A4002408B2
:100E7A00BD0704303D02031C432F442FA52EBA019F
:100E8A0004303A02031C4A2F4B2F4C2F8A2F3A0860
:100E9A00B43E860087013A08C83E840085010108ED
:100EAA008002B60104303602031C5C2F5D2F5E2FD0
:100EBA00852F3608A4000230A435890B612F4030F3
:100ECA002407A5003A082507A6002608860001304F
:100EDA0087003608A7000230A735890B712F6030CA
:100EEA002707A8003A082807A90029088400013022
:100EFA008500010880020130A4002408B607572F94
:100F0A000130A4002408BA07452FBB0104303B0274
:100F1A00031C902F912F922FD02F3B08A83E8600BA
:100F2A0087013B08CC3E8400850101088002B70195
:100F3A0008303702031CA22FA32FA42FCB2F370868
:100F4A00A4000230A435890BA72FA0302407A500DE
:100F5A003B082507A60026088600013087003708C7
:100F6A00A7000230A735890BB72F20302707A80022
:100F7A003B082807A90029088400013085000108D8
:100F8A0080020130A4002408B7079D2F0130A40075
:100F9A002408BB078B2F0800F53084008D308500AC
:100FAA00E03086000030870008308D31E82587312F
:100FBA004A3084000030850026308D31E2258731A1
:100FCA00A03084000030850040308D31E225873121
:100FDA00203084000130850050308D31E225873180
:100FEA00A03084000130850040308D31E225873100
:100FFA0020008331732B403432341B340C340534D3
:10100A00023401340034003400340134023405342B
:10101A000C341B3432348034BA34E134F334FA34C5
:10102A00FD34FE34FF340034003401340234053414
:0E103A000C341E34453402344034013400348A
:101B800064300800D030080020005F0808001630DC
:101B9000210097000800F000700824009100080060
:101BA00071082100E9007008E800080071082100B0
:101BB000ED007008EC00080071082100EB007008CF
:101BC000EA000800640080010131890BE32D003434
:101BD000FE0012001E00FE0BE92D003470302100C3
:101BE000990098012200960108000B340F34033449
:101BF0000434053401340D340C347008FF3E2000E9
:101C0000EC00FF30713DED00EE01EF0108004030C7
:101C100024009400023095000130920021000D1242
:101C20002400951208008E3107268E318E316726EA
:101C30008E318D31EE258E318D31C7258E318E312D
:101C4000B8268E310800F1007108F0000430F0363B
:101C5000890B272E7008003E840088300318013E4F
:101C6000850000080800F1007108F0000430F0362B
:101C7000890B372E7008103E840088300318013E0F
:101C8000850000080800F3000130F100730A492EB6
:101C9000F135890B482E7108FF3AF2007008A03E1A
:101CA000860087017208810508002000A600013027
:101CB000A400260A5C2EA435890B5B2E2408A500FF
:101CC0007D08A03E860087012508810408002200C7
:101CD0008C018D01373021008C00EF308D00C83031
:101CE00023008D001F308C0024008D018C01210009
:101CF0009517C03022009D0001309E000800F200C0
:101D000022008D1072088D31CB258E312000911D5F
:101D10008A2E8B2E862E911171088D31CB258E3116
:101D20002000911D942E952E902E911122008D143D
:101D30000800F601F701721C9E2E9F2EA32E740838
:101D4000F6077508F73D0130F435F50D890BA42E23
:101D50000130F336F20C890BA92E72087304031DAF
:101D6000B22EB32E9B2E7708F3007608F2000800FF
:101D7000083023009F0090309D0024309E00673083
:101D80009B009C010030F0000030F1008D31D62521
:101D90008E310030F0000030F1008D31DC258E31C5
:101DA0000030F0000030F1008D31D0258E31200060
:101DB000E3010800F7017708A03E860087010108CB
:101DC000F400F501F6010310F50D74080139F30074
:101DD0007308F5040310F40C0130F3007308F607E0
:101DE00008307602031CF52EF62EE32E7508F1005E
:101DF0007708013E8E317F268E310130F300730863
:101E0000F70708307702031C062F072FDB2E080088
:101E10002000A5012508D03E860087018101013000
:101E2000A4002408A50710302502031C182F192F21
:101E30000A2F0030F000F1008D31FD258F318F31F8
:101E40006B278F317C080F392000E0008F316B2722
:101E50008F317C080F392000DF000330E20028308A
:101E6000DE006008D03E860087016208810008001D
:101E70000030FB000030FA000030F9000030F800BC
:101E8000701C432F442F4C2F7408F8077508F93D38
:101E90007608FA3D7708FB3D0130F435F50DF60D77
:101EA000F70D890B4D2F0130F336F20CF10CF00CCD
:101EB000890B542F7308720471047004031D612F81
:101EC000622F402F7B08F3007A08F2007908F100B6
:101ED0007808F000080020006F08F3006E08F20098
:101EE0006D08F1006C08F0004C30F7009530F600FA
:101EF0007F30F5002D30F4008F3138278F310130DD
:101F000070072000EC000030713DED000030723DA4
:101F1000EE000030733DEF006C08A0006D08A100DA
:101F20006E08A2006F08A3001130A336A20CA10C0A
:101F3000A00C890B952F2108FD002008FC0008004B
:101F40002000A101F91FA52FA62FAD2FF809F9092F
:101F5000F80A0319F90AA101A10AFB1FB02FB12F3A
:101F6000BA2FFA09FB09FA0A0319FB0A0130FC002F
:101F70007C08A106A201A301780879040319C12FE6
:101F8000C22FF12FA001A00ACE2F0130F835F90D94
:101F9000890BC62F0130FC007C08A007F91FD12F48
:101FA000D22FC52F0130A235A30D890BD32F79086D
:101FB0007B02031DDD2F78087A02031CE02FE12F3E
:101FC000E62F7808FA027908FB3B22140130F93633
:101FD000F80C890BE72F0130A002031DF02FF12F21
:101FE000D22F21080319F52FF62FFB2FA209A309E1
:101FF000A20A0319A30A2308F9002208F80008001E
:020000040001F9
:08000000FF3FFF3FFF3FFF3F00
:04000E00E43FFF3E8E
:00000001FF
