:10000000803102288731D12FF20022008D10720832
:100010008C31FD2480312000911D0F2810280B28E1
:10002000911171088C31FD2480312000911D192817
:100030001A281528911122008D140800F801F31FC9
:10004000222823282A28F209F309F20A0319F30ABD
:10005000F801F80AF51F2D282E283728F409F5098C
:10006000F40A0319F50A0130F6007608F806F901DA
:10007000FA017208730403193E283F286E28F7011D
:10008000F70A4B280130F235F30D890B4328013074
:10009000F6007608F707F31F4E284F284228013054
:1000A000F935FA0D890B502873087502031D5A287B
:1000B00072087402031C5D285E2863287208F4022B
:1000C0007308F53B79140130F336F20C890B642880
:1000D0000130F702031D6D286E284F287808031998
:1000E000722873287828F909FA09F90A0319FA0A13
:1000F0007A08F3007908F20008002000A700A301A5
:1001000023082707FB007B08860087018101013057
:10011000FB007B08A30708302302031C90289128CA
:1001200080285F080339A4000430F2000030F30097
:100130005F08FB00FC017B08F4007C08F5008031BF
:100140001E20803172082000A5005E080339A1003E
:100150000430F2000030F3005E08FB00FC017B0875
:10016000F4007C08F50080311E20803172082000E8
:10017000A2002408031DBD28BE28C4282708860025
:1001800087018101810ACF2803302406031DC92875
:10019000CA28CF28270A860087018101810A2508FD
:1001A000031DD328D428DB282708023E86008701B8
:1001B0008101810AE72803302506031DE028E12894
:1001C000E7282708033E860087018101810AA601EE
:1001D0002608E03E8600870101085F070F39A0006E
:1001E0002008D03E8600870101080319F828F92865
:1001F000012926082707FB007B088600870181016B
:10020000810A0130FB007B08A60704302602031C8C
:100210000A290B29E828240821020318102911298A
:1002200018292708043E860087018101810A2429B4
:100230002108240203181D291E2924292708053E08
:10024000860087018101810A2508220203182929D5
:100250002A2931292708063E860087018101810A63
:100260003D29220825020318362937293D29270868
:10027000073E860087018101810A08002000A8004E
:100280000130DD02AA012A08D03E8600870101085C
:1002900003194B294C2952292A08D03E8600870190
:1002A000013081020130A6002608AA0710302A0278
:1002B000031C5B295C294329A9010330A6002608F9
:1002C000A805B3295F080339031D672968296C292C
:1002D0002000A901A903C9290130DF02C92903307F
:1002E0005F05A60003302606031D772978297929A2
:1002F00068290130A6002608DF07C9290430F2006A
:100300000030F3005F08A600A7012608F4002708C4
:10031000F50080311E20813172087304031D91297C
:1003200092299329682904302000DF02C92904306A
:10033000F2000030F3005F08A600A7012608F400D1
:100340002708F50080311E208131033072067304C6
:10035000031DAB29AC29AD29682904302000A60073
:100360002608DF07C9292808A600A7012708003AA0
:100370000319BB29C9292608003A03196229013A41
:1003800003196F29033A03197E29013A03199729A2
:10039000C929290A031DCD29CE29D2298E31382613
:1003A0008131022A5F08D03E8600870101080319C7
:1003B000DA29DB29DE29A901A903CE295F085E0617
:1003C000031DE329E429FC292830DD00A901A90A3D
:1003D0000130A6002608E1078E319B2681317C087A
:1003E0000F392000DE005E08D03E8600870101083C
:1003F000031DFB29FC29EC295F08D03E86008701FC
:100400006108810020005D08031D072A082A0D2AC3
:10041000A901A9038E31382681312000290808005E
:100420002000A7012708633E860087010108803A63
:100430007F3E031C1C2A1D2A232A2708633E8600B0
:1004400087017F3081000130A4002408A70708300D
:100450002702031C2C2A2D2A122AAD012D08513EF9
:10046000860087012D08CC3E8400850100088100AC
:10047000A8012808633E860087010108AB00AC0193
:10048000AB1BAC032808A4000230A435890B452A15
:1004900020302407A5002D082507A6002608860081
:1004A000013087000108A000A101A01BA1032C08B6
:1004B000A3002B08A2008D31C8258231200021081D
:1004C000AC002008AB007F30F2000030F3002C08B5
:1004D000F5002B08F40080311E20823173082000C3
:1004E000AC007208AB002B08A4002D08513E86001A
:1004F0008701240881070130A4002408A8070830D8
:100500002802031C842A852A392A2D08593E860090
:1005100087010230F2000030F3002D08513E8400C4
:10052000850100088D317C2582312000A400A501C1
:100530002408F4002508F50080311E20823172085D
:10054000810001302000A4002408AD0704302D02F2
:10055000031CAB2AAC2A2E2AAE012E084D3E860083
:1005600087012E08C83E8400850100088100A9018A
:100570002908593E860087010108AB00AC01AB1B7E
:10058000AC032908A4000230A435890BC42A6030CA
:100590002407A5002E082507A6002608860001309E
:1005A00087000108A000A101A01BA1032C08A30043
:1005B0002B08A2008D31C825823120002108AC0013
:1005C0002008AB007F30F2000030F3002C08F5006B
:1005D0002B08F40080311E20823173082000AC000B
:1005E0007208AB002B08A4002E084D3E8600870140
:1005F000240881070130A4002408A9070430290237
:10060000031C032B042BB82A2E08553E86008701B5
:100610000230F2000030F3002E084D3E84008501C8
:1006200000088D317C2582312000A400A50124081A
:10063000F4002508F50080311E2082317208810007
:1006400001302000A4002408AE0704302E02031C51
:100650002A2B2B2BAD2AE001AA01AA0A6008553EDD
:10066000860087010108803AA4002A08553E8600CA
:1006700087010108803AA40203183F2B402B422B2C
:100680002A08E0000130A4002408AA0704302A0246
:10069000031C4B2B4C2B2E2B600808008D315C2546
:1006A00083318D314F2583318E31382683318F311F
:1006B000622783318E31D02683318C31F42483310B
:1006C0002000C000C501C6014608BD000130BD358F
:1006D000FF3E031D672B3D354007BE0045083E0722
:1006E000BF003F088600870101080319782B792B8A
:1006F000802B4608FB0045088D319E258331862BD3
:100700004608F00045088D318C25833101302000EA
:10071000BD003D08C60704304602031C902B912BF8
:10072000642B0130BD003D08C50704304502031CA1
:100730009A2B9B2B632B8C31F62483312000C10034
:100740000430F2000030F3004108BD00BE013D0856
:10075000F4003E08F50080311E2083317208FB0052
:100760002000410803398D319E2583318E310A26C0
:10077000833106302000BE001330BD00AD30890B40
:10078000BF2BBD0BBF2BBE0BBF2B00328C31F22415
:10079000833180317D2083318231102283312000EA
:1007A000C200420881313E2183312000C400440848
:1007B00085313F2583312000C701C8014808BD00AD
:1007C0000130BD35FF3E031DE12B3D354007BE0026
:1007D00047083E07BF003F0886008701010803194C
:1007E000F22BF32BFA2B4808FB0047088D319E258E
:1007F0008331002C4808F00047088D318C25833167
:1008000001302000BD003D08C80704304802031C29
:100810000A2C0B2CDE2B0130BD003D08C70704302D
:100820004702031C142C152CDD2B0630F000003081
:100830008D318C2583310630F00002308D318C25CE
:1008400083310530F00001308D318C258331073044
:10085000F00001308D318C2583310630F0000430FA
:100860008D318C2583310630F00006308D318C259A
:1008700083310530F00005308D318C258331073010
:10088000F00005308D318C258331F001F00A043001
:100890008D318C258331F001F00A06308D318C25A5
:1008A0008331F00105308D318C2583310230F00029
:1008B00005308D318C25833120006308803A7F3EDE
:1008C000031C632C642C6B2C0630FB0000308D3134
:1008D0009E258331782C6408803A7F3E031C712C5E
:1008E000722C782C0630FB0002308D319E2583312E
:1008F00020006508803A7F3E031C7F2C802C872CCB
:100900000530FB0001308D319E258331942C660823
:10091000803A7F3E031C8D2C8E2C942C0730FB00DC
:1009200001308D319E25833120006708803A7F3E5B
:10093000031C9B2C9C2CA32C0630FB0004308D3117
:100940009E258331B02C6808803A7F3E031CA92C79
:10095000AA2CB02C0630FB0006308D319E25833149
:1009600020006908803A7F3E031CB72CB82CBF2CAE
:100970000530FB0005308D319E258331E82C6A0857
:10098000803A7F3E031CC52CC62CE82C0730FB00A8
:1009900005308D319E258331E82CFB01FB0A0430A4
:1009A0008D319E258331FF2CFB01FB0A06308D31F2
:1009B0009E258331FF2CFB0105308D319E2583312F
:1009C000FF2C0230FB0005308D319E258331FF2C3A
:1009D00020004208BD00BE013E08003A0319F12C78
:1009E000FF2C3D08003A0319CD2C013A0319D42CF1
:1009F000033A0319DB2C013A0319E12CFF2CF00117
:100A000007308D318C258331F001F00A07308D31AC
:100A10008C2583312000440A031D0F2D102D162D27
:100A2000FB0107308D319E258331212D4403031DA9
:100A30001A2D1B2D212DFB01FB0A07308D319E2520
:100A400083318C31F62483312000C3000430F2005E
:100A50000030F3004308BD00BE013D08F4003E082D
:100A6000F50080311E2083317208FB00200043080E
:100A700003398D319E258331B62B80310228200029
:100A8000AE002E08031D452D462D472DD02F2E0AD2
:100A9000031D4B2D4C2D4D2DAE012E08031D512D48
:100AA000522D692DAF012F082A3E860087017F3025
:100AB00081000130A4002408AF0704302F02031C7A
:100AC000622D632D532D60082A3E86008701810127
:100AD0007F2DB00130082A3E860087018101013058
:100AE000A4002408B00704303002031C782D792DAF
:100AF0006A2D60082A3E860087017F308100B70199
:100B00003708C43E8600870137082A3E84008501E5
:100B10000008A4003708553E840085010008A500A0
:100B20002408250281000130A4002408B7070430FE
:100B30003702031C9C2D9D2D802DB1013108B03E44
:100B40008600870181010130A4002408B107043028
:100B50003102031CAC2DAD2D9E2DBC013C08C43EC2
:100B6000860087010108A000A101A01BA10302309B
:100B7000F2000030F3003C084D3E8600870101087A
:100B80008D316C2585312000A400A5012408F400D6
:100B90002508F50080311E20853173082000A30050
:100BA0007208A2008D31C825853120002108B600C9
:100BB0002008B5003C08493E860087017F30F200DE
:100BC0000030F3003608F5003508F40080311E20AF
:100BD00085317208810020003C08B43E8600870100
:100BE0004030F2000030F3003C08493E84008501AB
:100BF0000008F400F501F41BF50380311E20853157
:100C00007208810020003C08493E860087010108E7
:100C10008D312F2585312000B8017F30F200003062
:100C2000F3003C08493E860087010108A000A101AD
:100C3000A01BA1033808593E860087010108A200C5
:100C4000A301A21BA3038D31C825853120002108F3
:100C5000F5002008F40080311E2085317308200043
:100C6000B6007208B5003808A4000230A435890B1C
:100C7000362E40302407A5003C082507A60026088C
:100C80008600013087004030F2000030F300360863
:100C9000F5003508F40080311E208531720881008E
:100CA0007F30F2000030F30020003C08493E86000F
:100CB00087010108A000A101A01BA1033808A4001E
:100CC0000230A435890B612E60302407A5003C0852
:100CD0002507A60026088600013087000108A2002B
:100CE000A301A21BA3038D31C82585312000210853
:100CF000F5002008F40080311E20853172082000A4
:100D0000A7003808B03E8600870127088107013018
:100D1000A4002408B80704303802031C902E912E3A
:100D20000D2E0130A4002408BC0704303C02031C33
:100D30009A2E9B2EAE2DBB013B08B03E860087014C
:100D40000108A000A101A01BA1030230F2000030A5
:100D5000F3003B08513E8600870101088D316C2568
:100D600085312000A400A5012408F4002508F50021
:100D700080311E20853173082000A3007208A20074
:100D80008D31C825853120002108B6002008B50026
:100D90003B08AC3E860087017F30F2000030F30054
:100DA0003608F5003508F40080311E2085317208C0
:100DB000810020003B08A83E860087014030F200F9
:100DC0000030F3003B08AC3E840085010008F400CD
:100DD000F501F41BF50380311E2085317208810076
:100DE0002000B2017F30F2000030F3003B08493EA2
:100DF000860087010108A000A101A01BA103320801
:100E0000633E860087010108A200A301A21BA30381
:100E10008D31C825853120002108F5002008F40017
:100E200080311E20853173082000B6007208B5009D
:100E30003208A4000230A435890B1B2F4030240750
:100E4000A5003B082507A60026088600013087007C
:100E50004030F2000030F3003608F5003508F400A9
:100E600080311E2085317208810001302000A400ED
:100E70002408B20708303202031C3F2F402FF22E05
:100E80000130A4002408BB0704303B02031C492F97
:100E90004A2F9C2EB9013908B43E860087013908D3
:100EA000C83E8400850101088002B3013308A40014
:100EB0000230A435890B592F40302407A50039088A
:100EC0002507A60026088600013087003308A70002
:100ED0000230A735890B692F60302707A800390831
:100EE0002807A90029088400013085000108800234
:100EF0000130A4002408B30704303302031C812FFF
:100F0000822F562F0130A4002408B907043039027B
:100F1000031C8B2F8C2F4B2FBA013A08A83E86005A
:100F200087013A08CC3E8400850101088002B401A3
:100F300008303402031C9D2F9E2F9F2FC62F34088C
:100F4000A4000230A435890BA22FA0302407A500ED
:100F50003A082507A60026088600013087003408D5
:100F6000A7000230A735890BB22F20302707A80031
:100F70003A082807A90029088400013085000108E3
:100F800080020130A4002408B407982F0130A40087
:100F90002408BA0704303A02031CCF2FD02F8D2F1C
:100FA0000800273084008D308500E0308600003056
:100FB000870008308D311A25873149308400003090
:100FC000850026308D3114258731A0308400003013
:100FD000850040308D311425873120308400013068
:100FE000850050308D3114258731A03084000130C8
:100FF000850040308D3114258731200083314E2B00
:10100000403432341B340C3405340234013400349F
:10101000003400340134023405340C341B343234CF
:101020008034BA34E134F334FA34FD34FE34FF341E
:10103000003400340134023405340C341E34453499
:08104000023440340134003495
:1019E40063300800D030080020005E08080016307C
:1019F400210097000800F0007008240091000800FE
:101A040071082100E9007008E8000800710821004D
:101A1400ED007008EC00080071082100EB0070086C
:101A2400EA000800640080010131890B152D00349F
:101A3400FE0012001E00FE0B1B2D0034703021002E
:101A4400990098012200960108000B340F340334E6
:101A54000434053401340D340C34F0002000111E1C
:101A6400342D352D302D700823009A00080070089D
:101A7400FF3E2000EB00FF30713DEC00ED01EE0174
:101A84000800403024009400023095000130920098
:101A940021000D1224009512080022008C118C13D1
:101AA40021000C148C140C158C110C168C130D14B1
:101AB4008D1508008D3143258D318D31B0258D3143
:101AC4008D3120258D318C31F9248D318D31E825EE
:101AD4008D310800F1007108F0000430F036890BF4
:101AE400702D7008003E840088300318013E850084
:101AF40000080800F1007108F0000430F036890B8A
:101B0400802D7008103E840088300318013E850043
:101B140000080800F3000130F100730A922DF1353A
:101B2400890B912D7108FF3AF2007008A03E8600DF
:101B340087017208810508002000A0000130FC0024
:101B4400200AA52DFC35890BA42D7C08FD007B08FB
:101B5400A03E860087017D088104080022008C01D4
:101B64008D01373021008C00EF308D00C830230008
:101B74008D001F308C0024008D018C0121009517ED
:101B8400C03022009D0001309E000800FB01FC01D2
:101B94002000201CCE2DCF2DD32D2208FB07230897
:101BA400FC3D0130A235A30D890BD42D0130A136A3
:101BB400A00C890BD92D20082104031DE22DE32D4F
:101BC400CA2D7C08A1007B08A0000800083023006F
:101BD4009F0090309D0024309E0067309B009C0144
:101BE4000030F0000030F1008D3108258D310030D7
:101BF400F0000030F1008D310E258D310030F00001
:101C04000030F1008D3102258D312000E201080001
:101C1400F7017708A03E860087010108F400F5016A
:101C2400F6010310F50D74080139F3007308F50487
:101C34000310F40C0130F3007308F6070830760241
:101C4400031C252E262E132E7508F1007708013E5D
:101C5400803104208E310130F3007308F707083017
:101C64007702031C362E372E0B2E08002000A50108
:101C74002508D03E8600870181010130A400240894
:101C8400A50710302502031C482E492E3A2E003099
:101C9400F000F1008D3139258E318E319B268E3145
:101CA4007C080F392000DF008E319B268E317C08A2
:101CB4000F392000DE000330E1002830DD005F082A
:101CC400D03E860087016108810008000030FB00D7
:101CD4000030FA000030F9000030F800701C732E58
:101CE400742E7C2E7408F8077508F93D7608FA3DC1
:101CF4007708FB3D0130F435F50DF60DF70D890B32
:101D04007D2E0130F336F20CF10CF00C890B842E8D
:101D14007308720471047004031D912E922E702EA8
:101D24007B08F3007A08F2007908F1007808F000E3
:101D3400080020006E08F3006D08F2006C08F10042
:101D44006B08F0004C30F7009530F6007F30F5005A
:101D54002D30F4008E3168268E310130700720005A
:101D6400EB000030713DEC000030723DED000030BE
:101D7400733DEE006B08A0006C08A1006D08A20082
:101D84006E08A3001130A336A20CA10CA00C890B81
:101D9400C52E2108FD002008FC00080022008D1437
:101DA40021008D1024009516F101093080310420A2
:101DB4008E31F1010A30803104208E31F1010C3072
:101DC400803104208E310730F1000B308031042043
:101DD4008E31F101F10A0C30803104208E31F10191
:101DE400F10A0F30803104208E310B30F40026309C
:101DF400F3005E30890BFC2EF30BFC2EF40BFC2E4F
:101E0400F1010F30803104208E31F101F10A0C30E0
:101E1400803104208E3108002000AA01A71F132F4F
:101E2400142F1B2FA609A709A60A0319A70AAA019A
:101E3400AA0AA51F1E2F1F2F242FA409A509A40A2F
:101E44000319A50A240825040319292F2A2F532F1F
:101E5400A901A90A362F0130A435A50D890B2E2F0F
:101E64000130A8002808A907A51F392F3A2F2D2FC4
:101E740025082702031D402F24082602031C432F94
:101E8400442F482F2408A6022508A73B0130A53675
:101E9400A40C890B492F0130A902031D522F532F83
:101EA4003A2F2A080319572F582F5D2FA609A7097F
:101EB400A60A0319A70A2708A5002608A4000800F3
:101EC4002000B0013008CC3E860087010330A40016
:101ED4000030A5008E319B268F317D082000A7009D
:101EE4007C08A6008F310E278F3120002408810042
:101EF400AE012E08AB000230AB35890B7E2F2030AB
:101F04002B07AC0030082C07AD002D0886000130EB
:101F140087000330A4000030A5008E319B268F314A
:101F24007D082000A7007C08A6008F310E278F3182
:101F34002000240881000130AB002B08AE070830D4
:101F44002E02031CA62FA72F7B2F0130AB002B08DA
:101F5400B00704303002031CB02FB12F642FB1013D
:101F64003108C83E860087010330A4000030A50074
:101F74008E319B268F317D082000A7007C08A600A7
:101F84008F310E278F31200024088100AF012F08E4
:101F9400AB000230AB35890BCC2F60302B07AC0083
:101FA40031082C07AD002D0886000130870003306E
:101FB400A4000030A5008E319B268F317D082000BF
:101FC400A7007C08A6008F310E278F31200024083B
:101FD40081000130AB002B08AF0704302F02031C33
:101FE400F42FF52FC92F0130AB002B08B1070430B3
:0C1FF4003102031CFE2FFF2FB22F08004B
:020000040001F9
:08000000FF3FFF3FFF3FFF3F00
:04000E00E43FFF3E8E
:00000001FF
