:10000000803102288731D12FD03008002000A00095
:100010000130FC00200A0D28FC35890B0C287C08D7
:10002000FD007B08A03E860087017D088104080052
:100030002000A9012908CC3E860087018F312E2798
:1000400080317C0881002000A7012708A40002302D
:10005000A435890B282820302407A5002908250766
:10006000A60026088600013087008F312E278031B8
:100070007C08810001302000A4002408A707083074
:100080002702031C4428452825280130A400240801
:10009000A90704302902031C4E284F281A28AA0158
:1000A0002A08C83E860087018F312E2780317C08C0
:1000B00081002000A8012808A4000230A435890B83
:1000C0005E2860302407A5002A082507A600260818
:1000D0008600013087008F312E2780317C08810017
:1000E00001302000A4002408A80704302802031CC3
:1000F0007A287B285B280130A4002408AA07043052
:100100002A02031C84288528502808002000A70004
:10011000A30123082707FB007B08860087018101D4
:100120000130FB007B08A30708302302031C992839
:100130009A2889285F080339A4000430F2000030AF
:10014000F3005F08FB00FC017B08F4007C08F5006D
:100150008F31A127803172082000A5005E08033985
:10016000A1000430F2000030F3005E08FB00FC0147
:100170007B08F4007C08F5008F31A12780317208DC
:100180002000A2002408031DC628C728CD28270860
:10019000860087018101810AD82803302406031DC7
:1001A000D228D328D828270A860087018101810A0E
:1001B0002508031DDC28DD28E4282708023E8600E8
:1001C00087018101810AF02803302506031DE928F3
:1001D000EA28F0282708033E860087018101810A6A
:1001E000A6012608E03E8600870101085F070F3957
:1001F000A0002008D03E86008701010803190129CC
:1002000002290A2926082707FB007B0886008701A8
:100210008101810A0130FB007B08A6070430260219
:10022000031C13291429F128240821020318192971
:100230001A2921292708043E860087018101810AA5
:100240002D29210824020318262927292D292708CA
:10025000053E860087018101810A250822020318D4
:10026000322933293A292708063E86008701810171
:10027000810A46292208250203183F2940294629D8
:100280002708073E860087018101810A08002000B7
:10029000A8000130DD02AA012A08D03E86008701AD
:1002A00001080319542955295B292A08D03E8600E4
:1002B0008701013081020130A6002608AA0710300C
:1002C0002A02031C642965294C29A9010330A600D0
:1002D0002608A805BC295F080339031D7029712968
:1002E00075292000A901A903D2290130DF02D229F2
:1002F00003305F05A60003302606031D80298129EF
:10030000822971290130A6002608DF07D22904308E
:10031000F2000030F3005F08A600A7012608F400F1
:100320002708F5008F31A127813172087304031D5E
:100330009A299B299C29712904302000DF02D229A7
:100340000430F2000030F3005F08A600A701260881
:10035000F4002708F5008F31A127813103307206A0
:100360007304031DB429B529B6297129043020006E
:10037000A6002608DF07D2292808A600A70127081B
:10038000003A0319C429D2292608003A03196B2917
:10039000013A03197829033A03198729013A031905
:1003A000A029D229290A031DD629D729DB298E3174
:1003B000CB2681310B2A5F08D03E860087010108D9
:1003C0000319E329E429E729A901A903D7295F082B
:1003D0005E06031DEC29ED29052A2830DD00A90160
:1003E000A90A0130A6002608E1078F312E278131A6
:1003F0007C080F392000DE005E08D03E86008701B1
:100400000108031D042A052AF5295F08D03E86004D
:1004100087016108810020005D08031D102A112A50
:10042000162AA901A9038E31CB2681312000290883
:1004300008002000A7012708633E86008701010805
:10044000803A7F3E031C252A262A2C2A2708633E51
:10045000860087017F3081000130A4002408A707AF
:1004600008302702031C352A362A1B2AAD012D0825
:10047000513E860087012D08CC3E8400850100088E
:100480008100A8012808633E860087010108AB00AF
:10049000AC01AB1BAC032808A4000230A435890BC7
:1004A0004E2A20302407A5002D082507A60026087F
:1004B0008600013087000108A000A101A01BA10354
:1004C0002C08A3002B08A2008E315B26823120006D
:1004D0002108AC002008AB007F30F2000030F300B0
:1004E0002C08F5002B08F4008F31A1278231730806
:1004F0002000AC007208AB002B08A4002D08513E70
:1005000086008701240881070130A4002408A80779
:1005100008302802031C8D2A8E2A422A2D08593EB3
:10052000860087010230F2000030F3002D08513EB2
:100530008400850100088E31072682312000A40046
:10054000A5012408F4002508F5008F31A127823188
:100550007208810001302000A4002408AD07043097
:100560002D02031CB42AB52A372AAE012E084D3EAF
:10057000860087012E08C83E84008501000881009E
:10058000A9012908593E860087010108AB00AC018A
:10059000AB1BAC032908A4000230A435890BCD2A7B
:1005A00060302407A5002E082507A600260886002F
:1005B000013087000108A000A101A01BA1032C08A5
:1005C000A3002B08A2008E315B2682312000210877
:1005D000AC002008AB007F30F2000030F3002C08A4
:1005E000F5002B08F4008F31A12782317308200019
:1005F000AC007208AB002B08A4002E084D3E86000C
:100600008701240881070130A4002408A9070430C9
:100610002902031C0C2B0D2BC12A2E08553E8600E7
:1006200087010230F2000030F3002E084D3E8400B6
:10063000850100088E31072682312000A400A50123
:100640002408F4002508F5008F31A12782317208B3
:10065000810001302000A4002408AE0704302E02DF
:10066000031C332B342BB62AE001AA01AA0A600826
:10067000553E860087010108803AA4002A08553EAD
:10068000860087010108803AA4020318482B492BF1
:100690004B2B2A08E0000130A4002408AA070430EC
:1006A0002A02031C542B552B372B600808008D3170
:1006B000E72583318D31DA2583318E31CB268331A5
:1006C0008031182083318F316327833180310420BA
:1006D00083312000C000C501C6014608BD000130BD
:1006E000BD35FF3E031D702B3D354007BE0045085C
:1006F0003E07BF003F088600870101080319812BD0
:10070000822B892B4608FB00450880310620833167
:100710008F2B4608F00045088E31172683310130B3
:100720002000BD003D08C60704304602031C992B7B
:100730009A2B6D2B0130BD003D08C50704304502E2
:10074000031CA32BA42B6C2B8D318B258331200014
:10075000C1000430F2000030F3004108BD00BE01CA
:100760003D08F4003E08F5008F31A127833172085F
:10077000FB002000410803398031062083318E318F
:100780009D26833106302000BE001330BD00AD3001
:10079000890BC82BBD0BC82BBE0BC82B00328D316B
:1007A000892583318031862083318231192283313A
:1007B0002000C20042088131472183312000C4005B
:1007C00044088531482583312000C701C801480805
:1007D000BD000130BD35FF3E031DEA2B3D3540070E
:1007E000BE0047083E07BF003F088600870101089A
:1007F0000319FB2BFC2B032C4808FB004708803116
:1008000006208331092C4808F00047088E3117264E
:10081000833101302000BD003D08C8070430480284
:10082000031C132C142CE72B0130BD003D08C70717
:1008300004304702031C1D2C1E2CE62B0630F00052
:1008400000308E31172683310630F00002308E31B1
:10085000172683310530F00001308E3117268331A1
:100860000730F00001308E31172683310630F0005A
:1008700004308E31172683310630F00006308E3179
:10088000172683310530F00005308E31172683316D
:100890000730F00005308E3117268331F001F00A61
:1008A00004308E3117268331F001F00A06308E3184
:1008B00017268331F00105308E311726833102303F
:1008C000F00005308E311726833120006308803A0E
:1008D0007F3E031C6C2C6D2C742C0630FB0000300A
:1008E000803106208331812C6408803A7F3E031CCE
:1008F0007A2C7B2C812C0630FB00023080310620C4
:10090000833120006508803A7F3E031C882C892CA7
:10091000902C0530FB0001308031062083319D2C66
:100920006608803A7F3E031C962C972C9D2C07303E
:10093000FB00013080310620833120006708803AB7
:100940007F3E031CA42CA52CAC2C0630FB000430ED
:10095000803106208331B92C6808803A7F3E031C21
:10096000B22CB32CB92C0630FB00063080310620A7
:10097000833120006908803A7F3E031CC02CC12CC3
:10098000C82C0530FB000530803106208331F12C66
:100990006A08803A7F3E031CCE2CCF2CF12C073006
:1009A000FB000530803106208331F12CFB01FB0A6E
:1009B0000430803106208331082DFB01FB0A06300C
:1009C000803106208331082DFB010530803106205F
:1009D0008331082D0230FB00053080310620833141
:1009E000082D20004208BD00BE013E08003A031950
:1009F000FA2C082D3D08003A0319D62C013A0319A8
:100A0000DD2C033A0319E42C013A0319EA2C082DD2
:100A1000F00107308E3117268331F001F00A0730DC
:100A20008E31172683312000440A031D182D192DFD
:100A30001F2DFB0107308031062083312A2D44030E
:100A4000031D232D242D2A2DFB01FB0A07308031A5
:100A5000062083318D318B2583312000C300043083
:100A6000F2000030F3004308BD00BE013D08F40071
:100A70003E08F5008F31A12783317208FB0020006A
:100A800043080339803106208331BF2B803102288F
:100A90002000AE002E08031D4E2D4F2D502DD02FBF
:100AA0002E0A031D542D552D562DAE012E08031D63
:100AB0005A2D5B2D722DAF012F082A3E860087012B
:100AC0007F3081000130A4002408AF0704302F02DA
:100AD000031C6B2D6C2D5C2D60082A3E860087015F
:100AE0008101882DB00130082A3E860087018101EE
:100AF0000130A4002408B00704303002031C812D0B
:100B0000822D732D60082A3E860087017F30810088
:100B1000B7013708C43E8600870137082A3E8400A3
:100B200085010008A4003708553E840085010008AF
:100B3000A5002408250281000130A4002408B7077D
:100B400004303702031CA52DA62D892DB1013108D3
:100B5000B03E8600870181010130A4002408B1075E
:100B600004303102031CB52DB62DA72DBC013C0865
:100B7000C43E860087010108A000A101A01BA103BB
:100B80000230F2000030F3003C084D3E8600870141
:100B900001088D31F72585312000A400A501240826
:100BA000F4002508F5008F31A12785317308200056
:100BB000A3007208A2008E315B2685312000210837
:100BC000B6002008B5003C08493E860087017F300A
:100BD000F2000030F3003608F5003508F4008F31DC
:100BE000A12785317208810020003C08B43E8600B0
:100BF00087014030F2000030F3003C08493E840099
:100C000085010008F400F501F41BF5038F31A127DD
:100C10008531720881002000B8017F30F200003079
:100C2000F3003C08493E860087010108A000A101AD
:100C3000A01BA1033808593E860087010108A200C5
:100C4000A301A21BA3038E315B268531200021085E
:100C5000F5002008F4008F31A127853173082000AA
:100C6000B6007208B5003808A4000230A435890B1C
:100C7000362E40302407A5003C082507A60026088C
:100C80008600013087004030F2000030F300360863
:100C9000F5003508F4008F31A127853172088100F5
:100CA0007F30F2000030F30020003C08493E86000F
:100CB00087010108A000A101A01BA1033808A4001E
:100CC0000230A435890B612E60302407A5003C0852
:100CD0002507A60026088600013087000108A2002B
:100CE000A301A21BA3038E315B26853120002108BE
:100CF000F5002008F4008F31A1278531720820000B
:100D0000A7003808B03E8600870127088107013018
:100D1000A4002408B80704303802031C902E912E3A
:100D20000D2E0130A4002408BC0704303C02031C33
:100D30009A2E9B2EB72DBB013B08B03E8600870143
:100D40000108A000A101A01BA1030230F2000030A5
:100D5000F3003B08513E8600870101088D31F725DD
:100D600085312000A400A5012408F4002508F50021
:100D70008F31A127853173082000A3007208A200DB
:100D80008E315B26853120002108B6002008B50091
:100D90003B08AC3E860087017F30F2000030F30054
:100DA0003608F5003508F4008F31A1278531720827
:100DB000810020003B08A83E860087014030F200F9
:100DC0000030F3003B08AC3E840085010008F400CD
:100DD000F501F41BF5038F31A127853172088100DD
:100DE0002000B2017F30F2000030F3003B08493EA2
:100DF000860087010108A000A101A01BA103320801
:100E0000633E860087010108A200A301A21BA30381
:100E10008E315B26853120002108F5002008F40082
:100E20008F31A127853173082000B6007208B50004
:100E30003208A4000230A435890B1B2F4030240750
:100E4000A5003B082507A60026088600013087007C
:100E50004030F2000030F3003608F5003508F400A9
:100E60008F31A12785317208810001302000A40054
:100E70002408B20708303202031C3F2F402FF22E05
:100E80000130A4002408BB0704303B02031C492F97
:100E90004A2F9C2EB9013908B43E860087013908D3
:100EA000C83E8400850101088002B3013308A40014
:100EB0000230A435890B592F40302407A50039088A
:100EC0002507A60026088600013087003308A70002
:100ED0000230A735890B692F60302707A800390831
:100EE0002807A90029088400013085000108800234
:100EF0000130A4002408B30704303302031C812FFF
:100F0000822F562F0130A4002408B907043039027B
:100F1000031C8B2F8C2F4B2FBA013A08A83E86005A
:100F200087013A08CC3E8400850101088002B401A3
:100F300008303402031C9D2F9E2F9F2FC62F34088C
:100F4000A4000230A435890BA22FA0302407A500ED
:100F50003A082507A60026088600013087003408D5
:100F6000A7000230A735890BB22F20302707A80031
:100F70003A082807A90029088400013085000108E3
:100F800080020130A4002408B407982F0130A40087
:100F90002408BA0704303A02031CCF2FD02F8D2F1C
:100FA0000800BC3084008D308500E03086000030C1
:100FB000870008308D31AF258731493084000030FB
:100FC000850026308D31A9258731A030840000307E
:100FD000850040308D31A9258731203084000130D3
:100FE000850050308D31A9258731A0308400013033
:100FF000850040308D31A925873120008331572B62
:10100000403432341B340C3405340234013400349F
:10101000003400340134023405340C341B343234CF
:101020008034BA34E134F334FA34FD34FE34FF341E
:10103000003400340134023405340C341E34453499
:08104000023440340134003495
:101B12006330080020005E0808001630210097009C
:101B22000800F000700824009100080071082100EC
:101B3200E9007008E800080071082100ED00700853
:101B4200EC00080071082100EB007008EA000800B0
:101B5200640080010131890BAA2D0034FE001200BD
:101B62001E00FE0BB02D0034703021009900980148
:101B72002200960108000B340F3403340434053478
:101B820001340D340C347008FF3E2000EB00FF30AE
:101B9200713DEC00ED01EE0108004030240094009C
:101BA200023095000130920021000D12240095129E
:101BB200080022008C118C1321000C148C140C15BB
:101BC2008C110C168C130D148D1508008D31CE2539
:101BD2008D318E3129268D318D31B5258D318D3165
:101BE2008E258D318E317B268D310800F1007108F2
:101BF200F0000430F036890BFB2D7008003E8400A3
:101C020088300318013E850000080800F1007108C1
:101C1200F0000430F036890B0B2E7008103E840061
:101C220088300318013E850000080800F3000130E7
:101C3200F100730A1D2EF135890B1C2E7108FF3A33
:101C4200F2007008A03E8600870172088105080034
:101C520022008C018D01373021008C00EF308D0085
:101C6200C83023008D001F308C0024008D018C01B0
:101C720021009517C03022009D0001309E0008000F
:101C8200F20022008D1072088D3192258E312000D3
:101C9200911D4C2E4D2E482E911171088D31922599
:101CA2008E312000911D562E572E522E9111220058
:101CB2008D140800FB01FC012000201C612E622E05
:101CC200662E2208FB072308FC3D0130A235A30D36
:101CD200890B672E0130A136A00C890B6C2E2008CF
:101CE2002104031D752E762E5D2E7C08A1007B0833
:101CF200A0000800083023009F0090309D0024308F
:101D02009E0067309B009C010030F0000030F10023
:101D12008D319D258E310030F0000030F1008D3183
:101D2200A3258E310030F0000030F1008D3197256F
:101D32008E312000E2010800F7017708A03E8600FC
:101D420087010108F400F501F6010310F50D74088E
:101D52000139F3007308F5040310F40C0130F300A9
:101D62007308F60708307602031CB82EB92EA62E89
:101D72007508F1007708013E8E3141268E3101301F
:101D8200F3007308F70708307702031CC92ECA2E26
:101D92009E2E08002000A5012508D03E860087015E
:101DA20081010130A4002408A50710302502031C7C
:101DB200DB2EDC2ECD2E0030F000F1008D31C4255B
:101DC2008E318F312E278E317C080F392000DF00B3
:101DD2008F312E278E317C080F392000DE00033030
:101DE200E1002830DD005F08D03E860087016108EF
:101DF200810008000030FB000030FA000030F900DA
:101E02000030F800701C062F072F0F2F7408F807F8
:101E12007508F93D7608FA3D7708FB3D0130F43547
:101E2200F50DF60DF70D890B102F0130F336F20C7C
:101E3200F10CF00C890B172F7308720471047004F3
:101E4200031D242F252F032F7B08F3007A08F200AD
:101E52007908F1007808F000080020006E08F3000D
:101E62006D08F2006C08F1006B08F0004C30F700CE
:101E72009530F6007F30F5002D30F4008E31FB26D0
:101E82008F31013070072000EB000030713DEC0013
:101E92000030723DED000030733DEE006B08A00093
:101EA2006C08A1006D08A2006E08A3001130A336D1
:101EB200A20CA10CA00C890B582F2108FD002008B0
:101EC200FC00080022008D1421008D1024009516BC
:101ED200F10109308E3141268F31F1010A308E3104
:101EE20041268F31F1010C308E3141268F3107307E
:101EF200F1000B308E3141268F31F101F10A0C30A5
:101F02008E3141268F31F101F10A0F308E31412697
:101F12008F310B30F4002630F3005E30890B8F2FA7
:101F2200F30B8F2FF40B8F2FF1010F308E314126DF
:101F32008F31F101F10A0C308E3141268F310800C8
:101F4200F801F31FA52FA62FAD2FF209F309F20A0C
:101F52000319F30AF801F80AF51FB02FB12FBA2FAF
:101F6200F409F509F40A0319F50A0130F6007608B6
:101F7200F806F901FA01720873040319C12FC22F7E
:101F8200F12FF701F70ACE2F0130F235F30D890B4D
:101F9200C62F0130F6007608F707F31FD12FD22F94
:101FA200C52F0130F935FA0D890BD32F730875024D
:101FB200031DDD2F72087402031CE02FE12FE62FB0
:101FC2007208F4027308F53B79140130F336F20C0F
:101FD200890BE72F0130F702031DF02FF12FD22FCB
:101FE20078080319F52FF62FFB2FF909FA09F90AD8
:0E1FF2000319FA0A7A08F3007908F2000800D1
:020000040001F9
:08000000FF3FFF3FFF3FFF3F00
:04000E00E43FFF3E8E
:00000001FF
