:10000000803102288731D92FC830080022008C1196
:100010008C1321000C148C140C158C110C168C13E1
:100020000D148D1508000030FB000030FA00003080
:10003000F9000030F800701C1E281F2827287408BB
:10004000F8077508F93D7608FA3D7708FB3D013061
:10005000F435F50DF60DF70D890B28280130F33630
:10006000F20CF10CF00C890B2F2873087204710448
:100070007004031D3C283D281B287B08F3007A08E8
:10008000F2007908F1007808F000080020006C0800
:10009000F3006B08F2006A08F1006908F0004C30C8
:1000A000F7009530F6007F30F5002D30F4008031F8
:1000B00013208031013070072000E9000030713DCD
:1000C000EA000030723DEB000030733DEC0069083F
:1000D000A0006A08A1006B08A2006C08A300113000
:1000E000A336A20CA10CA00C890B70282108FD00DE
:1000F0002008FC0008002000A5012508C83E860055
:10010000870181010130A4002408A50710302502D1
:10011000031C8B288C287D288031462080317C0868
:1001200003392000A4000130A435FF3E031D9428AC
:100130002435E5008031462080317C0803392000D9
:10014000A4000130A435FF3E031DA2282435E4009D
:10015000E701E70A2830E3006508C83E860087010A
:1001600067088100080022008D1421008D102400F2
:100170009516F10109308F3177278031F1010A306E
:100180008F3177278031F1010C308F317727803123
:100190000730F1000B308F3177278031F101F10A00
:1001A0000C308F3177278031F101F10A0F308F3118
:1001B000772780310B30F4002630F3005E30890B56
:1001C000DF28F30BDF28F40BDF28F1010F308F312C
:1001D00077278031F101F10A0C308F317727803198
:1001E00008002000A101F71FF628F728FE28F609CD
:1001F000F709F60A0319F70AA101A10AF91F012953
:1002000002290B29F809F909F80A0319F90A01303A
:10021000FA007A08A106A201A3017608770403195F
:10022000122913294229A001A00A1F290130F635FD
:10023000F70D890B17290130FA007A08A007F71F7C
:100240002229232916290130A235A30D890B24293F
:1002500077087902031D2E2976087802031C3129BC
:10026000322937297608F8027708F93B2214013041
:10027000F736F60C890B38290130A002031D4129FD
:100280004229232921080319462947294C29A20973
:10029000A309A20A0319A30A2308F7002208F600FB
:1002A00008002000A9012908573E860087018031F7
:1002B000462081317C0881002000A7012708A40086
:1002C0000230A435890B612940302407A500290894
:1002D0002507A600260886000130870080314620C9
:1002E00081317C08810001302000A4002408A70788
:1002F00008302702031C7D297E295E290130A400D5
:100300002408A90704302902031C872988295329B6
:10031000AA012A08533E8600870180314620813198
:100320007C0881002000A8012808A4000230A43520
:10033000890B9729A0302407A5002A082507A600C5
:100340002608860087018031462081317C088100A3
:1003500001302000A4002408A80704302802031C50
:10036000B229B32994290130A4002408AA07043033
:100370002A02031CBC29BD29892908002000AB00E2
:10038000A70127082B07FB007B0886008701810156
:100390000130FB007B08A70708302702031CD12986
:1003A000D229C12965080339A8000430F6000030BD
:1003B000F7006508FB00FC017B08F8007C08F900E9
:1003C0008031F120813176082000A90064080339CA
:1003D000A5000430F6000030F7006408FB00FC01C3
:1003E0007B08F8007C08F9008031F1208131760823
:1003F0002000A6002808031DFE29FF29052A2B0836
:10040000860087018101810A102A07302806031D12
:100410000A2A0B2A102A2B0A860087018101810AE9
:100420002908031D142A152A1C2A2B08023E8600BF
:1004300087018101810A282A07302906031D212A04
:10044000222A282A2B08033E860087018101810A7F
:10045000AA012A08E03E86008701010865070339E2
:10046000FB000130FB35FF3E031D322A7B35A40023
:100470002408C83E8600870101080319402A412A42
:10048000492A2A082B07FB007B0886008701810187
:10049000810A0130FB007B08AA0704302A02031CF2
:1004A000522A532A292A280825020318582A592A89
:1004B000602A2B08043E860087018101810A6C2A8C
:1004C000250828020318652A662A6C2A2B08053E8F
:1004D000860087018101810A290826020318712AF2
:1004E000722A792A2B08063E860087018101810A3B
:1004F000852A2608290203187E2A7F2A852A2B08A6
:10050000073E860087018101810A08008F310B2791
:10051000823180310620823180317B2082318131ED
:10052000512182318031B3208231803104208231E7
:100530002000C400C701C8014808C1000130C1350E
:10054000FF3E031D9F2A41354407C200470842076A
:10055000C30043088600870101080319B02AB12AA5
:10056000B82A4808A40047088F314D278231BE2A97
:100570004808F00047088F313B27823101302000C6
:10058000C1004108C80704304802031CC82AC92A10
:100590009C2A0130C1004108C70704304702031CF0
:1005A000D22AD32A9B2A8E31C62682312000C5004A
:1005B0000430F6000030F7004508C100C2014108D0
:1005C000F8004208F9008031F120823176082000DD
:1005D000A400450803398F314D2782318F31D2274E
:1005E00082318E31C42682318131BE218231843103
:1005F0003124823183315823823185314E25823135
:100600002000C901CA014A08C1000130C135FF3EBE
:10061000031D062B41354407C20049084207C300A9
:1006200043088600870101080319172B182B1F2B7D
:100630004A08A40049088F314D278231252B4A08EA
:10064000F00049088F313B27823101302000C10082
:100650004108CA0704304A02031C2F2B302B032BFE
:100660000130C1004108C90704304902031C392B7D
:100670003A2B022B8E31C62682312000C600043070
:10068000F6000030F7004608C100C2014108F8003A
:100690004208F9008031F120823176082000A40060
:1006A000460803398F314D278231EE2A80310228E6
:1006B0002000A8000130E302AA012A08C83E8600F3
:1006C000870101080319652B662B6C2B2A08C83E8D
:1006D00086008701013081020130A6002608AA07A2
:1006E00010302A02031C752B762B5D2BA9010330D9
:1006F000A6002608A805CD2B65080339031D812B0C
:10070000822B862B2000A901A903E32B0130E502EF
:10071000E32B03306505A60007302606031D912B49
:10072000922B932B822B0130A6002608E507E32BA2
:100730000430F6000030F7006508A600A70126087F
:10074000F8002708F9008031F1208331760877041A
:10075000031DAB2BAC2BAD2B822B08302000E50208
:10076000E32B0430F6000030F7006508A600A7016F
:100770002608F8002708F9008031F120833107307E
:1007800076067704031DC52BC62BC72B822B08309A
:100790002000A6002608E507E32B2808A600A701ED
:1007A0002708003A0319D52BE32B2608003A031932
:1007B0007C2B013A0319892B033A0319982B013A30
:1007C0000319B12BE32B290A031DE72BE82BEC2B94
:1007D00080317B208331232C6508C83E8600870149
:1007E00001080319F42BF52BF82BA901A903E82B19
:1007F00065086406031DFD2BFE2B1D2C2830E3002D
:10080000A901A90A0130A6002608E7078031462081
:1008100083317C0803392000A6000130A635FF3E55
:10082000031D0E2C2635E4006408C83E86008701AF
:100830000108031D1C2C1D2C062C6508C83E8600D3
:1008400087016708810020006308031D282C292CDC
:100850002E2CA901A90380317B2083312000290897
:1008600008002000A4012408D83E86008701010862
:1008700003193B2C3C2C422C2408D83E86008701CF
:10088000FF3081000130FB007B08A4070830240200
:10089000031C4B2C4C2C332CAA012A084F3E8600FB
:1008A00087012A08573E8400850100088100A501C0
:1008B0002508D83E860087010108FB00FC017B0863
:1008C000A8007C08A9002508FB000230FB35890B35
:1008D000662C40307B07FC002A087C07FD007D0861
:1008E0008600013087000108F000F101F01BF103E0
:1008F0002908F3002808F2008F319127843171080C
:100900002000A9007008A800FF30F6000030F700B2
:100910002908F9002808F8008031F120843177088F
:100920002000A9007608A8002808FB002A084F3EEE
:10093000860087017B0881070130FB007B08A50743
:1009400008302502031CA52CA62C582C2A085F3E33
:10095000860087012A084F3E8400850100088F31F8
:100960002B27843181000130FB007B082000AA077F
:1009700004302A02031CBD2CBE2C4D2CAB012B08CD
:100980004B3E860087012B08533E840085010008FA
:100990008100A60126085F3E860087010108FB0052
:1009A000FC017B08A8007C08A9002608FB00023097
:1009B000FB35890BD82CA0307B07FC002B087C076B
:1009C000FD007D08860087010108F000F101F01BA1
:1009D000F1032908F3002808F2008F3191278431B0
:1009E00071082000A9007008A800FF30F600003050
:1009F000F7002908F9002808F8008031F120843137
:100A000077082000A9007608A8002808FB002B081A
:100A10004B3E860087017B0881070130FB007B0885
:100A2000A60704302602031C162D172DCA2C2B08EE
:100A30005B3E860087012B084B3E84008501000841
:100A40008F312B27843181000130FB007B0820008F
:100A5000AB0704302B02031C2E2D2F2DBF2CE601DB
:100A6000A701A70A66085B3E8600870127085B3E50
:100A7000840085010008010203183F2D402D422DFE
:100A80002708E6000130FB007B08A7070430270297
:100A9000031C4B2D4C2D322D660808002000B000A1
:100AA0003008031D542D552D562DD82F300A031D07
:100AB0005A2D5B2D5C2DB0013008031D602D612D7A
:100AC000782DB10131082C3E86008701FF3081006E
:100AD0000130A4002408B10704303102031C712D39
:100AE000722D622D66082C3E8600870181018E2DB5
:100AF000B20132082C3E8600870181010130A4003A
:100B00002408B20704303202031C872D882D792D6A
:100B100066082C3E86008701FF308100B801380846
:100B2000C03E8600870181013808BC3E86008701EF
:100B30008101B3013308A4000230A435890B9D2D37
:100B400020302407A50038082507A60026088600BF
:100B50000130870081010130A4002408B307083068
:100B60003302031CB42DB52D9A2D0130A4002408A6
:100B7000B80704303802031CBE2DBF2D8F2DBD01D8
:100B80003D08C43E860087013D085B3E8400850128
:100B90000008A400A5013D082C3E8400850125081D
:100BA000A70000082402A600031CA703270DA70C1A
:100BB000A60C260881003D08B83E86008701810109
:100BC000B4013408A4000230A435890BE42D603050
:100BD0002407A5003D082507A60026088600013049
:100BE000870081010130A4002408B40704303402D6
:100BF000031CFB2DFC2DE12D0130A4002408BD07B2
:100C000004303D02031C052E062EC02DBE013E08F9
:100C10004B3E8600870101088F311B27853120005C
:100C2000A400A5012408BF002508C0003E08C43E5A
:100C3000860087010108F000F101F01BF103400874
:100C4000F3003F08F2008F319127853171082000B1
:100C5000C0007008BF00FF30F6000030F700400809
:100C6000F9003F08F8008031F12085317708200035
:100C7000C0007608BF003F08A4003E08B83E8600CA
:100C8000870124088107B9017F30F6000030F700A2
:100C90003908A4000230A435890B4B2EA03024075C
:100CA000A5003E082507A600260886008701010842
:100CB000F000F101F01BF1034008F3003F08F200DF
:100CC0008F31912785317108F9007008F800803163
:100CD000F120853176082000A7003908C03E860043
:100CE0008701270881077F30F6000030F7003908B8
:100CF0005F3E860087010108A400A5012408F000DA
:100D00002508F1004008F3003F08F2008F319127D9
:100D100085317108F9007008F8008031F1208531C3
:100D200076082000A6007708A700270DA70CA60CC0
:100D30002608A8003908A9000230A935890B9D2E84
:100D400060302907AA003E082A07AB002B0886005E
:100D500001308700280881070130A4002408B90762
:100D600004303902031CB52EB62E442E0130A400E7
:100D70002408BE0704303E02031CBF2EC02E072EDF
:100D8000BA013A084F3E8600870101088F311B27C0
:100D900085312000A400A5012408BF002508C0005B
:100DA0003A08C03E860087010108F000F101F01BFF
:100DB000F1034008F3003F08F2008F31912785319D
:100DC00071082000C0007008BF00FF30F60000303E
:100DD000F7004008F9003F08F8008031F120853124
:100DE00077082000C0007608BF003F08A4003A083A
:100DF000BC3E8600870124088107B5010830350212
:100E0000031C032F042F052F432F7F30F6000030E3
:100E1000F7003508D83E860087010108A400A50127
:100E20002408F0002508F1004008F3003F08F20014
:100E30008F31912785317108F9007008F8008031F1
:100E4000F120853176082000A6007708A700270D3D
:100E5000A70CA60C2608A8003508A9000230A93561
:100E6000890B2F2F20302907AA003A082A07AB0048
:100E70002B08860001308700280881070130A40074
:100E80002408B507FE2E0130A4002408BA07043058
:100E90003A02031C4C2F4D2FC12EBB0104303B02E4
:100EA000031C532F542F552F922F3B08B83E86001A
:100EB00087013B08533E8400850101088002B6018A
:100EC00004303602031C652F662F672F8D2F3608DE
:100ED000A4000230A435890B6A2F60302407A500D6
:100EE0003B082507A6002608860001308700360843
:100EF000A7000230A735890B7A2FA0302707A8005A
:100F00003B082807A9002908840085010108800200
:100F10000130A4002408B607602F0130A400240883
:100F2000BB074E2FBC0104303C02031C982F992FA5
:100F30009A2FD82F3C08BC3E860087013C08573EBC
:100F40008400850101088002B70108303702031CC4
:100F5000AA2FAB2FAC2FD32F3708A4000230A43513
:100F6000890BAF2F20302407A5003C082507A600D9
:100F700026088600013087003708A7000230A73511
:100F8000890BBF2F40302707A8003C082807A9007D
:100F90002908840001308500010880020130A40086
:100FA0002408B707A52F0130A4002408BC07932FFD
:100FB0000800F73084008E308500E0308600003075
:100FC000870008308E31EA2687314B3084000030AC
:100FD000850022308E31E4268731A0308400003035
:100FE000850040308E31E426873120308400013086
:100FF000850050308E31E426873120008231862AE8
:10100000403432341B340C3405340234013400349F
:10101000003400340134023405340C341B343234CF
:101020008034BA34E134F334FA34FD34FE34FF341E
:10103000003400340134023405340C341E34453499
:08104000023440340134003495
:101D8800D8300800200064080800163021009700A9
:101D98000800F00070082400910008007108210074
:101DA800E9007008E800080071082000EE007008DB
:101DB800ED00080071082100EB007008EA00080037
:101DC800640080010131890BE52E0034FE00120009
:101DD8001E00FE0BEB2E0034703021009900980194
:101DE8002200960108000B340F3403340434053400
:101DF80001340D340C344030240094000230950036
:101E08000130920021000D122400951208008E3135
:101E1800FF268F318F315F278F318E31F0268F313A
:101E28008E31C9268F318F31B0278F310800F100EC
:101E38007108F0000430F036890B1F2F7008003E3F
:101E4800840088300318013E850000080800F1006E
:101E58007108F0000430F036890B2F2F7008103EFF
:101E6800840088300318013E850000080800F3004C
:101E78000130F100730A412FF135890B402F7108A9
:101E8800FF3AF2007008B03E8600870172088105AB
:101E98000800FD000130FB007D0A532FFB35890B3C
:101EA800522F7B08FC0020002408B03E86008701E2
:101EB8007C088104080022008C018D013730210044
:101EC8008C00EF308D00C83023008D001F308C004F
:101ED80024008D018C0121009517C03022009D003F
:101EE80001309E000800F20022008D1072088E3129
:101EF800CD268F312000911D822F832F7E2F9111A7
:101F080071088E31CD268F312000911D8C2F8D2F99
:101F1800882F911122008D140800F401F501701C1E
:101F2800962F972F9B2F7208F4077308F53D013001
:101F3800F235F30D890B9C2F0130F136F00C890B2B
:101F4800A12F70087104031DAA2FAB2F932F7508BA
:101F5800F1007408F0000800083023009F0090305A
:101F68009D0024309E0067309B009C010030F000EB
:101F78000030F1008E31D8268F310030F00000306B
:101F8800F1008E31DE268F310030F0000030F10094
:101F98008E31D2268F312000E8010800F70177083A
:101FA800B03E860087010108F400F501F601031030
:101FB800F50D74080139F3007308F5040310F40CE7
:101FC8000130F3007308F60708307602031CED2F82
:101FD800EE2FDB2F7508F1007708013E8F31772748
:101FE8008F310130F3007308F70708307702031CBC
:081FF800FE2FFF2FD32F08007C
:020000040001F9
:08000000FF3FFF3FFF3FFF3F00
:04000E00E43FFF3E8E
:00000001FF
