:10000000803102288731B42F71082000EC0070087D
:10001000EB000800F3006400230095181028112855
:100020000B287308F000F10170089100710892002C
:100030003F30F20072089505151413080800F3000C
:10004000F201731C2428252829287008F100710862
:10005000F2070310F00D0310F30C7308031D312891
:10006000322821287208080022008C018D013730C7
:1000700021008C00EF308D00C83023008D001F3030
:100080008C0024008D018C0121009517C0302200C6
:100090009D0001309E000800F20022008D107208C1
:1000A0008F310D2780312000911D57285828532863
:1000B000911171088F310D2780312000911D612829
:1000C00062285D28911122008D140800FB01FC01BB
:1000D000771C6B286C2870287908FB077A08FC3D90
:1000E0000130F935FA0D890B71280130F836F70C1B
:1000F000890B762877087804031D7F2880286828D4
:100100007C08F8007B08F7000800083023009F00F7
:1001100090309D0024309E0067309B009C01003091
:10012000F0000030F1008F31182780310030F000EE
:100130000030F1008031042080310030F0000030C8
:10014000F1008F31122780312000E20108002000E9
:10015000A5012508A03E8600870181010130A40089
:100160002408A50740302502031CB728B828A92871
:1001700081315A2180317C083F392000E0008131F3
:100180005A2180317C083F392000DF00E101E10A7B
:100190006008A03E86008701610881000800F70022
:1001A00023009518D428D528D0287708F500F60123
:1001B0007508910076089200740893003F30F500AE
:1001C00075089505200003108B1FE728E828E9280B
:1001D00003148B132300151555309600AA30960092
:1001E000951415112000031CF628F728F8288B1702
:1001F0000800F7017708523E860087010108F400E5
:10020000F501F6010310F50D74080139F3007308C8
:10021000F5040310F40C0130F3007308F6070830FE
:100220007602031C1429152902297508F1007708A4
:10023000013E80314C2080310130F3007308F70714
:1002400008307702031C25292629FA2808000030E7
:10025000FB000030FA000030F9000030F800701C9C
:10026000322933293B297408F8077508F93D7608C7
:10027000FA3D7708FB3D0130F435F50DF60DF70D2D
:10028000890B3C290130F336F20CF10CF00C890B90
:1002900043297308720471047004031D5029512905
:1002A0002F297B08F3007A08F2007908F10078081A
:1002B000F000080020006608F3006508F2006408FA
:1002C000F1006308F0004C30F7009530F6007F3005
:1002D000F5002D30F4008131272181310130700784
:1002E0002000E3000030713DE4000030723DE50085
:1002F0000030733DE6006308A0006408A1006508B3
:10030000A2006608A3001130A336A20CA10CA00C19
:10031000890B84292108FD002008FC000800220028
:100320008D1421008D1024009516F10109308031C3
:100330004C208131F1010A3080314C208131F101B2
:100340000C3080314C2081310730F1000B3080318E
:100350004C208131F101F10A0C3080314C20813187
:10036000F101F10A0F3080314C2081310B30F40063
:100370002630F3005E30890BBB29F30BBB29F40B4D
:10038000BB29F1010F3080314C208131F101F10A9C
:100390000C3080314C2081310800F601F11FD12949
:1003A000D229D929F009F109F00A0319F10AF60155
:1003B000F60AF31FDC29DD29E629F209F309F20A1E
:1003C0000319F30A0130F4007408F606F701F80186
:1003D000700871040319ED29EE291D2AF501F50AAB
:1003E000FA290130F035F10D890BF2290130F400C2
:1003F0007408F507F11FFD29FE29F1290130F735B1
:10040000F80D890BFF2971087302031D092A700872
:100410007202031C0C2A0D2A122A7008F2027108BB
:10042000F33B77140130F136F00C890B132A0130BD
:10043000F502031D1C2A1D2AFE2976080319212A0C
:10044000222A272AF709F809F70A0319F80A78086F
:10045000F1007708F00008002000A800AA012A088F
:10046000A03E8600870101080319372A382A3E2A50
:100470002A08A03E86008701013081020130A600D3
:100480002608AA0740302A02031C472A482A2F2A96
:10049000A9010330A6002608A8058A2A60080739A2
:1004A000031D532A542A572AA901A903A02A01305F
:1004B000E002A02A07306005A60007302606031DCB
:1004C000622A632A642A542A0130A6002608E0071B
:1004D000A02A6008A6000330A636890B6C2A2608DD
:1004E000031D732A742A752A542A0830E002A02AB0
:1004F0006008A6000330A636890B7B2A0730260643
:10050000031D832A842A852A542A0830A600260837
:10051000E007A02A2808A600A7012708003A031927
:10052000922AA02A2608003A03194E2A013A0319F2
:100530005A2A033A0319692A013A0319782AA02A88
:10054000290A031DA42AA52AA92A8031A7208231BD
:10055000D72A6008A03E8600870101080319B12A46
:10056000B22AB52AA901A903A52A60085F06031DBE
:10057000BA2ABB2AD12AA901A90A0130A600260855
:10058000E10781315A2182317C081F392000DF00C8
:100590005F08A03E860087010108031DD02AD12AEA
:1005A000C12A6008A03E8600870161088100200002
:1005B00029080800F400F20172087407F0007008BE
:1005C0008600870181010130F0007008F2071030C9
:1005D0007202031CEC2AED2ADC2A2000600807398D
:1005E000031DF32AF42A052B740886008701810174
:1005F000810A740A860087018101810A7408023E1B
:10060000860087018101810A202B07306005F000F8
:1006100007307006031D0D2B0E2B202B7408043E93
:10062000860087018101810A7408053E86008701E2
:100630008101810A7408063E860087018101810AD2
:100640006008F0000330F036890B232B7008031D7F
:100650002A2B2B2B3D2B7408063E86008701810137
:10066000810A7408073E860087018101810A7408A7
:10067000860087018101810A5B2B6008F00003304E
:10068000F036890B402B07307006031D482B492B91
:100690005B2B7408023E860087018101810A740881
:1006A000033E860087018101810A7408043E8600AA
:1006B00087018101810AF3017308673E86000130DA
:1006C0008700010860073F39F10071085F06031DCC
:1006D0006A2B6B2B742B73087407F0007008083EAC
:1006E000860087018101810A7108A03E860087018A
:1006F000010803197C2B7D2B852B73087407F000F0
:100700007008860087018101810A0130F0007008BD
:10071000F30708307302031C8E2B8F2B5C2B080011
:100720008F319C2783318F31722783318031A7200D
:10073000833181318F2183318F3104278331200030
:10074000C300C601C7014708C0000230C035FF3EE4
:10075000031DA62B40354307C10046084107C200D0
:1007600042088600870101080319B72BB82BBF2B5D
:100770004708F00046088F31DD278331C52B470835
:10078000F00046088F31EE27833101302000C00091
:100790004008C70708304702031CCF2BD02BA32BE0
:1007A0000130C0004008C60708304602031CD92BA0
:1007B000DA2BA22B8F31062783312000C400440896
:1007C000C0000330C036890BE22B4008F00044081B
:1007D00003398F31DD2783318031F92083310230B5
:1007E0002000C1000430C000BA30890BF52BC00BCB
:1007F000F52BC10BF52B00008F310227833182319D
:10080000DA22833184315D24833182312C22833199
:100810008531642583312000C801C9014908C00021
:100820000230C035FF3E031D112C40354307C10087
:1008300048084107C20042088600870101080319E1
:10084000222C232C2A2C4908F00048088F31DD2760
:100850008331302C4908F00048088F31EE2783316E
:1008600001302000C0004008C90708304902031CBD
:100870003A2C3B2C0E2C0130C0004008C807083031
:100880004802031C442C452C0D2C8F310627833144
:100890002000C5004508C0000330C036890B4D2C30
:1008A0004008F000450803398F31DD27833180315E
:1008B000F9208331EF2B803102282000A70127087F
:1008C0008F312C2784312000A000A101A01BA1039F
:1008D00027354A3E8600013087002008C03F2108A6
:1008E000C13FA2012208E03E860087010108A00066
:1008F000A1012008A5002108A6002708F40022086D
:100900008F317F278431F700F801F71BF8032000AF
:100910002608FA002508F90080316620843178081D
:100920002000A6007708A500FF30F0000030F1009D
:100930002608F3002508F2008131CD2184317108A9
:100940002000A6007008A50027354A3E8600013029
:1009500087002508810741312608813D7F3101301C
:10096000A0002008A20710302202031CB82CB92CCA
:10097000722C2708603E86000130870027354A3EEA
:1009800084000130850000088F31BC27843181004C
:1009900001302000A0002008A70707302702031C11
:1009A000D22CD32C5F2CA80128088F312527843125
:1009B0002000A000A101A01BA10328354A3E86000B
:1009C00087012008C03F2108C13FA3012308603EE2
:1009D0008600013087000108A000A1012008A500C1
:1009E0002108A6002808F40023088F3165278431E8
:1009F000F700F801F71BF80320002608FA00250885
:100A0000F90080316620843178082000A60077083C
:100A1000A500FF30F0000030F1002608F3002508A3
:100A2000F2008131CD21843171082000A6007008C8
:100A3000A50028354A3E86008701250881074131F7
:100A40002608813D7F310130A0002008A307073030
:100A50002302031C2C2D2D2DE62C2808673E860032
:100A6000870128354A3E8400850100088F31BC2764
:100A70008431810001302000A0002008A807043044
:100A80002802031C442D452DD42CDE01A401A40A08
:100A90005E08673E860087012408673E8400850162
:100AA000000801020318552D562D582D2408DE008C
:100AB0000130A0002008A40704302402031C612D8B
:100AC000622D482D5E0808002000B0003008031D8C
:100AD0006A2D6B2D6C2DB32F300A031D702D712DD7
:100AE000722DB001B6013608A03E860001308700A5
:100AF0008101B1013608A300A4013108A500A601B7
:100B00002508F7002608F8000730F9000030FA0041
:100B100080316620853100302000A7002130A800F8
:100B200077082707A9007808283DAA002308290785
:100B3000860024082A3D870081010130A300230894
:100B4000B10710303102031CA62DA72D7A2D0130DC
:100B5000A3002308B60707303602031CB02DB12DC1
:100B6000732DB70137085A3E860087018101B20113
:100B70003208A3000230A335890BBB2D2030230798
:100B8000A40037082407A500250886000130870047
:100B900081010130A3002308B20707303202031C91
:100BA000D22DD32DB82D0130A3002308B707043070
:100BB0003702031CDC2DDD2DB22D3008031DE12D85
:100BC000E22DF92DB30133082C3E86008701810107
:100BD000810A0130A3002308B30704303302031C49
:100BE000F22DF32DE32D5E082C3E86008701810156
:100BF0000F2EB40134082C3E86008701810101309C
:100C0000A3002308B40704303402031C082E092E65
:100C1000FA2D5E082C3E860087018101810ABF0102
:100C20003F082C3E860087013F08673E840085010F
:100C30000008A300A4012408A60001082302A500BF
:100C4000031CA603A535A60D3F35583E860001308E
:100C500087002508C03F2608C13F3F354A3E860031
:100C6000870101088F31AC2785312000B800380892
:100C7000F0003F35583E8600013087000108803182
:100C80001F2085312000A3003F085A3E86008701BF
:100C900023088107B9013808A300A4012308F7003D
:100CA0002408F8003F08F40039088F3165278531A2
:100CB000F900FA01F91BFA03803166208531200022
:100CC00039353C3E8600013087007708C03F780800
:100CD000C13F3808F0003F35583E8600013087009C
:100CE000010880311F2085312000A3003908A400AD
:100CF0000230A435890B792E20302407A5003F0847
:100D00002507A600260886000130870023088107F2
:100D10000130A3002308B90707303902031C912EC4
:100D2000922E4B2EBC013C354A3E86000130870096
:100D300001088F31AC2785312000B8003808F00059
:100D40003C353C3E860001308700010880311F2081
:100D500085312000A3003C08A03E860001308700BA
:100D600023088107B50110303502031CB82EB92EB7
:100D7000BA2EF02E3808F0003C353C3E860001309B
:100D80008700010880311F2085312000A3003C0826
:100D9000A400A5013508A600A7012608F70027082A
:100DA000F8000730F9000030FA0080316620853104
:100DB00000302000A8002130A90077082807AA00E9
:100DC0007808293DAB0024082A07860025082B3D1A
:100DD0008700230881070130A3002308B507B32E3D
:100DE0000130A3002308BC0707303C02031CF92E86
:100DF000FA2E932E0130A3002308BF0704303F02D0
:100E0000031C032F042F102EBD0104303D02031CD0
:100E10000A2F0B2F0C2F522F3D085A3E86008701B8
:100E20003D088F31252785312000A30001082302CA
:100E3000F8003D088F31442785312000BA01073082
:100E40003A02031C242F252F262F4D2F3D08F80092
:100E50003A08A3000230A335890B2B2F203023073B
:100E6000A4003D082407A50025088600013087005E
:100E70003D08F4003A088F31652785312000A6002F
:100E800001082602F9003A088F318D27853101309B
:100E90002000A3002308BA071F2F0130A300230856
:100EA000BD07052FBE0107303E02031C582F592FE6
:100EB0005A2FB32F3E08A03E8600013087003E081F
:100EC0008F31252785312000A30001082302F80077
:100ED0003E088F313B2785312000BB0110303B029B
:100EE000031C732F742F752FAE2F3E08A0003E08F1
:100EF000A300A4013B08A500A6012508F7002608C9
:100F0000F8000730F9000030FA00803166208531A2
:100F100000302000A7002130A80077082707A9008B
:100F20007808283DAA0023082907860024082A3DBE
:100F300087003E08F4003B088F316527853120008B
:100F4000AB0001082B02A1003B088F31CC27853173
:100F500001302000A3002308BB076E2F0130A3003F
:100F60002308BE07532F0800333084008F308500DC
:100F700022001200E7001200E8001200E90012004F
:100F8000EA001200EB001200EC001200ED0012006B
:100F9000EE0000308400213085007030FE0000300B
:100FA000FF008F31592787314A3084000030850097
:100FB0002130FE000030FF008F3159278731A030EB
:100FC0008400003085005030FE000030FF008F317B
:100FD0005927873120308400013085004730FE00DA
:100FE0000030FF008F31592787312300A001A10174
:100FF000A201A301A401A501A60120008331902B29
:10100000403432341B340C3405340234013400349F
:10101000003400340134023405340C341B343234CF
:101020008034BA34E134F334FA34FD34FE34FF341E
:10103000003400340134023405340C341E34453499
:08104000023440340134003495
:101E0400E0300800A030080020005F080800163009
:101E1400210097000800F0007008240091000800D9
:101E240071082300A8007008A700080071082000AA
:101E3400EE007008ED000800703021009900980150
:101E4400220096010800F4007408933E80310A20B1
:101E54008F310800F4007408703E80310A208F31FD
:101E6400080037343F340734083409340134393432
:101E74003834F9007808F4007908703E8031CF20B6
:101E84008F310800F9007808F4007908933E803116
:101E9400CF208F3108004030240094000230950098
:101EA4000130920021000D122400951208006400F4
:101EB400800101310130FE020030FF3B7F087E04C7
:101EC400031D5A2F0034F5000730F00075088031E7
:101ED4001F208F317407773E80310A208F3108002C
:101EE40022008C118C1321000C148C140C158C11F1
:101EF4000C168C130D148D150800F6007608F500E9
:101F04000330F535FF3E031D832F7535740780318B
:101F14000A208F310800FA007908F4000730F00035
:101F24007A0880311F208F317807773E8031CF20A7
:101F34008F3108008F314D278F31803134208F311C
:101F44008F311E278F318F3109278F3180318520C2
:101F54008F310800F1007108F0000430F036890B6D
:101F6400B02F7008003E840088300318013E8500BD
:101F740000080800F1007108F0000430F036890B05
:101F8400C02F7008103E840088300318013E85007D
:101F9400000808002000A2002108F4002208FD0027
:101FA4000330FD35FF3E031DD32F7D3520078031DF
:101FB400CF208F310800F3000130F100730AE32FC2
:101FC400F135890BE22F7108F2007008523E860049
:101FD4008701720881040800F3000130F100730ADC
:101FE400F42FF135890BF32F7108FF3AF2007008D2
:0C1FF400523E860087017208810508003B
:020000040001F9
:08000000FF3FFF3FFF3FFF3F00
:04000E00E43FFF3E8E
:00000001FF
