:10000000803102288731BC2FF4007408933E8E3172
:100010004B268031080020006E08F3006D08F200C6
:100020006C08F1006B08F0004C30F7009530F600DA
:100030007F30F5002D30F4008F318F278031013073
:1000400070072000EB000030713DEC000030723D85
:10005000ED000030733DEE006B08A0006C08A100BD
:100060006D08A2006E08A3001130A336A20CA10CEB
:10007000A00C890B35282108FD002008FC00080091
:10008000F601F31F442845284C28F209F309F20A27
:100090000319F30AF601F60AF11F4F2850285528D4
:1000A000F009F109F00A0319F10A70087104031943
:1000B0005A285B288428F501F50A67280130F035B5
:1000C000F10D890B5F280130F4007408F507F11F6A
:1000D0006A286B285E2871087302031D7128700856
:1000E0007202031C7428752879287008F2027108BE
:1000F000F33B0130F136F00C890B7A280130F50220
:10010000031D832884286B287608031988288928EA
:100110008E28F209F309F20A0319F30A7308F100B1
:100120007208F00008002000AB0180310B20803104
:100130007C082000A4002B088D316B258031200025
:10014000A9012B08A40080310B2080317C082000FD
:10015000A50029088D31EF25803101302000A8004D
:100160002808A90710302902031CB728B828A1289D
:100170000130A8002808AB0707302B02031CC12858
:10018000C2289528AC0180310B2080317C082000EA
:10019000A4002C088D31752580312000AA012C087F
:1001A000A40080310B2080317C082000A5002A08A3
:1001B0008E310026803101302000A8002808AA07CF
:1001C00007302A02031CE528E628CF280130A800C2
:1001D0002808AC0704302C02031CEF28F028C328A1
:1001E00008002000A501A11FF628F728FE28A00975
:1001F000A109A00A0319A10AA501A50AA31F0129A3
:1002000002290B29A209A309A20A0319A30A013092
:10021000FD007D08A506A601A701200821040319F9
:10022000122913294229A401A40A1F290130A0354B
:10023000A10D890B17290130FD007D08A407A11F1E
:100240002229232916290130A635A70D890B242937
:1002500021082302031D2E2920082202031C312914
:10026000322937292008A2022108A33B2614013095
:10027000A136A00C890B38290130A402031D4129A5
:100280004229232925080319462947294C29A6096B
:10029000A709A60A0319A70A2708A1002608A00093
:1002A00008002000A800AA012A08A03E86008701B5
:1002B000010803195C295D2963292A08A03E8600EC
:1002C0008701013081020130A6002608AA074030CC
:1002D0002A02031C6C296D295429A9010330A600A8
:1002E0002608A805AF2967080739031D7829792949
:1002F0007C29A901A903C5290130E702C5290730D6
:100300006705A60007302606031D87298829892945
:1003100079290130A6002608E707C5296708A60045
:100320000330A636890B91292608031D982999299F
:100330009A2979290830E702C5296708A600033001
:10034000A636890BA02907302606031DA829A9294E
:10035000AA2979290830A6002608E707C529280810
:10036000A600A7012708003A0319B729C5292608BE
:10037000003A03197329013A03197F29033A031933
:100380008E29013A03199D29C529290A031DC92966
:10039000CA29CE298F310E278131FC296708A03E5A
:1003A0008600870101080319D629D729DA29A9016E
:1003B000A903CA2967086606031DDF29E029F62973
:1003C000A901A90A0130A6002608E90780310B20FF
:1003D00081317C081F392000E6006608A03E8600B7
:1003E00087010108031DF529F629E6296708A03EC3
:1003F0008600870169088100200029080800F400B0
:10040000F20172087407F00070088600870181010C
:100410000130F0007008F20710307202031C112A3C
:10042000122A012A200067080739031D182A192AF1
:100430002A2A7408860087018101810A740A8600CD
:1004400087018101810A7408023E860087018101CB
:10045000810A452A07306705F00007307006031D42
:10046000322A332A452A7408043E86008701810116
:10047000810A7408053E860087018101810A74089B
:10048000063E860087018101810A6708F00003307B
:10049000F036890B482A7008031D4F2A502A622A19
:1004A0007408063E860087018101810A7408073EB0
:1004B000860087018101810A740886008701810115
:1004C000810A802A6708F0000330F036890B652A1C
:1004D00007307006031D6D2A6E2A802A7408023EBA
:1004E000860087018101810A7408033E8600870126
:1004F0008101810A7408043E860087018101810A16
:10050000F3017308603E8600013087000108670729
:100510003F39F10071086606031D8F2A902A992A37
:1005200073087407F0007008083E86008701810197
:10053000810A7108A03E8600870101080319A12ADB
:10054000A22AAA2A73087407F0007008860087019F
:100550008101810A0130F0007008F307083073024E
:10056000031CB32AB42A812A08002000AA012A0801
:10057000E03E8600870101080319BF2AC02AC62A67
:100580002A08E03E86008701FF3081000130A80084
:100590002808AA0710302A02031CCF2AD02AB72A1B
:1005A000B0013008523E86000130870030088D319E
:1005B0005C25823181002000AB012B08E03E8600E3
:1005C00087010108A800A9012808AE002908AF008A
:1005D0003008F4002B088D31B1258231F700F80185
:1005E000F71BF80320002F08FA002E08F9008E31BF
:1005F000AA26823178082000AF007708AE00FF30CD
:10060000A0000030A1002F08A3002E08A200803116
:10061000F120823120002108AF002008AE002E0812
:10062000A8003008523E8600013087002808810764
:100630000130A8002808AB0710302B02031C212B27
:10064000222BDD2A3008593E860001308700300811
:10065000523E84000130850000088D31DF25823153
:10066000810001302000A8002808B00707303002C0
:10067000031C3B2B3C2BD12AB10131085E3E860086
:100680008701310880310420823181002000AC01D3
:100690002C08593E8600013087000108A800A901F6
:1006A0002808AE002908AF003108F4002C088D316D
:1006B00097258231F700F801F71BF80320002F0877
:1006C000FA002E08F9008E31AA268231780820001F
:1006D000AF007708AE00FF30A0000030A1002F0867
:1006E000A3002E08A2008031F120823120002108D1
:1006F000AF002008AE002E08A80031085E3E86003C
:100700008701280881070130A8002808AC070730B6
:100710002C02031C8C2B8D2B482B3108623E86004B
:10072000870131085E3E8400850100088D31DF2598
:100730008231810001302000A8002808B107043070
:100740003102031CA42BA52B3D2BE801AD01AD0A02
:100750006808623E860087012D08623E840085019C
:10076000000801020318B52BB62BB82B2D08E800A2
:100770000130A8002808AD0704302D02031CC12B4E
:10078000C22BA82B680808008D31BF2583318D311D
:10079000A42583318F310E2783318031932083311B
:1007A0008F31C22783318D312F2583312000CD0039
:1007B000D201D3015308CA000230CA35FF3E031DDF
:1007C000DD2B4A354D07CB0052084B07CC004C08B7
:1007D0008600870101080319EE2BEF2BF62B530837
:1007E000F00052088E3111268331FC2B5308F000A3
:1007F00052088E312326833101302000CA004A0876
:10080000D30708305302031C062C072CDA2B0130C7
:10081000CA004A08D20708305202031C102C112CBF
:10082000D92B8D31312583312000CE004E08CA00EE
:100830000330CA36890B192C4A08F0004E080339D8
:100840008E31112683318F31602783318D314F25D1
:100850008331003A031D2D2C2E2C782C2000D00142
:10086000D1018D312D2583318131FF2183318231B9
:10087000B52283318131512183318431E6248331A2
:1008800004302000A0000030A1005108F3005008FF
:10089000F200E830F0000330F10080314020833175
:1008A00071082000A3007008A2008031F12083317C
:1008B00020002008A80000308E31EB2683318F31D4
:1008C0006027833101302000D0070030D13D51082E
:1008D000803ACA0083304A02031D702CE83050026F
:1008E000031C732C742C312C01308E31782683310B
:1008F00002302000CB000430CA00BA30890B7E2CB5
:10090000CA0B7E2CCB0B7E2C00008D312D25833124
:100910008131FF2183318231B522833181315121EF
:1009200083318431E62483312000D401D501550878
:10093000CA000230CA35FF3E031D9A2C4A354D07C6
:10094000CB0054084B07CC004C08860087010108F7
:100950000319AB2CAC2CB32C5508F00054088E3185
:1009600011268331B92C5508F00054088E31232606
:10097000833101302000CA004A08D50708305502EB
:10098000031CC32CC42C972C0130CA004A08D4077E
:1009900008305402031CCD2CCE2C962C8D313125E1
:1009A00083312000CF004F08CA000330CA36890BBC
:1009B000D62C4A08F0004F0803398E3111268331B6
:1009C0008F3160278331782C803102282000B900D4
:1009D0003908031DEC2CED2CEE2CBB2F390A031D1E
:1009E000F22CF32CF42CB9013908031DF82CF92C46
:1009F000102DBA013A08353E86008701FF3081008C
:100A00000130A8002808BA0704303A02031C092D57
:100A10000A2DFA2C6808353E860087018101262DB3
:100A2000BB013B08353E8600870181010130A800EB
:100A30002808BB0704303B02031C1F2D202D112D5D
:100A40006808353E86008701FF308100BF013F08FE
:100A50004B3E86000130870081013F08443E8600FE
:100A6000013087008101BC013F08A800A9013C08B2
:100A7000AA00AB012A08F7002B08F8000730F9009C
:100A80000030FA008E31AA26843100302000AC00FC
:100A90002130AD0077082C07AE0078082D3DAF005F
:100AA00028082E07860029082F3D87008101013084
:100AB000A8002808BC0710303C02031C602D612DE3
:100AC000342D0130A8002808BF0707303F02031C5F
:100AD0006A2D6B2D272DC40144085A3E86008701DC
:100AE0004408623E840085010008A800A90144086A
:100AF000353E840085012908AB0000082802AA00C1
:100B0000031CAB032B0DAB0CAA0C2A088100440874
:100B1000563E860087018101BD013D08A8000230D4
:100B2000A835890B902D20302807A90044082907F3
:100B3000AA002A0886000130870081010130A80040
:100B40002808BD0707303D02031CA72DA82D8D2DB9
:100B50000130A8002808C40704304402031CB12D4A
:100B6000B22D6C2DC50145085E3E86008701010847
:100B70008D31CF2584312000A800A9012808C800A4
:100B80002908C90045085A3E860087010108F70078
:100B9000F801F71BF8034908FA004808F9008E31FC
:100BA000AA26843178082000C9007708C800FF30E1
:100BB000A0000030A1004908A3004808A20080312D
:100BC000F120843120002108C9002008C80048080D
:100BD000A8004508563E8600870128088107C20103
:100BE0007F30A0000030A1004508F40042088D319C
:100BF00097258431F700F801F71BF8032000490816
:100C0000FA004808F9008E31AA26843178082000BD
:100C1000A3007708A2008031F12084312000200851
:100C2000A80042084B3E8600013087002808810753
:100C30007F30A0000030A1004208593E86000130FC
:100C400087000108A800A9012808F7002908F80072
:100C50004908FA004808F9008E31AA26843178083C
:100C60002000A3007708A2008031F1208431200009
:100C70002008AA002108AB002B0DAB0CAA0C2A08F7
:100C8000AC004208AD000230AD35890B442E203057
:100C90002D07AE0045082E07AF002F088600013053
:100CA00087002C0881070130A8002808C2070730F8
:100CB0004202031C5C2E5D2EF02D0130A800280896
:100CC000C50704304502031C662E672EB32DC301F1
:100CD00007304302031C6D2E6E2E6F2E0C2F43081F
:100CE000523E86000130870001088D31CF258431C6
:100CF0002000A800A9012808C8002908C900430845
:100D00004B3E8600013087000108F700F801F71B11
:100D1000F8034908FA004808F9008E31AA26843100
:100D200078082000C9007708C800FF30A000003014
:100D3000A1004908A3004808A2008031F1208431B5
:100D400020002108C9002008C8004808A80043085E
:100D5000443E86000130870028088107BE0110301C
:100D60003E02031CB42EB52EB62E072F7F30A000F6
:100D70000030A1003E08E03E860087010108A8007F
:100D8000A9012808F7002908F8004908FA004808CE
:100D9000F9008E31AA26843178082000A300770854
:100DA000A2008031F120843120002008AA0021080F
:100DB000AB002B0DAB0CAA0C2A08AC004308AD000D
:100DC000AE013E08AF00B0012F08F7003008F80070
:100DD0000730F9000030FA008E31AA268431003045
:100DE0002000B1002130B20077083107B300780845
:100DF000323DB4002D08330786002E08343D8700AD
:100E00002C0881070130A8002808BE07AF2E01304A
:100E1000A8002808C307682EC60104304602031C38
:100E2000122F132F142F5A2F4608563E8600870183
:100E300046088031042084312000A80001082802DF
:100E4000A40046088D31752584312000C00107308B
:100E50004002031C2C2F2D2F2E2F552F4608A400A7
:100E60004008A8000230A835890B332F203028070E
:100E7000A90046082907AA002A0886000130870031
:100E80004608F40040088D31972584312000AB00DE
:100E900001082B02A50040088E3100268431013064
:100EA0002000A8002808C007272F0130A800280824
:100EB000C6070D2FC70107304702031C602F612FA3
:100EC000622FBB2F4708443E860001308700470849
:100ED0008D315C2584312000A80001082802A4007F
:100EE00047088D316B2584312000C101103041024B
:100EF000031C7B2F7C2F7D2FB62F4708A4004708AB
:100F0000A800A9014108AA00AB012A08F7002B0894
:100F1000F8000730F9000030FA008E31AA2684313B
:100F200000302000AC002130AD0077082C07AE0067
:100F300078082D3DAF0028082E07860029082F3D90
:100F400087004708F40041088D31B1258431200025
:100F5000B00001083002A50041088D31EF25843131
:100F600001302000A8002808C107762F0130A80012
:100F70002808C7075B2F0800633084008D30850088
:100F800022001200E0001200E1001200E200120054
:100F9000E3001200E4001200E5001200E600120077
:100FA000E70000308400213085007030FE00003002
:100FB000FF008D318B25873156308400003085004D
:100FC0001930FE000030FF008D318B258731A030B5
:100FD0008400003085005030FE000030FF008D316D
:100FE0008B25873120308400013085004030FE00A1
:100FF0000030FF008D318B25873120008331C42BD9
:10100000403432341B340C3405340234013400349F
:10101000003400340134023405340C341B343234CF
:101020008034BA34E134F334FA34FD34FE34FF341E
:10103000003400340134023405340C341E34453499
:08104000023440340134003495
:101A5A00E0300800A03008002000660808001630B0
:101A6A00210097000800F000700824009100080087
:101A7A0071082200E9007008E800080071082200D5
:101A8A00ED007008EC00080071082200EB007008F5
:101A9A00EA00080097308E314B268D310239080052
:101AAA007030210099009801220096010800F40084
:101ABA007408703E8E314B268D31080037343F341E
:101ACA000734083409340134393438342000A50085
:101ADA002408F4002508703E8F3136278D3108001E
:101AEA002000A5002408F4002508933E8F313627EC
:101AFA008D310800403024009400023095000130F6
:101B0A00920021000D122400951208006400800141
:101B1A0001310130FE020030FF3B7F087E04031DC5
:101B2A008C2D0034F5000730F00075088E3136260A
:101B3A008D317407773E8E314B268D310800220095
:101B4A008C118C1321000C148C140C158C110C168E
:101B5A008C130D148D150800F6007608F500033075
:101B6A00F535FF3E031DB52D753574078E314B26AD
:101B7A008D3108008D317F258D318E3160268D3172
:101B8A008D3155258D318D3134258D318E31C926D2
:101B9A008D310800F1007108F0000430F036890B2D
:101BAA00D32D7008003E840088300318013E85005A
:101BBA0000080800F1007108F0000430F036890BC3
:101BCA00E32D7008103E840088300318013E85001A
:101BDA00000808002000A7002508F4002708A6002E
:101BEA000330A635FF3E031DF62D263524078F3117
:101BFA0036278D3108002000A6002508F40007309A
:101C0A00F00026088E3136268E3120002407773ED2
:101C1A008F3136278E310800F3000130F100730A44
:101C2A00172EF135890B162E7108F20070083C3E0A
:101C3A00860001308700720881040800F300013031
:101C4A00F100730A292EF135890B282E7108FF3A03
:101C5A00F20070083C3E8600013087007208810558
:101C6A000800F300F201731C3B2E3C2E402E700834
:101C7A00F1007108F2070310F00D0310F30C73085A
:101C8A00031D482E492E382E72080800F3006400FE
:101C9A0023009518512E522E4C2E7308F000F10194
:101CAA0070089100710892003F30F20072089505A1
:101CBA0015141308080022008C018D013730210009
:101CCA008C00EF308D00C83023008D001F308C004F
:101CDA0024008D018C0121009517C03022009D003F
:101CEA0001309E000800F90097308E314B268E3164
:101CFA00FA0079080319822E832E852EFA14892E6A
:101D0A00FD30F8007808FA057A08F40097308F3128
:101D1A0036278E310800F20022008D1072088D31AC
:101D2A0038258E312000911D9B2E9C2E972E9111C5
:101D3A0071088D3138258E312000911DA52EA62ED1
:101D4A00A12E911122008D140800FB01FC01771CC1
:101D5A00AF2EB02EB42E7908FB077A08FC3D01306D
:101D6A00F935FA0D890BB52E0130F836F70C890BC7
:101D7A00BA2E77087804031DC32EC42EAC2E7C0815
:101D8A00F8007B08F7000800083023009F00903015
:101D9A009D0024309E0067309B009C010030F000BB
:101DAA000030F1008D3143258E310030F0000030D3
:101DBA00F1008D3149258E310030F0000030F100FC
:101DCA008D313D258E312000EA0108002000AA004D
:101DDA008030AB00AC012A083C3E86000130870007
:101DEA002A083C3E8400013085002B090004A90022
:101DFA0028082B05290481000310AB0C0130A90027
:101E0A002908AC0708302C02031C0C2F0D2FF02ECA
:101E1A0008002000A5012508A03E8600870181014F
:101E2A000130A4002408A50740302502031C1E2FF8
:101E3A001F2F102F80310B208F317C083F39200053
:101E4A00E70080310B208F317C083F392000E60003
:101E5A00E901E90A6708A03E86008701690881004E
:101E6A000800F700230095183B2F3C2F372F7708DF
:101E7A00F500F6017508910076089200740893003F
:101E8A003F30F50075089505200003108B1F4E2F73
:101E9A004F2F502F03148B1323001515553096001E
:101EAA00AA309600951415112000031C5D2F5E2F91
:101EBA005F2F8B170800F70177083C3E8600013038
:101ECA0087000108F400F501F6010310F50D740806
:101EDA000139F3007308F5040310F40C0130F30020
:101EEA007308F60708307602031C7C2F7D2F6A2FB1
:101EFA007508F1007708013E8E3190268F31013046
:101F0A00F3007308F70708307702031C8D2F8E2F12
:101F1A00612F08000030FB000030FA000030F900A1
:101F2A000030F800701C9A2F9B2FA32F7408F80713
:101F3A007508F93D7608FA3D7708FB3D0130F4351E
:101F4A00F50DF60DF70D890BA42F0130F336F20CBF
:101F5A00F10CF00C890BAB2F730872047104700436
:101F6A00031DB82FB92F972F7B08F3007A08F200C8
:101F7A007908F1007808F000080022008D14210089
:101F8A008D1024009516F10109308E3190268F317B
:101F9A00F1010A308E3190268F31F1010C308E31E9
:101FAA0090268F310730F1000B308E3190268F3119
:101FBA00F101F10A0C308E3190268F31F101F10ACC
:101FCA000F308E3190268F310B30F4002630F3001B
:101FDA005E30890BEE2FF30BEE2FF40BEE2FF1018F
:101FEA000F308E3190268F31F101F10A0C308E318B
:061FFA0090268F31080063
:020000040001F9
:08000000FF3FFF3FFF3FFF3F00
:04000E00E43FFF3E8E
:00000001FF
