:10000000803102288731D92FC4300800FB01FC0160
:10001000771C0B280C2810287908FB077A08FC3D70
:100020000130F935FA0D890B11280130F836F70C3B
:10003000890B162877087804031D1F282028082814
:100040007C08F8007B08F700080020006E08F30029
:100050006D08F2006C08F1006B08F0004C30F700FE
:100060009530F6007F30F5002D30F4008F31CD272C
:100070008031013070072000EB000030713DEC0052
:100080000030723DED000030733DEE006B08A000C3
:100090006C08A1006D08A2006E08A3001130A33601
:1000A000A20CA10CA00C890B4F282108FD002008F0
:1000B000FC0008002000A5012508C43E8600870139
:1000C00081010130A4002408A50710302502031C7B
:1000D0006A286B285C288031252080317C08033910
:1000E0002000A4000130A435FF3E031D73282435F1
:1000F000E7008031252080317C0803392000A400EE
:100100000130A435FF3E031D81282435E600E901B6
:10011000E90A2830E5006708C43E860087016908BF
:100120008100080022008D1421008D1024009516F6
:10013000F10109308F3113278031F1010A308F31FD
:1001400013278031F1010C308F31132780310730B4
:10015000F1000B308F3113278031F101F10A0C309F
:100160008F3113278031F101F10A0F308F311327BE
:1001700080310B30F4002630F3005E30890BBE284E
:10018000F30BBE28F40BBE28F1010F308F3113277B
:100190008031F101F10A0C308F31132780310800D2
:1001A0002000AB018031252080317C082000A40094
:1001B0002B088E31252680312000A9012B08A400B0
:1001C0008031252080317C082000A50029088E314F
:1001D0009F26803101302000A8002808A907083098
:1001E0002902031CF428F528DE280130A80028087D
:1001F000AB0704302B02031CFE28FF28D228AC01D9
:100200008031252080317C082000A4002C088E310C
:100210002F2680312000AA012C08A400803125203F
:1002200080317C082000A5002A088E31B02680315C
:1002300001302000A8002808AA0704302A02031C65
:10024000222923290C290130A8002808AC070430F2
:100250002C02031C2C292D29002908002000A501AF
:10026000A11F332934293B29A009A109A00A031998
:10027000A10AA501A50AA31F3E293F294829A209D1
:10028000A309A20A0319A30A0130FD007D08A506EF
:10029000A601A7012008210403194F2950297F290D
:1002A000A401A40A5C290130A035A10D890B5429B1
:1002B0000130FD007D08A407A11F5F296029532993
:1002C0000130A635A70D890B612921082302031DE2
:1002D0006B2920082202031C6E296F29742920082B
:1002E000A2022108A33B26140130A136A00C890BE1
:1002F00075290130A402031D7E297F296029250864
:100300000319832984298929A609A709A60A03199B
:10031000A70A2708A1002608A00008002000B100B5
:10032000AD012D083107A80028088600870181014A
:100330000130A8002808AD0708302D02031CA129B0
:10034000A229912967080339AE000430A0000030CB
:10035000A1006708A800A9012808A2002908A30095
:1003600081312E21813120002008AF006608033939
:10037000AB000430A0000030A1006608A800A9016D
:100380002808A2002908A30081312E2181312000F4
:100390002008AC002E08031DCE29CF29D52931080D
:1003A000860087018101810AE02907302E06031D9E
:1003B000DA29DB29E029310A860087018101810AD7
:1003C0002F08031DE429E529EC293108023E8600A7
:1003D00087018101810AF82907302F06031DF129C1
:1003E000F229F8293108033E860087018101810A3C
:1003F000B0013008DC3E8600870101086707033939
:10040000A8000130A835FF3E031D022A2835AA00A6
:100410002A08C43E8600870101080319102A112A00
:10042000192A30083107A8002808860087018101B1
:10043000810A0130A8002808B00704303002031CEC
:10044000222A232AF9292E082B020318282A292ACE
:10045000302A3108043E860087018101810A3C2A46
:100460002B082E020318352A362A3C2A3108053E6D
:10047000860087018101810A2F082C020318412A76
:10048000422A492A3108063E860087018101810AF5
:10049000552A2C082F0203184E2A4F2A552A3108B4
:1004A000073E860087018101810A08002000AA001A
:1004B0000130E502AC012C08C43E8600870101082A
:1004C0000319632A642A6A2A2C08C43E860087011D
:1004D000013081020130A8002808AC0710302C023E
:1004E000031C732A742A5B2AAB010330A800280876
:1004F000AA05CA2A67080339031D7F2A802A832A8E
:10050000AB01AB03E02A0130E702E02A03306705C4
:10051000A80007302806031D8E2A8F2A902A802AD9
:100520000130A8002808E707E02A0430A0000030C6
:10053000A1006708A800A9012808A2002908A300B3
:1005400081312E218231200020082104031DA92A97
:10055000AA2AAB2A802A0830E702E02A0430A00049
:100560000030A1006708A800A9012808A2002908F6
:10057000A30081312E218231073020002006210482
:10058000031DC32AC42AC52A802A0830A8002808C7
:10059000E707E02A2A08A800A9012908003A031958
:1005A000D22AE02A2808003A03197A2A013A0319C4
:1005B000862A033A0319952A013A0319AE2AE02A3A
:1005C0002B0A031DE42AE52AE92A80315A208231C8
:1005D000202B6708C43E8600870101080319F12A11
:1005E000F22AF52AAB01AB03E52A67086606031D6C
:1005F000FA2AFB2A1A2B2830E500AB01AB0A01309E
:10060000A8002808E9078031252082317C080339B9
:100610002000A8000130A835FF3E031D0B2B283514
:10062000E6006608C43E860087010108031D192BF9
:100630001A2B032B6708C43E8600870169088100D6
:1006400020006508031D252B262B2B2BAB01AB03AC
:1006500080315A20823120002B0808002000AA0196
:100660002A08D43E8600870101080319382B392B4C
:100670003F2B2A08D43E86008701FF3081000130DD
:10068000A8002808AA0708302A02031C482B492B77
:10069000302BB0013008593E8600870130088E317A
:1006A0000F26833181002000AB012B08D43E860049
:1006B00087010108A800A9012808AE002908AF0099
:1006C0003008F4002B088E3152268331F700F801F0
:1006D000F71BF80320002F08FA002E08F9008031DC
:1006E0000620833178082000AF007708AE00FF3085
:1006F000A0000030A1002F08A3002E08A200813125
:100700002E21833120002108AF002008AE002E08E2
:10071000A8003008593E860087012808810701306B
:10072000A8002808AB0708302B02031C982B992B34
:10073000552B3008613E860087013008593E840001
:10074000850100088E318F26833181000130200021
:10075000A8002808B00704303002031CB02BB12BCE
:100760004A2BB1013108553E8600870131088E3190
:100770001626833181002000AC012C08613E8600E2
:1007800087010108A800A9012808AE002908AF00C8
:100790003108F4002C088E3160268331F700F8010F
:1007A000F71BF80320002F08FA002E08F90080310B
:1007B0000620833178082000AF007708AE00FF30B4
:1007C000A0000030A1002F08A3002E08A200813154
:1007D0002E21833120002108AF002008AE002E0812
:1007E000A8003108553E860087012808810701309E
:1007F000A8002808AC0704302C02031C002C012C94
:10080000BD2B31085D3E860087013108553E8400CE
:10081000850100088E318F26833181000130200050
:10082000A8002808B10704303102031C182C192C29
:10083000B22BE801AD01AD0A68085D3E8600870174
:100840002D085D3E84008501000801020318292C53
:100850002A2C2C2C2D08E8000130A8002808AD0710
:1008600004302D02031C352C362C1C2C6808080083
:100870008E316F2684318E314526843180315A2065
:1008800084318031D0208431803192208431200025
:10089000CB01CC018D31DC25843181318E21843135
:1008A00083312E238431823156228431853144258F
:1008B000843120004C08C6004B08C500C636C50C64
:1008C000C636C50C4508AC0000308F314F27843147
:1008D00020004B080339AC0001308F314F278431A1
:1008E0008F319F27843101302000CB070030CC3D71
:1008F00003304C02E83003194B02031C802C812C7E
:100900004A2C8031042084312000C800CD01CE0162
:100910004E08C5000130C535FF3E031D8B2C453503
:100920004807C6004D084607C700470886008701EC
:10093000010803199C2C9D2CA42C4E08A8004D08DE
:100940008E31D4268431AA2C4E08F0004D088E3109
:10095000C226843101302000C5004508CE0704308E
:100960004E02031CB42CB52C882C0130C500450860
:10097000CD0704304D02031CBE2CBF2C872C8D31BB
:10098000DE2584312000C9000430A0000030A10021
:100990004908C500C6014508A2004608A3008131E8
:1009A0002E21843120002008A800490803398E3107
:1009B000D42684318F319F2784318D31DC258431D9
:1009C00081318E21843183312E238431823156222C
:1009D00084318531442584312000CF01D001500875
:1009E000C5000130C535FF3E031DF22C45354807D3
:1009F000C6004F084607C700470886008701010860
:100A00000319032D042D0B2D5008A8004F088E311B
:100A1000D4268431112D5008F0004F088E31C226A3
:100A2000843101302000C5004508D0070430500251
:100A3000031C1B2D1C2DEF2C0130C5004508CF07D2
:100A400004304F02031C252D262DEE2C8D31DE2582
:100A500084312000CA000430A0000030A1004A0800
:100A6000C500C6014508A2004608A30081312E2119
:100A7000843120002008A8004A0803398E31D4268A
:100A80008431DA2C803102282000B4003408031DA0
:100A90004A2D4B2D4C2DD82F340A031D502D512D8E
:100AA000522DB4013408031D562D572D6E2DB5015E
:100AB0003508303E86008701FF3081000130A800F4
:100AC0002808B50704303502031C672D682D582D02
:100AD0006808303E860087018101842DB601360802
:100AE000303E8600870181010130A8002808B60742
:100AF00004303602031C7D2D7E2D6F2D6808303E9C
:100B000086008701FF308100BA013A08513E860015
:100B1000870181013A08BC3E860087018101B70147
:100B20003708A8000230A835890B932D20302807FC
:100B3000A9003A082907AA002A0886000130870080
:100B400081010130A8002808B70708303702031CCC
:100B5000AA2DAB2D902D0130A8002808BA0704302B
:100B60003A02031CB42DB52D852DBF013F08C03EB0
:100B7000860087013F085D3E840085010008A800CB
:100B8000A9013F08303E840085012908AB00000818
:100B90002802AA00031CAB032B0DAB0CAA0C2A08DD
:100BA00081003F08B83E860087018101B8013808FE
:100BB000A8000230A835890BDA2DA0302807A9003B
:100BC0003F082907AA002A08860087018101013011
:100BD000A8002808B80704303802031CF02DF12DB6
:100BE000D72D0130A8002808BF0704303F02031C9E
:100BF000FA2DFB2DB62DC0014008553E8600870119
:100C000001088E317F2685312000A800A90128081F
:100C1000C3002908C4004008C03E860087010108BF
:100C2000F700F801F71BF8034408FA004308F9003D
:100C300080310620853178082000C4007708C30081
:100C4000FF30A0000030A1004408A3004308A20028
:100C500081312E21853120002108C4002008C300E5
:100C60004308A8004008B83E86008701280881078D
:100C7000BD017F30A0000030A1004008F4003D0815
:100C80008E3160268531F700F801F71BF80320004C
:100C90004408FA004308F9008031062085317808BD
:100CA0002000A3007708A20081312E218531200089
:100CB0002008A8003D08513E8600870128088107CA
:100CC0007F30A0000030A1003D08613E8600870112
:100CD0000108A800A9012808F7002908F80044081D
:100CE000FA004308F9008031062085317808200099
:100CF000A3007708A20081312E2185312000200831
:100D0000AA002108AB002B0DAB0CAA0C2A08AC00E2
:100D10003D08AD000230AD35890B8B2EA0302D077C
:100D2000AE0040082E07AF002F08860087012C0870
:100D300081070130A8002808BD0704303D02031CCC
:100D4000A22EA32E392E0130A8002808C007043097
:100D50004002031CAC2EAD2EFC2DBE0104303E0221
:100D6000031CB32EB42EB52E3D2F3E08593E8600EF
:100D7000870101088E317F2685312000A800A90156
:100D80002808C3002908C4003E08513E8600870198
:100D90000108F700F801F71BF8034408FA004308BC
:100DA000F90080310620853178082000C4007708DA
:100DB000C300FF30A0000030A1004408A300430896
:100DC000A20081312E21853120002108C400200895
:100DD000C3004308A8003E08BC3E860087012808DF
:100DE0008107B90108303902031CF72EF82EF92EBD
:100DF000382F7F30A0000030A1003908D43E860093
:100E000087010108A800A9012808F7002908F800AF
:100E10004408FA004308F90080310620853178083B
:100E20002000A3007708A20081312E218531200007
:100E30002008AA002108AB002B0DAB0CAA0C2A0835
:100E4000AC003908AD000230AD35890B242F2030BD
:100E50002D07AE003E082E07AF002F088600013098
:100E600087002C0881070130A8002808B907F22E56
:100E70000130A8002808BE07AE2EC101043041028F
:100E8000031C432F442F452F8A2F4108B83E86006C
:100E9000870141088E31162685312000A8000108FF
:100EA0002802A40041088E312F2685312000BB0185
:100EB00004303B02031C5D2F5E2F5F2F852F4108FE
:100EC000A4003B08A8000230A835890B642FA0308D
:100ED0002807A90041082907AA002A0886008701D7
:100EE0004108F4003B088E31602685312000AB00BC
:100EF00001082B02A5003B088E31B0268531013058
:100F00002000A8002808BB07582F0130A800280897
:100F1000C1073E2FC20104304202031C902F912FC3
:100F2000922FD82F4208BC3E8600870142088E319E
:100F30000F2685312000A80001082802A4004208DD
:100F40008E31252685312000BC0108303C02031C6F
:100F5000AA2FAB2FAC2FD32F4208A4003C08A80027
:100F60000230A835890BB12F20302807A90042088C
:100F70002907AA002A088600013087004208F400E9
:100F80003C088E31522685312000AB0001082B022F
:100F9000A5003C088E319F26853101302000A80035
:100FA0002808BC07A52F0130A8002808C2078B2FEE
:100FB00008001D3084008E308500DC308600003053
:100FC000870008308E31022687315130840000308E
:100FD00085001E308D31FC258731A0308400003023
:100FE00085003C308D31FC25873120308400013074
:100FF000850020308D31FC25873120008431382C4C
:10100000403432341B340C3405340234013400349F
:10101000003400340134023405340C341B343234CF
:101020008034BA34E134F334FA34FD34FE34FF341E
:10103000003400340134023405340C341E34453499
:08104000023440340134003495
:101BB800D43008002000660808001630210097007D
:101BC8000800F00070082400910008007108210046
:101BD800E5007008E400080071082100E9007008B9
:101BE800E800080071082100E7007008E600080016
:101BF800640080010131890BFD2D0034FE001200C4
:101C08001E00FE0B032E003470302100990098014D
:101C1800220096010800F4007408203E8E31E62662
:101C28008E310800F4007408343E8E31E6268E3179
:101C380008000B340F3403340434053401340D34F4
:101C48000C342000A5002408F0002508203E8F3120
:101C580075278E3108002000A5002408F00025080B
:101C6800343E8F3175278E310800403024009400AF
:101C7800023095000130920021000D1224009512C7
:101C8800080022008C118C1321000C148C140C15E4
:101C98008C110C168C130D148D150800F60076089F
:101CA800F5000230F535FF3E031D562E75357407D5
:101CB8008E31E6268E310800F6007608F5000130F0
:101CC800F535FF3E031D642E75357407243E8E31AD
:101CD800E6268E3108008E3139268E318E31FB266C
:101CE8008E318E3108268E318D31E1258E318F313E
:101CF8002D278E310800F1007108F0000430F0360D
:101D0800890B832E7008003E840088300318013E3A
:101D1800850000080800F1007108F0000430F03672
:101D2800890B932E7008103E840088300318013EFA
:101D38008500000808002000A7002508F0002708F3
:101D4800A6000230A635FF3E031DA62E2635240721
:101D58008F3175278E3108002000A7002508F00074
:101D68002708A6000130A635FF3E031DB72E2635ED
:101D78002407243E8F3175278E310800F300013087
:101D8800F100730AC82EF135890BC72E7108FF3A86
:101D9800F2007008B03E86008701720881050800CD
:101DA8002000AB000130A9002B0ADB2EA935890BD6
:101DB800DA2E2908AA002808B03E860087012A08DA
:101DC80081040800F300640023009518EC2EED2E22
:101DD800E72E7308F000F101700891007108920075
:101DE8003F30F20072089505151413080800220008
:101DF8008C018D01373021008C00EF308D00C83008
:101E080023008D001F308C0024008D018C012100DF
:101E18009517C03022009D0001309E000800F20096
:101E280022008D1072088D31E5258F312000911D1B
:101E38001E2F1F2F1A2F911171088D31E5258F3113
:101E48002000911D282F292F242F911122008D1455
:101E58000800083023009F0090309D0024309E0029
:101E680067309B009C010030F0000030F1008D319C
:101E7800F0258F310030F0000030F1008D31F6256B
:101E88008F310030F0000030F1008D31EA258F31BC
:101E98002000EA0108002000AF00AE01AE0AB00140
:101EA8002C082E050319592F5A2F612F3008A80026
:101EB8002F088E31D4268F31672F3008F0002F0875
:101EC8008E31C2268F3103102000AE0D0130AD00D7
:101ED8002D08B00708303002031C732F742F542FBD
:101EE8000800F300230095187A2F7B2F762F7308AC
:101EF800F100F201710891007208920070089300D5
:101F08003F30F10071089505200003108B1F8D2FBD
:101F18008E2F8F2F03148B13230015155530960021
:101F2800AA309600951415112000031C9C2F9D2F94
:101F38009E2F8B170800F7017708B03E86008701AF
:101F48000108F400F501F6010310F50D74080139D4
:101F5800F3007308F5040310F40C0130F300730860
:101F6800F60708307602031CBA2FBB2FA82F750876
:101F7800F1007708013E8F3113278F310130F300CC
:101F88007308F70708307702031CCB2FCC2FA02F3C
:101F980008000030FB000030FA000030F900003083
:101FA800F800701CD82FD92FE12F7408F80775088E
:101FB800F93D7608FA3D7708FB3D0130F435F50D1B
:101FC800F60DF70D890BE22F0130F336F20CF10C08
:101FD800F00C890BE92F7308720471047004031D57
:101FE800F62FF72FD52F7B08F3007A08F20079082F
:081FF800F1007808F000080078
:020000040001F9
:08000000FF3FFF3FFF3FFF3F00
:04000E00E43FFF3E8E
:00000001FF
