:08000000803102288731D92F5D
:100218000800B43008002030080020004108080019
:100228001630210097000800F000700824009100A3
:10023800080071082000E8007008E700080071084D
:100248002000EC007008EB00080071082000EA00AC
:100258007008E9000800E130823105228131013956
:100268000800E1308231052281310239080064003A
:1002780080010131890B3C290034FE0012001E0068
:10028800FE0B4229003470302100990098012200A9
:1002980096010800F4007408A03E823105228131DD
:1002A8000800F4007408DC3E823105228131080020
:1002B80037343834393401340934083407343F3496
:1002C80001342000CD004C08F4004D08A03E8231D6
:1002D800FA22813108002000CD004C08F4004D08B6
:1002E800DC3E8231FA22813108004030240094003B
:1002F800023095000130920021000D122400951261
:100308000800F5000A30F000750882311A228131A0
:100318007407AA3E8231052281310800F60076086A
:10032800F5000330F535FF3E031D96297535740732
:100338008231052281310800813179218131823170
:100348002F2281318131472181318131142181313D
:100358008231B02281310800F1007108F0000430C8
:10036800F036890BB4297008103E840088300318D1
:10037800013E8500000808002000CF004D08F40069
:100388004F08CE000330CE35FF3E031DC7294E353A
:100398004C078231FA22813108002000CE004D0836
:1003A800F4000A30F0004E0882311A228131200010
:1003B8004C07AA3E8231FA2281310800F30001304D
:1003C800F100700AE829F135890BE7297108F20074
:1003D8007308343E86008701720881040800F30020
:1003E8000130F100700AF929F135890BF8297108F3
:1003F800FF3AF2007308343E8600870172088105CF
:100408000800F3006400230095180B2A0C2A062A1A
:100418007308F000F10170089100710892003F30F4
:10042800F20072089505151413080800F300F2018C
:10043800731C1F2A202A242A7008F1007108F20769
:100448000310F00D0310F30C7308031D2C2A2D2A3A
:100458001C2A7208080022008C018D013730210007
:100468008C00EF308D00C83023008D001F308C00C9
:1004780024008D018C0121009517C03022009D00B9
:1004880001309E000800F900E130823105228231F6
:10049800FA0079080319512A522A542A7A14582A38
:1004A800FE30F8007808FA057A08F400E130823165
:1004B800FA2282310800F900E130823105228231C6
:1004C800FA0079080319692A6A2A6C2AFA14702A28
:1004D800FD30F8007808FA057A08F400E130823136
:1004E800FA2282310800F20022008D107208813150
:1004F800182182312000911D822A832A7E2A911197
:1005080071088131182182312000911D8C2A8D2A91
:10051800882A911122008D140800FB01FC01771C28
:10052800962A972A9B2A7908FB077A08FC3D01300E
:10053800F935FA0D890B9C2A0130F836F70C890B2E
:10054800A12A77087804031DAA2AAB2A932A7C08D3
:10055800F8007B08F7000800083023009F0090305F
:100568009D0024309E00CF309B009C010030F0009D
:100578000030F1008131232182310030F000003059
:10058800F1008131292182310030F0000030F10082
:1005980081311D2182312000C30108002000CD01D6
:1005A8004D08203E86000130870081010130CC00D3
:1005B8004C08CD0740304D02031CE32AE42AD42A14
:1005C8008331852382317C083F392000C200833182
:1005D800852382317C083F392000C1004208203E33
:1005E800860001308700660881000800F7002300B4
:1005F8009518FF2A002BFB2A7708F500F6017508E5
:10060800910076089200740893003F30F500750851
:100618009505200003108B1F122B132B142B03148A
:100628008B132300151555309600AA3096009514A3
:1006380015112000031C212B222B232B8B170800BC
:10064800F7017708343E860087010108F400F501B8
:10065800F60174080139F3007308F5040310F50D69
:100668000310F40C0130F3007308F6070830760223
:10067800031C3F2B402B2D2B7508F1007708013EFA
:100688008231772283310130F3007308F70708308D
:100698007702031C502B512B252B08000030FB0040
:1006A8000030FA000030F9000030F800701C5D2BB3
:1006B8005E2B662B7408F8077508F93D7608FA3D35
:1006C8007708FB3D0130F435F50DF60DF70D890B74
:1006D800672B0130F336F20CF10CF00C890B6E2B02
:1006E8007308720471047004031D7B2B7C2B5A2B36
:1006F8007B08F3007A08F2007908F1007808F00026
:10070800080020004708F3004608F2004508F100F9
:100718004408F0004C30F7009530F6007F30F500C3
:100728002D30F400833152238331013070072000CB
:10073800C4000030713DC5000030723DC600003075
:10074800733DC7004408C8004508C9004608CA00E8
:100758004708CB001130CB36CA0CC90CC80C890B22
:10076800AF2B4908FD004808FC0008002400951636
:10077800F1010930823177228331F1010A30823167
:1007880077228331F1010C308231772283310730AF
:10079800F1000B30823177228331F101F10A0C30FC
:1007A800823177228331F101F10A0F3082317722C9
:1007B80083310B30F4002630F3005E30890BE22BD6
:1007C800F30BE22BF40BE22BF1010F30823177228D
:1007D8008331F101F10A0C3082317722833108002C
:1007E800F601F11FF82BF92B002CF009F109F00A9A
:1007F8000319F10AF601F60AF31F032C042C0D2C39
:10080800F209F309F20A0319F30A0130F400740833
:10081800F606F701F801700871040319142C152C59
:10082800442CF501F50A212C0130F035F10D890B26
:10083800192C0130F4007408F507F11F242C252C1D
:10084800182C0130F735F80D890B262C7108730226
:10085800031D302C70087202031C332C342C392CE5
:100868007008F2027108F33B77140130F136F00C8E
:10087800890B3A2C0130F502031D432C442C252CFE
:1008880076080319482C492C4E2CF709F809F70A61
:100898000319F80A7808F1007708F0000800813198
:1008A8002F218431003A03195A2C5B2C5C2CBD2C67
:1008B8002000D3018331852384317C082000CC00BB
:1008C80053088131652184312000D1015308CC00BF
:1008D8008331852384317C082000CD005108813183
:1008E800C021843101302000D0005008D1071030D9
:1008F8005102031C802C812C6A2C0130D000500836
:10090800D3070A305302031C8A2C8B2C5E2CD4018B
:100918008331852384317C082000CC005408813140
:100928006F2184312000D2015408CC008331852303
:1009380084317C082000CD0052088131D1218431D6
:1009480001302000D0005008D2070A305202031CA0
:10095800AE2CAF2C982C0130D0005008D4070530AD
:100968005402031CB82CB92C8C2C0130823147223C
:10097800843108008131A02184318231D22284312E
:100988008431532484318331BA23843181310F2156
:1009980084312000D800813135218431003A031D8B
:1009A800D62CD72CFF2C2000D901DA0181310D215A
:1009B80084318631212684318631D72684318531A8
:1009C8006E25843181310C21843101302000D90712
:1009D8000030DA3D5A08803AD50083305502031DAD
:1009E800F72CE8305902031CFA2CFB2CDA2C0130C6
:1009F80082315F22843106302000D6001330D500C2
:100A0800AD30890B052DD50B052DD60B052D0032E4
:100A180081310D2184318631212684318631D726D2
:100A2800843185316E25843181310C218431200057
:100A3800DC01DD015D08D5000230D535FF3E031D20
:100A4800212D55355807D6005C085607D70057089A
:100A580086000130870001080319332D342D3B2D02
:100A68005D08F0005C088131E2218431412D5D0888
:100A7800F0005C088131F321843101302000D50079
:100A88005508DD0708305D02031C4B2D4C2D1E2D2B
:100A98000130D5005508DC0708305C02031C552DD1
:100AA800562D1D2D8131112184312000DB005B087A
:100AB800D5000330D536890B5E2D5508F0005B084C
:100AC80003398131E2218431833124238431FF2C9D
:100AD800803102282000D000D2015208203E860032
:100AE80001308700010803197A2D7B2D822D5208C9
:100AF800203E860001308700013081020130CE009F
:100B08004E08D20740305202031C8B2D8C2D712DBC
:100B1800D1010330CE004E08D005CE2D420803394E
:100B2800031D972D982D9B2DD101D103E42D013064
:100B3800C202E42D03304205CE0007304E06031DE5
:100B4800A62DA72DA82D982D0130CE004E08C2073E
:100B5800E42D4208CE000330CE36890BB02D073085
:100B68004E06031DB82DB92DBA2D982D0830C20296
:100B7800E42D4208CE000330CE36890BC02D4E0836
:100B8800031DC72DC82DC92D982D0830CE004E083D
:100B9800C207E42D5008CE00CF014F08003A0319D0
:100BA800D62DE42D4E08003A0319922D013A031967
:100BB8009E2D033A0319AD2D013A0319BD2DE42DDD
:100BC800510A031DE82DE92DED2D8231D222853100
:100BD8001E2E4208203E86000130870001080319B6
:100BE800F62DF72DFA2DD101D103E92D4208410642
:100BF800031DFF2D002E172ED101D10A0130CE0082
:100C08004E08E6078331852385317C081F3920008B
:100C1800C1004108203E8600013087000108031DFD
:100C2800162E172E062E4208203E86000130870019
:100C380066088100200051080800F400F2017208DB
:100C48007407F00070088600870181010130F00008
:100C58007008F20710307202031C332E342E232E34
:100C6800200042080339031D3A2E3B2E4C2E7408EF
:100C7800860087018101810A740A86008701810143
:100C8800810A7408023E860087018101810A672E65
:100C980003304205F00007307006031D542E552E10
:100CA800672E7408043E860087018101810A740852
:100CB800053E860087018101810A7408063E860088
:100CC80087018101810A4208F0000330F036890B60
:100CD8006A2E7008031D712E722E852E7408023E2E
:100CE800860087018101810A7408033E8600870116
:100CF8008101810A7408043E860087018101810A06
:100D0800A22E4208F0000330F036890B882E0730F7
:100D18007006031D902E912EA22E7408063E8600A2
:100D280087018101810A7408073E860087018101D5
:100D3800810A7408860087018101810AF30173081A
:100D48005E3E86008701010842073F39F1007108BD
:100D58004106031DB02EB12EBA2E73087407F00099
:100D68007008083E860087018101810A7108203ECB
:100D780086000130870001080319C32EC42ECC2E2B
:100D880073087407F0007008860087018101810AE2
:100D98000130F0007008F30708307302031CD52EE9
:100DA800D62EA32E08002000D001500881314E21F4
:100DB80086312000C800C901C81BC9035035A03EB0
:100DC800860087014808C03F4908C13FCB014B084E
:100DD800B43E860087010108C800C9014808CE0052
:100DE8004908CF005008F4004B0881319221863120
:100DF800F700F801F71BF80320004F08FA004E0827
:100E0800F90082319122863178082000CF007708D6
:100E1800CE00FF30F0000030F1004F08F3004E081C
:100E2800F2008331F423863171082000CF00700866
:100E3800CE005035A03E860087014E08810741311B
:100E48004F08813D7F310130C8004808CB0710307A
:100E58004B02031C302F312FEB2E50082A3E860000
:100E680087015035A03E8400850100088131B021FA
:100E78008631810001302000C8004808D0070A30B8
:100E88005002031C482F492FD92ED1015108813116
:100E9800552186312000C800C901C81BC903513536
:100EA800203E860087014808C03F4908C13FCC0161
:100EB8004C082A3E860087010108C800C901480875
:100EC800CE004908CF005108F4004C088131852133
:100ED8008631F700F801F71BF80320004F08FA00E5
:100EE8004E08F90082319122863178082000CF001F
:100EF8007708CE00FF30F0000030F1004F08F30013
:100F08004E08F2008331F423863171082000CF00A7
:100F18007008CE005135203E860087014E088107B3
:100F280041314F08813D7F310130C8004808CC0766
:100F38000A304C02031CA12FA22F5C2F51083C3E03
:100F4800860087015135203E8400850100088131E3
:100F5800B0218631810001302000C8004808D1073F
:100F680005305102031CB92FBA2F4A2FCA01CD01EF
:100F7800CD0A4A083C3E860087014D083C3E840065
:100F88008501000801020318CA2FCB2FCD2F4D0869
:100F9800CA000130C8004808CD0705304D02031CBF
:100FA800D62FD72FBD2F4A0808005C308400813027
:100FB80085005E308600003087000930813141218C
:100FC80087312030840000308500283081313B2172
:100FD8008731A030840000308500243081313B21E6
:100FE80087312030840001308500403081313B2139
:100FF800873120008431BE2C00340034013402349F
:1010080005340C341B343234403432341B340C3441
:10101800053402340134003400340034013402341D
:1010280005340C341E3445348034BA34E134F33496
:10103800FA34FD34FE34FF340234403401340034D1
:020000040001F9
:08000000FF3FFF3FFF3FFF3F00
:04000E00E43FFF3E8E
:00000001FF
