:08000000803102288731D12F65
:10000A002000A5012508D43E860087018101013020
:10001A00A4002408A50710302502031C1528162859
:10002A0007280030F000F1008D311C2580318E3117
:10003A00972680317C080F392000DF008E31972601
:10004A0080317C080F392000DE000330E1002830BF
:10005A00DD005F08D43E8600870161088100080040
:10006A002000A101FA1F3A283B284228F909FA0977
:10007A00F90A0319FA0AA101A10AFC1F4528462810
:10008A004F28FB09FC09FB0A0319FC0A0130FD0091
:10009A007D08A106A201A30179087A04031956284A
:1000AA0057288628A001A00A63280130F935FA0DDD
:1000BA00890B5B280130FD007D08A007FA1F66281E
:1000CA0067285A280130A235A30D890B68287A08B7
:1000DA007C02031D722879087B02031C7528762886
:1000EA007B287908FB027A08FC3B22140130FA3695
:1000FA00F90C890B7C280130A002031D852886286B
:10010A006728210803198A288B289028A209A3099D
:10011A00A20A0319A30A2308FA002208F900080010
:10012A002000AD00A90129082D07A4002408860093
:10013A00870181010130A4002408A9070830290297
:10014A00031CA828A92898285F080339AA000430A4
:10015A00F9000030FA005F08A400A5012408FB009A
:10016A002508FC0080313520803179082000AB0059
:10017A005E080339A7000430F9000030FA005E086F
:10018A00A400A5012408FB002508FC0080313520C5
:10019A00803179082000A8002A08031DD528D6280E
:1001AA00DC282D08860087018101810AE7280330AF
:1001BA002A06031DE128E228E7282D0A860087017E
:1001CA008101810A2B08031DEB28EC28F3282D084E
:1001DA00023E860087018101810AFF2803302B062F
:1001EA00031DF828F928FF282D08033E86008701F9
:1001FA008101810AAC012C08E43E860087010108CE
:10020A005F070F39A6002608D43E86008701010839
:10021A0003191029112919292C082D07A4002408CB
:10022A00860087018101810A0130A4002408AC07F5
:10023A0004302C02031C2229232900292A08270218
:10024A0003182829292930292D08043E8600870108
:10025A008101810A3C2927082A02031835293629EF
:10026A003C292D08053E860087018101810A2B0859
:10027A00280203184129422949292D08063E8600E9
:10028A0087018101810A552928082B0203184E2962
:10029A004F2955292D08073E860087018101810AC9
:1002AA0008002000A8000130DD02AA012A08D43E75
:1002BA008600870101080319632964296A292A0823
:1002CA00D43E86008701013081020130A60026084B
:1002DA00AA0710302A02031C732974295B29A90171
:1002EA000330A6002608A805CB295F080339031D99
:1002FA007F29802984292000A901A903E129013045
:10030A00DF02E12903305F05A60003302606031D3C
:10031A008F299029912980290130A6002608DF0714
:10032A00E1290430F9000030FA005F08A600A701AD
:10033A002608FB002708FC00803135208131790826
:10034A007A04031DA929AA29AB298029043020008F
:10035A00DF02E1290430F9000030FA005F08A60044
:10036A00A7012608FB002708FC00803135208131CF
:10037A00033079067A04031DC329C429C5298029B3
:10038A0004302000A6002608DF07E1292808A60075
:10039A00A7012708003A0319D329E1292608003AB8
:1003AA0003197A29013A03198729033A0319962965
:1003BA00013A0319AF29E129290A031DE529E6298A
:1003CA00EA298031052081311A2A5F08D43E860045
:1003DA00870101080319F229F329F629A901A903BA
:1003EA00E6295F085E06031DFB29FC29142A28302A
:1003FA00DD00A901A90A0130A6002608E1078E310D
:10040A00972681317C080F392000DE005E08D43E31
:10041A00860087010108031D132A142A042A5F088B
:10042A00D43E860087016108810020005D08031D13
:10043A001F2A202A252AA901A903803105208131F2
:10044A002000290808002000AC012C08633E860021
:10045A0087010108803A7F3E031C342A352A3B2A49
:10046A002C08633E86008701103081000130A70006
:10047A002708AC0708302C02031C442A452A2A2ADA
:10048A00B0013008513E860087010108A700A80183
:10049A00A71BA8033035B03E860087012708C03F56
:1004AA002808C13FAD011030F9000030FA002D08CC
:1004BA00633E860087010108F300F401F31BF4038D
:1004CA002D08A7000230A735890B682A2030270794
:1004DA00A80030082807A9002908860001308700EB
:1004EA000108F500F601F51BF6038D31A5258231C9
:1004FA007408FC007308FB0080313520823120002B
:10050A003035B03E860087017908810741317A0883
:10051A00813D7F310130A7002708AD0708302D0241
:10052A00031C982A992A582A3035B03E860087013A
:10053A00403FFB00413FFC001030F9000030FA0058
:10054A008031352082317A082000A5007908A4007C
:10055A008E310C2682312000A700A8012708AA00A4
:10056A002808AB003008593E860087011030F90090
:10057A000030FA002B08FC002A08FB0080313520E5
:10058A0082317908810001302000A7002708B007CE
:10059A0004303002031CD22AD32A462AB101310878
:1005AA00D03E860087010108A700A801A71BA8035F
:1005BA003135A83E860087012708C03F2808C13F79
:1005CA00AE011030F9000030FA002E08593E8600BC
:1005DA0087010108F300F401F31BF4032E08A700B6
:1005EA000230A735890BF62A50302707A8003108B0
:1005FA002807A90029088600013087000108F500AC
:10060A00F601F51BF6038D31A52582317408FC002D
:10061A007308FB0080313520823120003135A83E35
:10062A00860087017908810741317A08813D7F3147
:10063A000130A7002708AE0704302E02031C262B20
:10064A00272BE62A3135A83E86008701403FFB006A
:10065A00413FFC001030F9000030FA0080313520AB
:10066A0082317A082000A5007908A4008E310C2670
:10067A0082312000A700A8012708AA002808AB0099
:10068A003108553E860087011030F9000030FA0023
:10069A002B08FC002A08FB008031352082317908BA
:1006AA00810001302000A7002708B1070430310279
:1006BA00031C602B612BD42AE001AF01AF0A60084A
:1006CA00553E860087010108803AA7002F08553E4B
:1006DA00860087010108803AA7020318752B762B3A
:1006EA00782B2F08E0000130A7002708AF07043055
:1006FA002F02031C812B822B642B600808008D318A
:10070A003F2583318D313225833180310520833174
:10071A008F315E2783318E31CC2683318C31D724B9
:10072A0083312000C000C501C6014608BD00013062
:10073A00BD35FF3E031D9D2B3D354007BE004508D4
:10074A003E07BF003F088600870101080319AE2B48
:10075A00AF2BB62B4608A40045088D31612583319D
:10076A00BC2B4608F00045088D314F2583310130F6
:10077A002000BD003D08C60704304602031CC62BF4
:10078A00C72B9A2B0130BD003D08C507043045022E
:10079A00031CD02BD12B992B8C31D92483312000E7
:1007AA00C1000430F9000030FA004108BD00BE0162
:1007BA003D08FB003E08FC00803135208331790872
:1007CA002000A400410803398D31612583318E311F
:1007DA003626833106302000BE001330BD00AD300E
:1007EA00890BF52BBD0BF52BBE0BF52B00328C318B
:1007FA00D524833180319520833182312822833177
:10080A002000C20042088131562183312000C400F1
:10081A0044088531752583312000C701C80148087D
:10082A00BD000130BD35FF3E031D172C3D35400785
:10083A00BE0047083E07BF003F088600870101083F
:10084A000319282C292C302C4808A40047088D317C
:10085A0061258331362C4808F00047088D314F2531
:10086A00833101302000BD003D08C807043048022A
:10087A00031C402C412C142C0130BD003D08C70735
:10088A0004304702031C4A2C4B2C132C0630F00070
:10089A0000308D314F2583310630F00002308D3122
:1008AA004F2583310530F00001308D314F258331DA
:1008BA000730F00001308D314F2583310630F000CA
:1008CA0004308D314F2583310630F00006308D31EA
:1008DA004F2583310530F00005308D314F258331A6
:1008EA000730F00005308D314F258331F001F00AD1
:1008FA0004308D314F258331F001F00A06308D31F5
:10090A004F258331F00105308D314F258331023077
:10091A00F00005308D314F25833120006308803A7D
:10092A007F3E031C992C9A2CA12C0630A40000307F
:10093A008D3161258331AE2C6408803A7F3E031CD9
:10094A00A72CA82CAE2C0630A40002308D316125CC
:10095A00833120006508803A7F3E031CB52CB62CF3
:10096A00BD2C0530A40001308D3161258331CA2C9C
:10097A006608803A7F3E031CC32CC42CCA2C07305D
:10098A00A40001308D316125833120006708803A47
:10099A007F3E031CD12CD22CD92C0630A400043063
:1009AA008D3161258331E62C6808803A7F3E031C2D
:1009BA00DF2CE02CE62C0630A40006308D316125B0
:1009CA00833120006908803A7F3E031CED2CEE2C0F
:1009DA00F52C0530A40005308D31612583311E2D9B
:1009EA006A08803A7F3E031CFB2CFC2C1E2D073024
:1009FA00A40005308D31612583311E2DA401A40A7E
:100A0A0004308D3161258331352DA401A40A0630C5
:100A1A008D3161258331352DA40105308D31612554
:100A2A008331352D0230A40005308D3161258331A3
:100A3A00352D20004208BD00BE013E08003A0319C8
:100A4A00272D352D3D08003A0319032D013A0319C4
:100A5A000A2D033A0319112D013A0319172D352DC1
:100A6A00F00107308D314F258331F001F00A07304C
:100A7A008D314F2583312000440A031D452D462D13
:100A8A004C2DA40107308D3161258331572D440344
:100A9A00031D502D512D572DA401A40A07308D3165
:100AAA00612583318C31D92483312000C30004307D
:100ABA00F9000030FA004308BD00BE013D08FB0002
:100ACA003E08FC0080313520833179082000A400DB
:100ADA00430803398D3161258331EC2B803102289B
:100AEA002000B0003008031D7B2D7C2D7D2DD02FDA
:100AFA00300A031D812D822D832DB0013008031D7C
:100B0A00872D882D9F2DB10131082A3E8600870145
:100B1A00103081000130A4002408B10704303102EA
:100B2A00031C982D992D892D60082A3E860087017D
:100B3A008101B52DB20132082A3E86008701810162
:100B4A000130A4002408B20704303202031CAE2D7F
:100B5A00AF2DA02D60082A3E860087011030810043
:100B6A00B7013708CC3E8600870137082A3E840041
:100B7A0085010008A4003708553E84008501000855
:100B8A00A5002408250281000130A4002408B70723
:100B9A0004303702031CD22DD32DB62DB3013308EE
:100BAA00C43E8600870181010130A4002408B307EE
:100BBA0004303302031CE22DE32DD42DBC013C0882
:100BCA00CC3E860087010108F300F401F31BF4030D
:100BDA001030F9000030FA003C35A83E8600870143
:100BEA00403FF000413FF1008D31E625853120007C
:100BFA00A400A5012408FB002508FC00803135204B
:100C0A0085317A08F6007908F5008D31A5258531F8
:100C1A0074082000AF007308AE001030F9000030ED
:100C2A00FA002F08FC002E08FB00803135208531A0
:100C3A0020003C35493E860087017908C03F7A0882
:100C4A00C13F3C08C83E860087013C35493E8400C6
:100C5A008501000881003C35493E8600870101086C
:100C6A008D31122585312000B8013808A4000230E0
:100C7A00A435890B3D2E40302407A5003C082507E2
:100C8A00A60026088600013087001030F9000030DF
:100C9A00FA003808593E840085010008F300F4017F
:100CAA00F31BF4033C35493E84008501003FF500FF
:100CBA00013FF6008D31A52585317408FC007308C3
:100CCA00FB00803135208531790881001030F90028
:100CDA000030FA0020003808A4000230A435890B3D
:100CEA00732E50302407A5003C082507A6002608C5
:100CFA008600013087000108F300F401F31BF403B6
:100D0A003C35493E86008701403FF500413FF600E9
:100D1A008D31A52585317408FC007308FB008031EC
:100D2A003520853179082000A7003808C43E86009E
:100D3A008701270881070130A4002408B807043076
:100D4A003802031CA92EAA2E3A2E0130A400240828
:100D5A00BC0704303C02031CB32EB42EE42DBB01A5
:100D6A003B08C43E860087010108F300F401F31B27
:100D7A00F4031030F9000030FA003B35B03E86002B
:100D8A008701403FF000413FF1008D31E625853172
:100D9A002000A400A5012408FB002508FC008031DE
:100DAA00352085317A08F6007908F5008D31A525B8
:100DBA00853174082000AF007308AE001030F900C6
:100DCA000030FA002F08FC002E08FB008031352085
:100DDA00853120003B35A03E860087017908C03F57
:100DEA007A08C13F3B08C03E860087013B35A03EDA
:100DFA008400850100088100B4013408A40002308F
:100E0A00A435890B052F40302407A5003B08250788
:100E1A00A60026088600013087001030F90000304D
:100E2A00FA003408633E840085010008F300F401E7
:100E3A00F31BF4033B35493E84008501003FF5006E
:100E4A00013FF6008D31A52585317408FC00730831
:100E5A00FB0080313520853179088100013020007E
:100E6A00A4002408B40708303402031C3D2F3E2F87
:100E7A00022F0130A4002408BB0704303B02031CE4
:100E8A00472F482FB52EB9013908C83E8600870179
:100E9A003908D03E8400850101088002B501350871
:100EAA00A4000230A435890B572F40302407A5002F
:100EBA0039082507A600260886000130870035086C
:100ECA00A7000230A735890B672F50302707A800E3
:100EDA0039082807A900290884000130850001087B
:100EEA0080020130A4002408B50704303502031C2F
:100EFA007F2F802F542F0130A4002408B907043013
:100F0A003902031C892F8A2F492FBA0104303A0269
:100F1A00031C902F912F922FD02F3A08C03E8600A3
:100F2A0087013A08513E8400850101088002B60112
:100F3A0008303602031CA22FA32FA42FCB2F36086A
:100F4A00A4000230A435890BA72FA0302407A500DE
:100F5A003A082507A60026088600013087003608C9
:100F6A00A7000230A735890BB72F20302707A80022
:100F7A003A082807A90029088400013085000108D9
:100F8A0080020130A4002408B6079D2F0130A40076
:100F9A002408BA078B2F08000A3084008D30850098
:100FAA00E43086000030870008308C31FD24873118
:100FBA00493084000030850026308C31F72487318F
:100FCA00A03084000030850044308C31F72487310A
:100FDA00203084000130850040308C31F72487317D
:100FEA00A03084000130850020308C31F72487310D
:100FFA0020008331842B403432341B3410341034B3
:10100A0010341034103410341034103410341034B6
:10101A0010341B3432348034BA34E134F334FA34C1
:10102A00FD34FE34FF3410341034103410341034CC
:0E103A0010341E344534023440340134003486
:1019AA0063300800D430080020005E0808001630B2
:1019BA00210097000800F000700824009100080038
:1019CA0071082200E1007008E00008007108210097
:1019DA00EF007008EE00080071082100ED007008A1
:1019EA00EC000800640080010131890BF82C0034F6
:1019FA00FE0012001E00FE0BFE2C00347030210087
:101A0A00990098012200960108000B340F34033420
:101A1A000434053401340D340C34F0002000111E56
:101A2A00172D182D132D700823009A00080070082E
:101A3A00FF3E2000EB00FF30713DEC00ED01EE01AE
:101A4A0008004030240094000230950001309200D2
:101A5A0021000D1224009512080022008C118C130B
:101A6A0021000C148C140C158C110C168C130D14EB
:101A7A008D1508008D3126258D318D3173258D31D7
:101A8A008D3103258D318C31DC248D318D31C42586
:101A9A008D310800F3000130F100730A552DF1353C
:101AAA00890B542D7108FF3AF2007008B83E86007F
:101ABA0087017208810508002000A7000130A500EF
:101ACA00270A682DA535890B672D2508A600240845
:101ADA00B83E8600870126088104080022008C018E
:101AEA008D01373021008C00EF308D00C830230083
:101AFA008D001F308C0024008D018C012100951768
:101B0A00C03022009D0001309E000800F200220031
:101B1A008D1072088C31E0248D312000911D962D94
:101B2A00972D922D911171088C31E0248D3120006E
:101B3A00911DA02DA12D9C2D911122008D1408001C
:101B4A00F701F801731CAA2DAB2DAF2D7508F70705
:101B5A007608F83D0130F535F60D890BB02D0130C8
:101B6A00F436F30C890BB52D73087404031DBE2DCE
:101B7A00BF2DA72D7808F4007708F3000800083075
:101B8A0023009F0090309D0024309E0067309B0008
:101B9A009C010030F0000030F1008C31EB248D31D3
:101BAA000030F0000030F1008C31F1248D3100302A
:101BBA00F0000030F1008C31E5248D312000E20183
:101BCA0008007108803AF20080307202031DEF2D7E
:101BDA0008307002031CF22DF32DF52D10300B2E58
:101BEA007108803AF2007F307202031DFE2DF83030
:101BFA0070020318012E022E032EF32D7008003EE8
:101C0A00840088300318013E85000008080020007F
:101C1A002508803AA60080302602031D162E0830B9
:101C2A002402031C192E1A2E1C2E1030352E2000C9
:101C3A002508803AA6007F302602031D262EF8309A
:101C4A0024020318292E2A2E2C2EFF30352E20008E
:101C5A002408103E840088300318013E85000008DD
:101C6A000800F7017708B83E860087010108F400EA
:101C7A00F501F6010310F50D74080139F300730834
:101C8A00F5040310F40C0130F3007308F60708306A
:101C9A007602031C512E522E3F2E7508F10077084A
:101CAA00013E8D318B258E310130F3007308F70721
:101CBA0008307702031C622E632E372E080000308C
:101CCA00FB000030FA000030F9000030F800701C08
:101CDA006F2E702E782E7408F8077508F93D76086D
:101CEA00FA3D7708FB3D0130F435F50DF60DF70D99
:101CFA00890B792E0130F336F20CF10CF00C890BBA
:101D0A00802E7308720471047004031D8D2E8E2EAA
:101D1A006C2E7B08F3007A08F2007908F100780843
:101D2A00F000080020006E08F3006D08F2006C084D
:101D3A00F1006B08F0004C30F7009530F6007F3068
:101D4A00F5002D30F4008E3164268E310130700793
:101D5A002000EB000030713DEC000030723DED00D8
:101D6A000030733DEE006B08A0006C08A1006D08FE
:101D7A00A2006E08A3001130A336A20CA10CA00C7D
:101D8A00890BC12E2108FD002008FC000800220052
:101D9A008D1421008D1024009516F10109308D3122
:101DAA008B258E31F1010A308D318B258E31F1016F
:101DBA000C308D318B258E310730F1000B308D318F
:101DCA008B258E31F101F10A0C308D318B258E3144
:101DDA00F101F10A0F308D318B258E310B30F40071
:101DEA002630F3005E30890BF82EF30BF82EF40B35
:101DFA00F82EF1010F308D318B258E31F101F10A68
:101E0A000C308D318B258E3108002000AA01A71FC6
:101E1A000F2F102F172FA609A709A60A0319A70A19
:101E2A00AA01AA0AA51F1A2F1B2F202FA409A50948
:101E3A00A40A0319A50A240825040319252F262F05
:101E4A004F2FA901A90A322F0130A435A50D890BFC
:101E5A002A2F0130A8002808A907A51F352F362FD9
:101E6A00292F25082702031D3C2F24082602031CBC
:101E7A003F2F402F442F2408A6022508A73B0130F4
:101E8A00A536A40C890B452F0130A902031D4E2F3C
:101E9A004F2F362F2A080319532F542F592FA609CB
:101EAA00A709A60A0319A70A2708A5002608A40055
:101EBA0008002000B0013008513E860087010F302B
:101ECA00A4000030A5008E3197268F317D082000AE
:101EDA00A7007C08A6008F310A278F31200024082A
:101EEA00F83E8100AE012E08AB000230AB35890BFB
:101EFA007B2F20302B07AC0030082C07AD002D08B3
:101F0A008600013087000F30A4000030A5008E3112
:101F1A0097268F317D082000A7007C08A6008F3104
:101F2A000A278F3120002408F83E81000130AB00D7
:101F3A002B08AE0708302E02031CA42FA52F782FDA
:101F4A000130AB002B08B00704303002031CAE2F5F
:101F5A00AF2F602FB1013108D03E860087010F30C4
:101F6A00A4000030A5008E3197268F317D0820000D
:101F7A00A7007C08A6008F310A278F312000240889
:101F8A00F83E8100AF012F08AB000230AB35890B58
:101F9A00CB2F50302B07AC0031082C07AD002D0891
:101FAA008600013087000F30A4000030A5008E3172
:101FBA0097268F317D082000A7007C08A6008F3164
:101FCA000A278F3120002408F83E81000130AB0037
:101FDA002B08AF0704302F02031CF42FF52FC82F4C
:101FEA000130AB002B08B10704303102031CFE2F6D
:061FFA00FF2FB02F0800CC
:020000040001F9
:08000000FF3FFF3FFF3FFF3F00
:04000E00E43FFF3E8E
:00000001FF
